:060000000A128A110C280F
:10000800FE00030EF0000A08F1000A168A15372CC4
:100018000A128A110F288317C230FD001B30FE0018
:10002800EB30FF00B63084000A168A1517248316B1
:100038000317C201C301C401C501C601C701C80134
:10004800C901CA01CB010313C701C801C901CA010B
:10005800CB01CC01CD01FA01FB0183010A168A11FB
:10006800172DBD00A130B0000130A007FF302007D8
:1000780084000A168A1100200A128A11C400440852
:100088000319592E25304406031954283D088400C5
:100098004408831780000130FF007F08BD07382817
:1000A800B101B201200884000A168A1100200A1240
:1000B8008A112E3A031D9E2832170130FF007F084F
:1000C800A007C201C301200884000A168A11002073
:1000D8000A128A110A168A1505240A128A11031CA3
:1000E800A9280A30F2000030F3004308F50042085E
:1000F800F4000A168A159F240A128A117308C3008D
:100108007208C200200884000A168A1100200A1208
:100118008A11D03EA700FF3003180030A800270836
:10012800C2070318C30A2808C3070130FF007F0865
:10013800A0076728C201C3013216A9283215C628AC
:10014800C030B1040030B204C6280130A007FF3027
:10015800200784000A168A1100200A128A11C40096
:10016800A700A8012808003A0319BB28382827083F
:10017800003A0319592E663A0319A228133A0319AB
:10018800A428382800303105A70007303205A80018
:10019800270828040319702D321ED6280630C200FD
:1001A8000030C3003008840083130008BE00840AAE
:1001B8000008BF00840A0008C000840A0008C100C3
:1001C8000430FF007F08B0074108F5004008F4003C
:1001D8003F08F3003E08F2000030F9000030F80054
:1001E8000030F7000030F6000A168A111C210A12A6
:1001F8008A110318192983164108F5004008F400EC
:100208003F08F3003E08F2000A128A11F5270A1285
:100218008A117508C1007408C0007308BF0072080D
:10022800BE000330B1040030B2048316B701B80130
:100238004108F5004008F4003F08F3003E08F200CA
:100248000030F9000030F8000030F7000030F60008
:100258000A168A15E6250A128A110318FB290310C3
:100268008316400D410D823EB700FF300318003061
:10027800B800FF30B7070318B80AFF30B8070330D3
:10028800F2000030F3003808F5003708F4000A16C9
:100298008A159F240A128A117308B8007208B700D9
:1002A8000A308312A0000030A10083163808831298
:1002B800A300831637088312A2000A168A15C626D9
:1002C8000A128A1121088316B8008312200883169F
:1002D800B700B81F7529FF30B7070318B80AFF30F1
:1002E800B8073703FF3A0A128A15D8240A128A1166
:1002F80056088316BC00831255088316BB00831268
:1003080054088316BA00831253088316B9004108AB
:100318008312BC00831640088312BB0083163F0873
:100328008312BA0083163E088312B90083163C086C
:100338008312C00083163B088312BF0083163A0855
:100348008312BE00831639088312BD000A128A156B
:10035800FF210A128A113C088316BC0083123B084D
:100368008316BB0083123A088316BA008312390831
:100378008316B9003C08F5003B08F4003A08F3007E
:100388003908F2003F30F9008030F8000030F700FB
:100398000030F6000A168A111C210A128A11031865
:1003A800DC29FF308316B7070318B80AFF30FA298B
:1003B80083163C08F5003B08F4003A08F3003908B6
:1003C800F2004130F9002030F8000030F70000302A
:1003D800F6000A168A111C210A128A11031CFB292D
:1003E80001308316B7070318B80A0030B807831618
:1003F8004308803AFF0080307F02031D052A0D3034
:10040800420203183B2A8316031342080A168A116C
:1004180049260A128A115608A8005508A700540848
:10042800A6005308A500831641088312AC00831662
:1004380040088312AB0083163F088312AA00831674
:100448003E088312A9000A128A1502200A128A118C
:1004580028088316C100831227088316C000831258
:1004680026088316BF00831225088316BE0083164C
:1004780003133808803AFF0080307F02031D462AA4
:100488000A3037020318882A831603134108F50037
:100498004008F4003F08F3003E08F2000030F9007D
:1004A8000030F8000030F7000030F6000A168A1510
:1004B800E6250A128A110318E62A831641088312D0
:1004C800E900831640088312E80083163F08831268
:1004D800E70083163E088312E6000A168A151F27CE
:1004E8000A128A116908680467046604031DE62A6B
:1004F80083163808803AFF0080307F02031D862A61
:1005080002303702031CE62A831603133C08F50061
:100518003B08F4003A08F3003908F2004030F900CB
:100528008930F8007030F7005F30F6000A168A113B
:100538001C210A128A110318A32AF730A42AF830BA
:100548008316B7070318B80AFF30B80737080A1226
:100558008A15D8240A128A1156088316BC008312F9
:1005680055088316BB00831254088316BA008312F9
:1005780053088316B9004108F5004008F4003F0805
:10058800F3003E08F2003C08F9003B08F8003A087E
:10059800F7003908F6000A168A1153220A128A113E
:1005A80075088316B6007408B5007308B40072089D
:1005B800B3000030C1000030C0000030BF00003080
:1005C800BE00472B8316031341088312E9008316E4
:1005D80040088312E80083163F088312E700831659
:1005E8003E088312E6000A168A151F270A128A1186
:1005F80069088316B600831268088316B50083124B
:1006080067088316B400831266088316B300360899
:10061800F5003508F4003408F3003308F200003020
:100628000A168A11B1210A128A117508BC007408C9
:10063800BB007308BA007208B90083164108831218
:10064800C000831640088312BF0083163F08831238
:10065800BE0083163E088312BD000A168A1562245E
:100668000A128A113C088316C10083123B088316BC
:10067800C00083123A088316BF0083123908831614
:10068800BE00B701B801C401C40A4408A70001307C
:100698000310A70DFF3E031D4C2B0310270D693EC9
:1006A80084000A168A1100200A128A11A8000A1664
:1006B8008A1100200A128A11A9000A168A1100203C
:1006C8000A128A11AA000A168A1100200A128A112F
:1006D800AB002B083602031D7B2B2A083502031DAD
:1006E8007B2B29083402031D7B2B28083302031CAB
:1006F800852B0130FF007F08C4070A304406031D1C
:10070800492B310803390319922B3D0884002D30F9
:10071800831780000130FF007F08BD070130C40245
:10072800440A0319142C4408A70001300310A70D2C
:10073800FF3E031D9A2B0310270D693E84000A16FD
:100748008A1100200A128A11F2000A168A11002062
:100758000A128A11F3000A168A1100200A128A1155
:10076800F4000A168A1100200A128A11F5003608C8
:10077800F9003508F8003408F7003308F6000A16BF
:100788008A11BD200A128A1175088316BC007408E4
:10079800BB007308BA007208B90000308312A900C0
:1007A8000030A8000030A7000A30A60083163C08D5
:1007B8008312AD0083163B088312AC0083163A08F7
:1007C8008312AB00831639088312AA000A168A1509
:1007D8007A260A128A1129088316BC00831228086F
:1007E8008316BB00831227088316BA0083122608D3
:1007F8008316B9003D0884003908303E8C2B8316D7
:1008080003133D0884003030831780000130FF0057
:100818007F08BD07FF30B7070318B80AFF30B807CD
:100828003808803AFF0080307F02031D1D2C0130FC
:1008380037020318032C831603134308803AFF007A
:1008480080307F02031D2A2C09304202031C302C01
:10085800083083160313332C831603134208C4008D
:100868004408A700A8012708C2022808031CC303DC
:10087800C30244080319492C3D0884002E3083170D
:1008880080000130FF007F08BD0744080A128A155E
:10089800D8240A128A1156088316AF008312550805
:1008A8008316AE00831254088316AD0083125308D2
:1008B8008316AC002F088312C00083162E088312FB
:1008C800BF0083162D088312BE0083162C088312DE
:1008D800BD00831641088312BC00831640088312AA
:1008E800BB0083163F088312BA0083163E088312A2
:1008F800B9000A128A15FF210A128A113C08E90078
:100908003B08E8003A08E7003908E6000A168A15A5
:100918001F270A128A1169088316B600831268080D
:100928008316B500831267088316B400831266081D
:100938008316B3000130C402440A03196B2D44081E
:10094800A70001300310A70DFF3E031DA62C0310BE
:10095800270D693E84000A168A1100200A128A119E
:10096800F2000A168A1100200A128A11F3000A16E8
:100978008A1100200A128A11F4000A168A1100202E
:100988000A128A11F5003608F9003508F80034080B
:10099800F7003308F6000A168A11BD200A128A11D8
:1009A80075088316BC007408BB007308BA00720887
:1009B800B90000308312A9000030A8000030A70059
:1009C8000A30A60083163C088312AD0083163B0844
:1009D8008312AC0083163A088312AB0083163908D9
:1009E8008312AA000A168A157A260A128A11290879
:1009F8008316BC00831228088316BB0083122708BD
:100A08008316BA00831226088316B9003D088400AD
:100A18003908303E831780000130FF007F08BD078A
:100A28004408A70001300310A70DFF3E031D172D32
:100A38000310270D693E84000A168A1100200A1245
:100A48008A118312A6000A168A1100200A128A1136
:100A5800A7000A168A1100200A128A11A8000A168D
:100A68008A1100200A128A11A900831636088312F7
:100A7800AD00831635088312AC0083163408831240
:100A8800AB00831633088312AA000A168A157A2641
:100A98000A128A1129088316B600831228088316B9
:100AA800B500831227088316B400831226089C2CED
:100AB8003D0884003030831780000130FF007F0834
:100AC800BD07FF30C2070318C30AFF30C307420837
:100AD8004304031938285C2D300884008313000868
:100AE800A700840A0008A8002708B3002808B40053
:100AF800B501B6010230FF007F08B0074208430481
:100B0800031D922D3608350434043304031D922D39
:100B18000130C2070318C30A0030C307C401C40A5E
:100B28004408A70001300310A70DFF3E031D972DB1
:100B38000310270D693E84000A168A1100200A1244
:100B48008A11A8000A168A1100200A128A11A9001F
:100B58000A168A1100200A128A11AA000A168A1196
:100B680000200A128A11AB002B083602031DC62D7D
:100B78002A083502031DC62D29083402031DC62D77
:100B880028083302031CD02D0130FF007F08C4075A
:100B98000A304406031D942D4308803A803C031D07
:100BA800D72D42084402031CEF2D83160313430874
:100BB800803AA70080302702031DE42D4408420232
:100BC8000318EF2D831603134408A700A80127086C
:100BD800C2002808C3008316031331080339031918
:100BE800FE2D3D0884002D30831780000130FF0062
:100BF8007F08BD07FF30C2070318C30AFF30C307C9
:100C0800420A0319430A0319382800308312A9003D
:100C18000030A8000030A7000A30A600831642085A
:100C2800A70001300310A70DFF3E031D162E031069
:100C3800270D693E84000A168A1100200A128A11BB
:100C4800F2000A168A1100200A128A11F3000A1605
:100C58008A1100200A128A11F4000A168A1100204B
:100C68000A128A11F5003608F9003508F800340828
:100C7800F7003308F6000A168A11BD200A128A11F5
:100C88007508AD007408AC007308AB007208AA00C0
:100C98000A168A157A260A128A112608303E831601
:100CA800C4003D0884004408F82D3D0884008317DB
:100CB800800108005A088039E4005A08DB005B0705
:100CC800EB00D91B6B146B080319782E6B0A031DF4
:100CD800752E0030DA000030D9000030D80000301E
:100CE800D700D917DA01802E0030DA000030D90099
:100CF8000030D8000030D70056088039FF007F0840
:100D0800E4065608DB005B07EC00D51B6C146C0886
:100D180003199C2E6C0A031D992E0030D600003052
:100D2800D5000030D4000030D300D517D601A42E4A
:100D38000030D6000030D5000030D4000030D30099
:100D48005608550454045304031DC32E0030DA001A
:100D58000030D9000030D8000030D7008030D904E6
:100D68007F30DA046408FF007F08DA045A08D600E6
:100D78005908D5005808D4005708D30008006B0854
:100D8800031DCF2E0030D6000030D5000030D4002F
:100D98000030D30008006B08DB00DC015C08DE00D3
:100DA8006C085B02DD00031CDE035D087F3EE50086
:100DB8005E080318013E003EE6005A08E3005908A1
:100DC800E2005808E1005708E0000030DA0000307F
:100DD800D9000030D8000030D7000030EA000030D9
:100DE800E9000030E8000030E700EC011A306C023E
:100DF8000318422F6C0803191E2F0130DB00031063
:100E0800E00DE10DE20DE30DDB0B032F0130DB00FC
:100E18000310D70DD80DD90DDA0DDB0B0C2FEA1BFB
:100E280057140130DB000310E70DE80DE90DEA0D5A
:100E3800DB0B172F56086302031D2C2F550862027F
:100E4800031D2C2F54086102031D2C2F5308600228
:100E5800031C3D2F6A175308E0025408031C540F63
:100E6800E1025508031C550FE2025608031C560FF1
:100E7800E3020130FF007F08EC07FA2E63086204E2
:100E880061046004031D6714D91B652F0130DB0062
:100E98000310D70DD80DD90DDA0DDB0B4C2FEA1B3B
:100EA80057140130DB000310E70DE80DE90DEA0DDA
:100EB800DB0B572FFF30E5070318E60AFF30E6077C
:100EC800482FEC01EA1F7E2FFF306705DB00FF305B
:100ED8006805DC00FF306905DD007F306A05DE004B
:100EE8005E085D045C045B04031957187C2F7E2F91
:100EF800EC01EC0A6C080319B02F0130D707003059
:100F080003180130D807003003180130D907003022
:100F180003180130DA075A1CB02F5708DB005808AD
:100F2800DC005908DD005A08DE000130DF005E0DE4
:100F3800DE0CDD0CDC0CDB0CDF0B9B2F5E08DA0013
:100F48005D08D9005C08D8005B08D7000130E507C8
:100F58000318E60A0030E6076608803AFF0080308A
:100F68007F02031DB92FFF306502031CC92FFF3014
:100F780083120313E5000030E6000030DA00003089
:100F8800D9000030D8000030D70083120313660858
:100F9800803AFF0080307F02031DD42F01306502A4
:100FA8000318E32F83120313E501E6010030DA008A
:100FB8000030D9000030D8000030D700E401831297
:100FC80003136508EB006B1CEB2FD917EF2F7F304D
:100FD800FF007F08D9056B08DB0003105B0CDA0003
:100FE800B62E75087404730472040319080080305F
:040FF800F5060800F2
:1010040028088039B5002808AD002D07B700A71BB4
:101014003714370803191C28370A031D1928003010
:10102400A8000030A7000030A6000030A500A717D4
:10103400A80124280030A8000030A7000030A60032
:101044000030A5002C088039B60036083506031D8B
:1010540035172C08AD002D07B600AB1B3614360827
:1010640003194228360A031D3F280030AC00003023
:10107400AB000030AA000030A900AB17AC014A282D
:101084000030AC000030AB000030AA000030A900F2
:101094003708360203187228351F54288030FF00A1
:1010A4007F08B5063708B8003608B7003808B60018
:1010B4002508B8002908A5003808A9002608B800A2
:1010C4002A08A6003808AA002708B8002B08A70099
:1010D4003808AB002808B8002C08A8003808AC0071
:1010E400B8013608AD00AE012E08B00037082D0255
:1010F400AF00031CB0033008803AFF0080307F0249
:10110400031D86281A302F02031CB92883120313E7
:10111400280827042604250403199228013093285B
:101124000030B8000030A8000030A7000030A6004E
:101134000030A5003608B700BF28381CA828380896
:10114400AD0003102D0C0138B800AA280310B80C08
:101154002518B8170130AD00280DA80CA70CA60C53
:10116400A50CAD0BAE280130FF007F08B707831232
:10117400031336083702031C9F28351BFE28370843
:10118400031DCD280030A8000030A7000030A600C1
:101194000030A50008002908A5072A080311031830
:1011A400013E031DA6072B0803110318013E031D6E
:1011B400A7072C0803110318013E031DA807281CC8
:1011C400A029381CEC283808AD0003102D0C013878
:1011D400B800EE280310B80C2518B8170130AD007C
:1011E400280DA80CA70CA60CA50CAD0BF2280130F9
:1011F400FF007F08B707A0292808803AFF002C08C1
:10120400803A7F02031D10292B082702031D102991
:101214002A082602031D1029290825020318682913
:10122400FF30AD00FF30AE00FF30AF00FF30B00044
:101234002908B1002A08B2002B08B3002C08B40016
:101244002508B1022608031C260F29292A29B202DF
:101254002708031C270F2F293029B3022808031C51
:10126400280F35293629B4023108AD07320803188E
:10127400320F3D293E29AE0733080318330F4329A3
:101284004429AF0734080318340AB0073008A8000B
:101294002F08A7002E08A6002D08A5008030FF0007
:1012A4007F08B506B809B80A3808031D7629013045
:1012B400A507003003180130A607003003180130D9
:1012C400A707003003180130A80776292908A502CA
:1012D4002A08031C2A0FA6022B08031C2B0FA702A3
:1012E4002C08031C2C0FA802280827042604250414
:1012F400031D9E293808031D9E290030A8000030D4
:10130400A7000030A6000030A50008000130AD00A1
:101314000310A50DA60DA70DA80DAD0B8A29B81BAA
:101324002514381C9729031498290310B80D37087D
:1013340003199E290130B702A71F8829B601B81FD7
:10134400AB2938087F3903192518A929AB29B60117
:10135400B60A36080319DE290130A5070030031840
:101364000130A607003003180130A7070030031826
:101374000130A807281CDE292508AD002608AE0088
:101384002708AF002808B0000130B100300DB00CC0
:10139400AF0CAE0CAD0CB10BC8293008A8002F0857
:1013A400A7002E08A6002D08A500370A0319DE2978
:1013B4000130FF007F08B707370A031D3708031DF4
:1013C400EE290030A8000030A7000030A60000304D
:1013D400A50037080319B501371CF229A717F62908
:1013E4007F30FF007F08A7053708AD0003102D0CE0
:1013F400A800B51F0800A81708003C088039C600DB
:101404003C08C1004107C800BB1B48144808031925
:10141400182A480A031D162A0030BC000030BB00FD
:101424000030BA000030B900BB17202A0030BC00DD
:101434000030BB000030BA000030B90040088039E9
:10144400FF007F08C6064008C1004107C700BF1B54
:101454004714470803193B2A470A031D392A003059
:10146400C0000030BF000030BE000030BD00BF1718
:10147400432A0030C0000030BF000030BE000030FE
:10148400BD004708031D4808031D512A0030BC0055
:101494000030BB000030BA000030B9000800390841
:1014A400F2003F080A168A15E1240A128A15730805
:1014B400D2007208D1005108C100C201C301C401A5
:1014C4004408CC004308CB004208CA004108C900C4
:1014D4005208C100C201C301C4014408D00043083A
:1014E400CF004208CE004108CD003A08F2003E0881
:1014F4000A168A15E1240A128A157308D2007208A2
:10150400D1005108C100C201C301C4014108C90787
:10151400420803110318013E031DCA0743080311BF
:101524000318013E031DCB07440803110318013EB1
:10153400031DCC075208C100C201C301C401410804
:10154400CD07420803110318013E031DCE074308CB
:1015540003110318013E031DCF07440803110318A8
:10156400013E031DD0073B08F2003D080A168A1508
:10157400E1240A128A157308D2007208D1005108B6
:10158400C100C201C301C4014108C90742080311D3
:101594000318013E031DCA07430803110318013E43
:1015A400031DCB07440803110318013E031DCC0798
:1015B4005208C100C201C301C4014108CD07420859
:1015C40003110318013E031DCE074308031103183A
:1015D400013E031DCF07440803110318013E031DF8
:1015E400D0070830C1000310C90DCA0DCB0DCC0DB6
:1015F400C10BF52A3A08F2003D080A168A15E124BF
:101604000A128A157308D2007208D1005108C10069
:101614005208C200C301C4014108C90742080311AA
:101624000318013E031DCA07430803110318013EB2
:10163400031DCB07440803110318013E031DCC0707
:101644003908F2003E080A168A15E1240A128A159E
:101654007308D2007208D1005108C1005208C200B8
:10166400C301C4014108C907420803110318013E1C
:10167400031DCA07430803110318013E031DCB07CA
:10168400440803110318013E031DCC070830C100B0
:101694000310C90DCA0DCB0DCC0DC10B4A2B390853
:1016A400F2003D080A168A15E1240A128A15730805
:1016B400D2007208D1005108C1005208C200C3010F
:1016C400C4014108C907420803110318013E031D60
:1016D400CA07430803110318013E031DCB0744083E
:1016E40003110318013E031DCC073A08F2003F081A
:1016F4000A168A15E1240A128A157308D2007208A0
:10170400D1005108C1005208C200C301C4014108FC
:10171400CD07420803110318013E031DCE074308F9
:1017240003110318013E031DCF07440803110318D6
:10173400013E031DD0073B08F2003E080A168A1535
:10174400E1240A128A157308D2007208D1005108E4
:10175400C1005208C200C301C4014108CD074208B8
:1017640003110318013E031DCE0743080311031898
:10177400013E031DCF07440803110318013E031D56
:10178400D0073B08F2003F080A168A15E1240A1222
:101794008A157308D2007208D1005108C10052089A
:1017A400C200C301C40108300310C10DC20DC30D32
:1017B400C40DFF3E031DD62B4108CD07420803117B
:1017C4000318013E031DCE07430803110318013E0D
:1017D400031DCF07440803110318013E031DD0075E
:1017E4004C08C100C201C301C4014108CD0742082D
:1017F40003110318013E031DCE0743080311031808
:10180400013E031DCF07440803110318013E031DC5
:10181400D0070830C1000310C90DCA0DCB0DCC0D83
:10182400C10B0D2C48084707C100C201C20D410875
:10183400823ED10042080318013EFF3ED200CF1B76
:101844003E2C0130C1000310CD0DCE0DCF0DD00DB7
:10185400C10B252CCC1B4D140130C1000310C90D44
:10186400CA0DCB0DCC0DC10B302CFF30D1070318A2
:10187400D20AFF30D207212CC701CC1F572CFF30CE
:101884004905C100FF304A05C200FF304B05C300C3
:101894007F304C05C4004408430442044104031946
:1018A4004D18552C572CC701C70A47080319892C12
:1018B4000130CD07003003180130CE070030031883
:1018C4000130CF07003003180130D007501C892C99
:1018D4004D08C1004E08C2004F08C3005008C400A0
:1018E4000130C500440DC40CC30CC20CC10CC50BA3
:1018F400742C4408D0004308CF004208CE004108AD
:10190400CD000130D1070318D20A0030D2075208A3
:10191400803AFF0080307F02031D922CFF30510279
:10192400031C9F2C7F3083120313D0008030CF0020
:101934000030CE000030CD00CB2C831203135208AC
:10194400803AFF0080307F02031DAA2C013051022F
:101954000318B82C003083120313D0000030CF00DA
:101964000030CE000030CD00C601CB2C831203130F
:101974005108C800FF30CD05FF30CE057F30CF05BC
:101984000030D0054818CF174808C1000310410C97
:10199400D0004608FF007F08D0045008BC004F0860
:1019A400BB004E08BA004D08B90008008312E500D8
:1019B400E51F6F2EE509E50A6508803A123E031C0F
:1019C400BF2D0A30A0000030A1006508F400F50125
:1019D400F41BF5036430F2000030F3000A168A1594
:1019E4002F260A128A157308A3007208A2000A1689
:1019F4008A15C6260A128A152008D700013003105A
:101A0400D70DFF3E031D012D0310570D593E8400D1
:101A14000A168A1100200A128A15D8000A168A1199
:101A240000200A128A15D9000A168A1100200A1207
:101A34008A15DA000A168A1100200A128A15DB00B8
:101A44005B08BC005A08BB005908BA005808B90022
:101A54006430A0000030A1006508A200A301A21B0D
:101A6400A3030A168A15C6260A128A152008DC0062
:101A740001300310DC0DFF3E031D3B2D03105C0DF4
:101A84007D3E84000A168A1100200A128A15DD00A0
:101A94000A168A1100200A128A15DE000A168A1113
:101AA40000200A128A15DF000A168A1100200A1281
:101AB4008A15E0006008C0005F08BF005E08BE0031
:101AC4005D08BD000A128A15FF210A128A153C0816
:101AD400E4003B08E3003A08E2003908E1000A3078
:101AE400F2000030F3006508F400F501F41BF5037F
:101AF4000A168A152F260A128A157208D700013091
:101B04000310D70DFF3E031D822D0310570D353EE4
:101B140084000A168A1100200A128A15D8000A16AF
:101B24008A1100200A128A15D9000A168A11002087
:101B34000A128A15DA000A168A1100200A128A1576
:101B4400DB005B08BC005A08BB005908BA005808FF
:101B5400B9006408C0006308BF006208BE006108E1
:101B6400BD000A128A15FF213C08D6003B08D500A7
:101B74003A08D4003908D30008006508803A753E55
:101B8400031C442E0A30F2000030F3006508F40010
:101B9400F501F41BF5030A168A152F260A128A1575
:101BA4007208D70001300310D70DFF3E031DD52D59
:101BB4000310570D353E84000A168A1100200A12BC
:101BC4008A15D8000A168A1100200A128A15D9002B
:101BD4000A168A1100200A128A15DA000A168A11D6
:101BE40000200A128A15DB005B08BC005A08BB00FF
:101BF4005908BA005808B9000A30A0000030A10002
:101C04006508A200A301A21BA3030A168A15C6260F
:101C14000A128A152008DC0001300310DC0DFF3E97
:101C2400031D0F2E03105C0D593E84000A168A1101
:101C340000200A128A15DD000A168A1100200A12F1
:101C44008A15DE000A168A1100200A128A15DF009E
:101C54000A168A1100200A128A15E0006008C000E2
:101C64005F08BF005E08BE005D08BD000A128A1549
:101C7400FF213C08D6003B08D5003A08D4003908B7
:101C8400D30008006508D70001300310D70DFF3ECC
:101C9400031D472E0310570D353E84000A168A1182
:101CA40000200A128A15D8000A168A1100200A1286
:101CB4008A15D9000A168A1100200A128A15DA0038
:101CC4000A168A110020DB005B08D6005A08D500EA
:101CD4005908D4005808D30008006508803A123E19
:101CE400031C502F0A30A0000030A1006508F40046
:101CF400F501F41BF5036430F2000030F3000A161A
:101D04008A152F260A128A157308A3007208A200E6
:101D14000A168A15C6260A128A152008D700013029
:101D24000310D70DFF3E031D922E0310570D253EC1
:101D340084000A168A1100200A128A15D8000A168D
:101D44008A1100200A128A15D9000A168A11002065
:101D54000A128A15DA000A168A1100200A128A1554
:101D6400DB005B08BC005A08BB005908BA005808DD
:101D7400B9006430A0000030A1006508A200A301EE
:101D8400A21BA3030A168A15C6260A128A1520085E
:101D9400DC0001300310DC0DFF3E031DCC2E0310CC
:101DA4005C0D493E84000A168A1100200A128A1525
:101DB400DD000A168A1100200A128A15DE000A16AE
:101DC4008A1100200A128A15DF000A168A110020DF
:101DD4000A128A15E0006008C0005F08BF005E08B0
:101DE400BE005D08BD000A128A15FF210A128A1579
:101DF4003C08E4003B08E3003A08E2003908E1004B
:101E04000A30F2000030F3006508F400F501F41B19
:101E1400F5030A168A152F260A128A157208D700A6
:101E240001300310D70DFF3E031D132F0310570D70
:101E3400013E84000A168A1100200A128A15D8006D
:101E44000A168A1100200A128A15D9000A168A1164
:101E540000200A128A15DA000A168A1100200A12D2
:101E64008A15DB005B08BC005A08BB005908BA009D
:101E74005808B9006408C0006308BF006208BE00C7
:101E84006108BD000A128A15FF213C08D6003B08F0
:101E9400D5003A08D4003908D30008006508803A10
:101EA400753E031CD52F0A30F2000030F30065089C
:101EB400F400F501F41BF5030A168A152F260A12FD
:101EC4008A157208D70001300310D70DFF3E031D99
:101ED400662F0310570D013E84000A168A11002054
:101EE4000A128A15D8000A168A1100200A128A15C5
:101EF400D9000A168A1100200A128A15DA000A1675
:101F04008A1100200A128A15DB005B08BC005A08FB
:101F1400BB005908BA005808B9000A30A0000030C4
:101F2400A1006508A200A301A21BA3030A168A1537
:101F3400C6260A128A152008DC0001300310DC0DC5
:101F4400FF3E031DA02F03105C0D253E84000A16DE
:101F54008A1100200A128A15DD000A168A1100204F
:101F64000A128A15DE000A168A1100200A128A153E
:101F7400DF000A168A1100200A128A15E0006008A0
:101F8400C0005F08BF005E08BE005D08BD000A1205
:101F94008A15FF213C08D6003B08D5003A08D40036
:101FA4003908D30008006508D70001300310D70DA5
:101FB400FF3E031DD82F0310570D013E84000A165F
:101FC4008A1100200A128A15D8000A168A110020E4
:101FD4000A128A15D9000A168A1100200A128A15D3
:101FE400DA000A168A110020DB005B08D6005A08C2
:101FF400D5005908D4005808D300080010308A00CE
:102004000408840A820700340034003480343F34E6
:10201400003400342034413400340034C8344234B1
:10202400003400347A344434003440341C344634AC
:1020340000345034C33447340034243474344934C1
:102044008034963418344B342034BC34BE344C348D
:1020540028346B346E344E34F9340234153450342D
:10206400EC347834AD346034CA34F23449347134E5
:102074000034003480343F34CD34CC34CC343D345B
:102084000A34D73423343C346F34123483343A342E
:102094001734B734D1343834AC34C53427343734F6
:1020A400BD343734863435349534BF34D634333480
:1020B4007734CC342B3432345F3470348934303454
:1020C400FF34E634DB342E340834E5343C341E3437
:1020D40060344234A2340D3401340034003400340A
:1020E4000A340034003400346434003400340034DE
:1020F400E83403340034003410342734003400341A
:10210400A034863401340034403442340F34003473
:1021140080349634983400340034E134F534053492
:102124000034CA349A343B34543465346D347034D6
:102134003A34203425342E34323466342034433453
:10214400203444347534743479343A3420342534A6
:10215400753420340D340A34003443346F346E340F
:0C216400743472346F346C346534003411
:10217A0000308312A4000030A3000030A200003017
:10218A00A100750874047304720403191329A501C4
:10219A00A50AF51BDE280130A0000310F20DF30D8D
:1021AA00F40DF50DA00BD2280130FF007F08A5071A
:1021BA00CE280130A0000310A10DA20DA30DA40D7D
:1021CA00A00BE02875087902031DF5287408780227
:1021DA00031DF52873087702031DF5287208760295
:1021EA00031C06297208F6027308031C730FF70210
:1021FA007408031C740FF8027508031C750FF902A2
:10220A00211401300310F50CF40CF30CF20CFF3E10
:10221A00031D07290130A502031DDE282408F50045
:10222A002308F4002208F3002108F2000800003015
:10223A00720583120313A00000307305A1008030D9
:10224A007405A2007F307505A30023082204210427
:10225A002004031D38290030F5000030F400003056
:10226A00F3000030F20000307605A0000030770558
:10227A00A10080307805A2007F307905A3002308E9
:10228A00220421042004031D52290030F9000030E1
:10229A00F8000030F7000030F600F51F782900300A
:1022AA00A0000030A1000030A2008030A300720814
:1022BA00A0027308031C730F63296429A10274081E
:1022CA00031C740F69296A29A2027508031C750F79
:1022DA006F297029A3022308F5002208F4002108B7
:1022EA00F3002008F200F91F9E290030A0000030F8
:1022FA00A1000030A2008030A3007608A00277086F
:10230A00031C770F89298A29A1027808031C780FF0
:10231A008F299029A2027908031C790F95299629F9
:10232A00A3022308F9002208F8002108F700200870
:10233A00F6008030F5068030F90679087502031D2B
:10234A00080078087402031D080077087302031D49
:10235A0008007608720208008312A0002008031DF4
:10236A00F51FC7297209A2007309A3007409A40002
:10237A007509A500A20A0319A30A0319A40A0319D5
:10238A00A50ACF297508A5007408A4007308A3003C
:10239A007208A2007508740473047204031DDE290E
:1023AA000030F5000030F4000030F3000030F20095
:1023BA0008009630A100FE30250503190D2A0130C8
:1023CA00FF007F08A10701300310A50CA40CA30C81
:1023DA00A20CFF3E031DE929E0290130FF007F0816
:1023EA00A1070130A207003003180130A30700300B
:1023FA0003180130A407003003180130A507013083
:10240A000310A50CA40CA30CA20CFF3E031D052A65
:10241A00FF3025050319212AF22902302102031C63
:10242A00232A0130A1020130F6000310A20DA30DE8
:10243A00A40DA50DF60B1A2AA41F122A21182D2A5B
:10244A00FF30A205FF30A3057F30A405FF30A505A4
:10245A000310A10C2108F600F701F801F901183060
:10246A000310F60DF70DF80DF90DFF3E031D352A81
:10247A007608A2047708A3047808A4047908A504B6
:10248A002008031DF51F4A2AA5172508F500240868
:10249A00F4002308F3002208F20008000310740D68
:1024AA00750D8312A6002608031D642A0030F50064
:1024BA000030F4000030F3000030F200080003108E
:1024CA00780D790DA500250803195B2AF417FF304A
:1024DA00F205FF30F305FF30F4050030F505F81773
:1024EA00FF30F605FF30F705FF30F8050030F90533
:1024FA000030A4000030A3000030A2000030A10088
:10250A007F30A602A0302507A0002008A6022030AE
:10251A00A5000130A0000310A10DA20DA30DA40D6A
:10252A00A00B902A79087502031DA52A780874025F
:10253A00031DA52A77087302031DA52A76087202CD
:10254A00031CB62A7608F2027708031C770FF302F7
:10255A007808031C780FF4027908031C790FF50236
:10256A0021140130A0000310F20DF30DF40DF50D46
:10257A00A00BB82A0130A502031D8E2AA61FDA2A4B
:10258A002608803A9F3E031C5B2A01300310A40CE4
:10259A00A30CA20CA10CFF3E031DCB2A0130FF00A5
:1025AA007F08A6070319ED2ACA2A20302602031833
:1025BA005B2A26080319ED2A0130A0000310A10D99
:1025CA00A20DA30DA40DA00BE32A0130A602DE2A58
:1025DA002408F5002308F4002208F3002108F20079
:1025EA000800720883120313A0007308A10074087C
:1025FA00A2000310210D220DA8002808031D0E2B8E
:10260A000030F5000030F4000030F3000030F20032
:10261A0008007608A0007708A1007808A200031035
:10262A00210D220DA70027080319052BF317FF30E8
:10263A00F205FF30F3050030F405F717FF30F60511
:10264A00FF30F7050030F8050030A6000030A5007D
:10265A000030A4000030A3007F30A802983027077A
:10266A00A0002008A8021830A7000130A00003101B
:10267A00A30DA40DA50DA60DA00B3C2B7808740282
:10268A00031D4D2B77087302031D4D2B760872022A
:10269A00031C5A2B7608F2027708031C770FF30201
:1026AA007808031C780AF402231401300310F20D8F
:1026BA00F30DF40DFF3E031D5B2B0130A702031D32
:1026CA003A2BA81F7D2B2808803A973E031C052B1E
:1026DA0001300310A60CA50CA40CA30CFF3E031D8D
:1026EA006E2B0130FF007F08A8070319902B6D2B72
:1026FA00183028020318052B28080319902B0130DB
:10270A00A0000310A30DA40DA50DA60DA00B862BEA
:10271A000130A802812B2608F5002508F4002408B8
:10272A00F3002308F2000800831203131F14831610
:10273A009F1383129F131F179F121F129F111F119E
:10274A00053083160313A400A40BA92BAC2B831208
:10275A0003139F149F18AF2B1E088316A400A5010C
:10276A002408B2002508B3001E08A400A5013208F7
:10277A00A700A60124082604A80025082704A90002
:10278A002808B2002908B30044308312D6007F30EB
:10279A00D500C030D4000030D3004030BC00A03097
:1027AA00BB000030BA000030B90083163208F200CC
:1027BA003308F300F401F50100300A168A11B12139
:1027CA000A168A117508C0007408BF007308BE0093
:1027DA007208BD000A128A15FF210A168A113C08DE
:1027EA00DA003B08D9003A08D8003908D7000A129B
:1027FA008A115E260A168A1156088316B1008312B8
:10280A0055088316B000831254088316AF0083124A
:10281A0053088316AE003F308312BC00C530BB009C
:10282A008B30BA007A30B900831631088312C0009F
:10283A00831630088312BF0083162F088312BE0046
:10284A0083162E088312BD000A128A15FF213C083E
:10285A008316AD0083123B088316AC0083123A0834
:10286A008316AB00831239088316AA0083121F103D
:10287A0083162D08A3002C08A2002B08A1002A0801
:10288A00A0000800F90079088400831700080317DC
:10289A00C400840A00088403C5007908033E840042
:1028AA000008C200840A00088403C3007908063EAF
:1028BA00840000080313C700840A00088403C800C0
:1028CA007908023E840000088312AA00AB012A0894
:1028DA008316CB0083122B088316CC007908053E99
:1028EA00840000088312AA00AB012A08FA002B0808
:1028FA00FB007908083E84000008AA00AB012A08F8
:10290A008316C90083122B088316CA007908093E68
:10291A00840000088312AA00AB012A088316031751
:10292A00CA00831203132B0883160317CB007908F6
:10293A000A3E8400000883120313AA00AB012A0886
:10294A0083160317C800831203132B088316031771
:10295A00C90079080B3E8400000883120313AA00F9
:10296A00AB012A0883160317C600831203132B0828
:10297A0083160317C700413083120313AB00ED30EF
:10298A00AA00AA0BC62CAB0BC62CCB2C0230831286
:10299A000313A0000030A1000A168A1586270A161A
:1029AA008A110A168A152F250A168A1100308312EF
:1029BA000313A400A5002830A6000A168A15A1252B
:1029CA000A168A11003083120313A400A5000C30E2
:1029DA00A6000A168A15A1250A168A110030831242
:1029EA000313A400A5000630A6000A168A15A1251D
:1029FA000A168A11003083120313A400A500A60147
:102A0A00A60A0A168A15A1250A168A110730831200
:102A1A000313AB007C30AA00AA0B112DAB0B112DAE
:102A2A0000000800831603178901031386010A169A
:102A3A008A15F7230A168A110A168A154B240A16CA
:102A4A008A110A168A15DF230A168A118316871134
:102A5A00B6300A168A1147240A168A1183120313FA
:102A6A00AA01AA0AAA30AB0001300A168A156825FB
:102A7A000A168A110A168A1199230A168A11230834
:102A8A000317B500031322080317B4000313210820
:102A9A000317B300031320080317B2003508F50023
:102AAA003408F4003308F3003208F2004130F90028
:102ABA00C830F8000030F7000030F6000A168A1114
:102ACA001C210A168A1103186E2D83160317B101E9
:102ADA00D42D4230F5004830F4000030F3000030C5
:102AEA00F200831603173508F9003408F800330892
:102AFA00F7003208F6000A168A111C210A168A11F2
:102B0A000318892DFF30D12D831603173508831238
:102B1A000313AC0083160317340883120313AB00A4
:102B2A0083160317330883120313AA0083160317A5
:102B3A00320883120313A900C130A800C830A700C5
:102B4A000030A6000030A5000A128A1502200A16D3
:102B5A008A112808C0002708BF002608BE002508D9
:102B6A00BD004130BC002330BB003330BA003330E3
:102B7A00B9000A128A15FF210A168A113C08E900CF
:102B8A003B08E8003A08E7003908E6000A168A1501
:102B9A001F270A168A11660883160317B100913097
:102BAA000313A000031735080313A40003173408FE
:102BBA000313A300031733080313A20003173208F1
:102BCA000313A100031731080313C500C601450802
:102BDA00A5004608A60090300A128A1135200A1666
:102BEA008A110317AF01B0012F08903E84008317A2
:102BFA0000080319122E2F08903E84000008831241
:102C0A00031399008316981C072E01300317AF0788
:102C1A000318B00A0030B007F92D831203138C1E73
:102C2A00362E1A0883160317AE0030302E06031DFF
:102C3A00242E03134D080319242E00302E2E313072
:102C4A0003172E06031D362E03134D08031D362EB9
:102C5A0001300A168A1524240A168A115030831262
:102C6A0099008316031731080A168A15D8230A16FB
:102C7A008A11823083160313C600DD30C500C50BE6
:102C8A00442EC60B442E3F2D8312E4006E3064029C
:102C9A00031C2D2F3F30BC000030BB000030BA00AF
:102CAA000030B9006430F80064080A168A15C02496
:102CBA000A168A11D70001300310D70DFF3E031DF3
:102CCA00612E0310570D7D3E84000A168A110020DA
:102CDA000A168A11D8000A168A1100200A168A11C1
:102CEA00D9000A168A1100200A168A11DA000A1671
:102CFA008A1100200A168A11DB005B08C0005A08F4
:102D0A00BF005908BE005808BD000A128A15FF21E3
:102D1A000A168A113C08E3003B08E2003A08E1007F
:102D2A003908E0000A30F8006430F20064080A1634
:102D3A008A1580240A168A110A168A15C0240A16C8
:102D4A008A11D70001300310D70DFF3E031DA82EAC
:102D5A000310570D593E84000A168A1100200A16DC
:102D6A008A11D8000A168A1100200A168A11D90077
:102D7A000A168A1100200A168A11DA000A168A111E
:102D8A0000200A168A11DB005B08BC005A08BB0047
:102D9A005908BA005808B9006308C0006208BF00A1
:102DAA006108BE006008BD000A128A15FF210A16D2
:102DBA008A113C08DF003B08DE003A08DD003908CA
:102DCA00DC000A30F20064080A168A1580240A1602
:102DDA008A11D70001300310D70DFF3E031DF02ED4
:102DEA000310570D353E84000A168A1100200A1670
:102DFA008A11D8000A168A1100200A168A11D900E7
:102E0A000A168A1100200A168A11DA000A168A118D
:102E1A0000200A168A11DB005B08BC005A08BB00B6
:102E2A005908BA005808B9005F08C0005E08BF0018
:102E3A005D08BE005C08BD000A128A15FF213C0825
:102E4A00D6003B08D5003A08D4003908D300080058
:102E5A000B306402031CC02F3F30BC000030BB00A3
:102E6A000030BA000030B9000A30F80064080A16C7
:102E7A008A15C0240A168A11D70001300310D70D0B
:102E8A00FF3E031D432F0310570D593E84000A16B7
:102E9A008A1100200A168A11D8000A168A110020FF
:102EAA000A168A11D9000A168A1100200A168A11EE
:102EBA00DA000A168A1100200A168A11DB005B085A
:102ECA00C0005A08BF005908BE005808BD000A12BF
:102EDA008A15FF210A168A113C08E3003B08E20022
:102EEA003A08E1003908E0000A30F20064080A16DC
:102EFA008A1580240A168A11D70001300310D70DCB
:102F0A00FF3E031D832F0310570D353E84000A161A
:102F1A008A1100200A168A11D8000A168A1100207E
:102F2A000A168A11D9000A168A1100200A168A116D
:102F3A00DA000A168A1100200A168A11DB005B08D9
:102F4A00BC005A08BB005908BA005808B9006308FF
:102F5A00C0006208BF006108BE006008BD000A1216
:102F6A008A15FF213C08D6003B08D5003A08D40050
:102F7A003908D30008003F30BC000030BB000030E5
:102F8A00BA000030B9006408D70001300310D70D29
:102F9A00FF3E031DCB2F0310570D353E84000A1642
:102FAA008A1100200A168A11D8000A168A110020EE
:102FBA000A168A11D9000A168A1100200A168A11DD
:102FCA00DA000A168A1100200A168A11DB005B0849
:102FDA00C0005A08BF005908BE005808BD000A12AE
:102FEA008A15FF213C08D6003B08D5003A08D400D0
:062FFA003908D3000800B5
:1037B000F200720883120313950091010800811131
:1037C00001158110011481128B160B1164308312C4
:1037D00081008B17080006340034023406340034AC
:1037E0000334063400340434053406340734193005
:1037F000990098168312181683161812181583123A
:1038000098171813831618130800F300F2013A30C2
:1038100073020318112C30307302031C112CF201B7
:10382000F20A720C08007E088A007F0882001324C6
:103830000A168A158000840A04087D0603190034DC
:10384000FF0A0319FE0A172CF20072080319312C23
:103850000C3083129700910183160711CD01CD0A18
:1038600008000715831297018316CD0108000B1D70
:10387000402C0B116430831203138100083087063B
:10388000831203138C188C1071088A00700E830049
:10389000FE0E7E0E09000715FF3092000C308312D9
:1038A0009700643095008C10023092000630920030
:1038B0008C1C582C8316071183128C108316CD0193
:1038C000CD0A08008030BC064008A8003F08A700C9
:1038D0003E08A6003D08A5003C08AC003B08AB0034
:1038E0003A08AA003908A9000A128A1502202808F5
:1038F000BC002708BB002608BA002508B90008004C
:10390000F5000830F600F7017508F30007300310E2
:10391000F30CFF3E031D872C7708F4007407730433
:10392000F7000310F50D72087702031C992C72083A
:10393000F7020130F602031D842C77080800F60117
:10394000F701721CA92C7408F6070318F70A75080A
:10395000F70701300310F40DF50DFF3E031DAA2CEF
:1039600001300310F30CF20CFF3E031DB12C720862
:103970007304031DA12C7708F3007608F2000800F9
:10398000A000A20178080319DF2CA101A10AF81BED
:10399000D02C0310F80D0130FF007F08A107C72CC1
:1039A0000310A20D78082002031CDA2C7808A0026C
:1039B00022140310F80C0130A102031DD02C2208A0
:1039C0000800A400A001A1017208F400F501740828
:1039D000A2007508A300241CF32C2208A0070318DA
:1039E000A10A2308A10701300310A20DA30DFF3E79
:1039F000031DF42C0310A40C2408031DEB2C210838
:103A0000F3002008F200080076037704031D1B2D45
:103A10000130F800740A0E2D0310F80DFF3E031D4F
:103A20000C2D7808FF00720884008317731C831321
:103A30007F08800408000130F800740A212D03106B
:103A4000F80DFF3E031D1F2D7808FF3AFF00720896
:103A500084008317731C83137F0880050800831676
:103A600003174208F2004308F3007B08F5007A08C8
:103A7000F4000130F6000030F7000A168A1504251C
:103A80000A168A15073083120313A1007C30A000A8
:103A9000A00B482DA10B482D0000831603174208E8
:103AA000F2004308F3007B08F5007A08F4000030C8
:103AB000F600F7000A168A1504250A168A15C7307B
:103AC00083120313A000642DA00B632D672D080043
:103AD000F9007903031D722D0030A400A5002A0807
:103AE000803E772D0030A400A5002A08C03EA60025
:103AF0000A168A15A1250A168A15831203132B08A4
:103B000084000A168A1100200A168A15003A031941
:103B100008000130A4000030A5002B0884000A161C
:103B20008A1100200A168A15A6000A168A15A125F0
:103B30000A168A150130FF007F0883120313AB07B2
:103B40007D2D831603174408F2004508F300031384
:103B50004C08F5004B08F400013083122405F600F0
:103B600000302505F7000A168A1504250A168A155D
:103B7000831203132608A70004300310A70CFF3E8E
:103B8000031DBD2D2708A800A9012808A0002908A9
:103B9000A1000A168A1586270A168A150A168A159A
:103BA0002F250A168A158312031326080F39A7003A
:103BB000A8012708A0002808A1000A168A15862750
:103BC0000A168A150A168A152F2508000030720574
:103BD0008312A00000307305A10080307405A2009C
:103BE0007F307505A3002308220421042004031D4F
:103BF000012E0030F5000030F4000030F3000030FA
:103C0000F20000307605A00000307705A10080307A
:103C10007805A2007F307905A3002308220421043F
:103C20002004031D1B2E0030F9000030F800003086
:103C3000F7000030F60079087506031D292E780874
:103C40007406031D292E77087306031D292E760896
:103C5000720603192D2E0310080003140800F70143
:103C6000F51F392EF409F509F40A0319F50AF701CD
:103C7000F70AF31F402EF209F309F20A0319F30AB7
:103C80007208730403196D2EF601F60AF31B542E05
:103C900001300310F20DF30DFF3E031D492E0130DC
:103CA000FF007F08F607462E73087502031D5A2E83
:103CB00072087402031C622E7208F4027308031C5B
:103CC000F503F50201300310F30CF20CFF3E031D67
:103CD000632E0130F602031D542E77080319752E4A
:103CE000F409F509F40A0319F50A7508F3007408D4
:103CF000F200080029082804270426040319BD2E11
:103D0000AF01AF0AA91B922E0130AE000310A60D21
:103D1000A70DA80DA90DAE0B862E0130FF007F0860
:103D2000AF07822E29082D02031DA02E28082C0281
:103D3000031DA02E27082B02031DA02E26082A02F1
:103D4000031CB02E2608AA022708031C270FAB026B
:103D50002808031C280FAC022908031C290FAD02F8
:103D600001300310A90CA80CA70CA60CFF3E031DE4
:103D7000B12E0130AF02031D922E2D08A9002C0890
:103D8000A8002B08A7002A08A6000800A501A11F6B
:103D9000D02EA009A109A00A0319A10AA501A50A0C
:103DA000A31FDB2EA209A309A20A0319A30A01304B
:103DB000FF007F08A506A601A7012008210403191A
:103DC000122FA401A40AA11BF12E01300310A00D93
:103DD000A10DFF3E031DE62E0130FF007F08A40762
:103DE000E32E01300310A60DA70DFF3E031DF22E9A
:103DF00021082302031DFE2E20082202031C072F88
:103E00002008A2022108031CA303A30226140130E8
:103E10000310A10CA00CFF3E031D082F0130A402CB
:103E2000031DF12E250803191A2FA609A709A60AB2
:103E30000319A70A2708A1002608A00008000310FC
:103E4000680D690DEF006F08031D2F2F0030E9008A
:103E50000030E8000030E7000030E60008006608A7
:103E6000EA006708EB006808EC006908ED001F3005
:103E70000310ED0CEC0CEB0CEA0CFF3E031D382F8D
:103E80006A08EE00E817FF30E605FF30E705FF306F
:103E9000E8050030E9059630EF02EF1F642F6F0848
:103EA000803A973E031C262F01300310E90CE80CE2
:103EB000E70CE60CFF3E031D552F0130FF007F0885
:103EC000EF070319772F542F20306F020318262F86
:103ED0006F080319772F0130EA000310E60DE70D94
:103EE000E80DE90DEA0B6D2F0130EF02682F6E0827
:103EF00003190800E609E709E809E909E60A0319D0
:103F0000E70A0319E80A0319E90A080083164708B3
:103F1000F2004808F3004A08F5004908F4000130AF
:103F200083122005F60000302105F7000A168A15D5
:103F300004250A168A15831603134708F200480859
:103F4000F30003174B08F5004A08F400831203132B
:103F50002108A3002008A200230DA30CA20C01300D
:103F60002205F60000302305F7000A168A150425FD
:103F70000A168A15831603134708F2004808F3004F
:103F800003174908F5004808F400831203132108B9
:103F9000A3002008A200230DA30CA20C230DA30C48
:103FA000A20C01302205F60000302305F7000A16A6
:103FB0008A1504250A168A15831603134708F2008A
:103FC0004808F30003174708F5004608F400831279
:103FD00003132108A3002008A200230DA30CA20CA8
:103FE000230DA30CA20C230DA30CA20C013022055F
:103FF000F60000302305F7000A168A15042508008C
:08400000FF3FFF3FFF3FFF3FC0
:04400E00F43FFF3F3D
:00000001FF
