:060000000A128A1110280B
:10000800FE00030EF0000408F1000A08F2007F0861
:10001800F3000A128A11E8290A128A111328831395
:100028005E30FD000330FE003330FF004A308400AC
:100038000A128A114B230A128A11A0308400D23086
:100048000A128A115A230A128A115E308400683013
:100058000A128A115A230A128A11F501F601F701C8
:10006800F80183010A128A11EA2883120313B300E4
:100078003308840083130008EC00840A0008840312
:10008800ED003308033E84000008EA00840A0008F3
:100098008403EB003308063E84000008E800840A65
:1000A80000088403E9003308023E84000008B10018
:1000B800B2013108E6003208E7003308053E840043
:1000C8000008B100B2013108E4003208E500330845
:1000D800083E84000008B100B2013108F50032087A
:1000E800F6003308093E84000008B100B201310867
:1000F800E2003208E30033080A3E84000008B10039
:10010800B2013108E0003208E10033080B3E8400F8
:100118000008B100B2013108DE003208DF004130CA
:1001280083120313B200ED30B100B10B9928B20B62
:1001380099289E28023083120313A7000030A800D4
:100148000A128A1175210A128A110A128A11B42216
:100158000A128A11003083120313AB00AC00283056
:10016800AD000A128A1131220A128A110030831254
:100178000313AB00AC000C30AD000A128A11312217
:100188000A128A11003083120313AB00AC00063048
:10019800AD000A128A1131220A128A110030831224
:1001A8000313AB00AC00AD01AD0A0A128A1131226B
:1001B8000A128A11073083120313B2007C30B1008F
:1001C800B10BE428B20BE4280000080001308312C8
:1001D8000313C6000030C700831603138601831279
:1001E80003138601BF30831603138700831203139A
:1001F80087010A128A111C230A128A1152300A1224
:100208008A1139200A128A1183120313071C0D2937
:100218000E293829413083120313B500ED30B4009C
:10022800B40B1429B50B14291929831203130718C1
:100238001E291F29192983160313981C24292529E7
:100248001F298312031346034704031D2C292D2954
:10025800322930309900C601C70138293130990058
:100268000130C6000030C700C801C901831203135A
:100278004808A03E840083130008FF004808363E63
:1002880084007F0880000130C8070318C90A0030BD
:10029800C9074908803AFF0080307F02031D5629AC
:1002A8000D304802031C59295A293A29831203138D
:1002B800C301B1013630B20001300A128A11762228
:1002C8000A128A1183120313B101AE30B200023050
:1002D8000A128A1176220A128A1108290A128A1128
:1002E8001028831203136808A0006908A100760883
:1002F800A3007508A20001302705A40000302805D6
:10030800A5000A128A11ED220A128A118312031318
:100318006808A0006908A1006308A3006208A20099
:100328002808AA002708A9002A0DAA0CA90C013040
:100338002905A40000302A05A5000A128A11ED2219
:100348000A128A11831203136808A0006908A10021
:100358006108A3006008A2002808AA002708A900CD
:100368002A0DAA0CA90C2A0DAA0CA90C01302905E2
:10037800A40000302A05A5000A128A11ED220A12EB
:100388008A11831203136808A0006908A1005F0896
:10039800A3005E08A2002808AA002708A9002A0DC1
:1003A800AA0CA90C2A0DAA0CA90C2A0DAA0CA90C96
:1003B80001302905A40000302A05A5000A128A1177
:1003C800ED220A128A110800831203138C1EED29EC
:1003D800EE29262A1A08F4000A3074060319F529AA
:1003E800F629FC290D307406031DFB29FC29042A73
:1003F8007708A03E840083138001F701F801262ABC
:100408007808803AFF0080307F02031D0D2A3130C2
:1004180077020318102A112A1E2A7708A03E8400A2
:100428007408831380000130F7070318F80A0030B6
:10043800F807262AF701F8017708A03E8400740817
:10044800831380007308FF0072088A007108840013
:10045800700E8300FE0E7E0E0900831203136C08D3
:10046800A0006D08A1006708A3006608A20001307B
:100478002B05A40000302C05A5000A128A11ED22D4
:100488000A128A11831203132D08AE0004300310D8
:10049800AE0CFF3E031D4B2A2E08AF00B0012F08FB
:1004A800A7003008A8000A128A1175210A128A11B9
:1004B8000A128A11B4220A128A11831203132D0810
:1004C8000F39AE00AF012E08A7002F08A8000A12A6
:1004D8008A1175210A128A110A128A11B4220A1283
:1004E8008A11080083120313B3003303031D7D2A06
:1004F8007E2A8A2A0030AB00AC003108803EAD006D
:100508000A128A1131220A128A11A92A0030AB0074
:10051800AC003108C03EAD000A128A1131220A121D
:100528008A11A92A0130AB000030AC0032088400DF
:100538000008AD000A128A1131220A128A1101300C
:10054800FF007F0883120313B207831203133208D4
:10055800840083130008031DB22AB32A962A0800D0
:10056800831203136A08A0006B08A1006508A300A2
:100578006408A2000130A4000030A5000A128A1104
:10058800ED220A128A11073083120313A8007C3067
:10059800A700A70BCD2AA80BCD2A000083120313AE
:1005A8006A08A0006B08A1006508A3006408A200FF
:1005B8000030A400A5000A128A11ED220A128A113D
:1005C800C73083120313A700E92AA70BE82AEC2AED
:1005D80008008312031324032504031DF42AF52AB3
:1005E800082B0130A600220AFB2A0310A60DFF3EA5
:1005F800031DF92A2608FF00200884008317211C00
:1006080083137F0880041B2B0130A600220A0E2BBF
:100618000310A60DFF3E031D0C2B2608FF3AFF0012
:10062800200884008317211C83137F088005080095
:10063800831603138717071324309800903083120A
:1006480003139800193083160313990083120313B8
:100658008C12831603138C160B178B1708000E3495
:1006680011340E3404341F3404340A34103406347C
:1006780000340034063400340134063400340234C3
:100688000334043405347E088A007F0882000A1285
:100698008A1147230A128A118000840A04087D06F9
:1006A80003190034FF0A0319FE0A4B2B640080016A
:0C06B800840A04060319003404065B2BBE
:08400000FF3FFF3FFF3FFF3FC0
:02400E00FA3F77
:00000001FF
