:060000000A128A110C280F
:10000800FE00030EF0000A08F1000A168A15142DE6
:100018000A128A110F288317C230FD001C30FE0017
:10002800D630FF00B63084000A168A15F4248316E9
:100038000317C201C301C401C501C601C701C80134
:10004800C901CA01CB010313C701C801C901CA010B
:10005800CB01CC01CD01FA01FB0183010A168A11FB
:10006800432DBF00A130B0000130A007FF302007AA
:1000780084000A168A1100200A128A11C400440852
:100088000319D82D25304406031954283F08840045
:100098004408831780000130FF007F08BF07382815
:1000A800B101B2015E2832157B28C030B10400309E
:1000B800B2047B280130A007FF30200784000A160D
:1000C8008A1100200A128A11C400A700A801280872
:1000D800003A0319702838282708003A0319D82D40
:1000E800663A03195728133A031959283828003053
:1000F8003105A70007303205A8002708280403198E
:10010800132D0630B3000030B40030088400831388
:100118000008C000840A0008C100840A0008C20060
:10012800840A0008C3000430FF007F08B0074308B2
:10013800F5004208F4004108F3004008F2000030DE
:10014800F9000030F8000030F7000030F6000A1619
:100158008A1148210A128A110318CC2883164308E9
:10016800F5004208F4004108F3004008F2000A16BE
:100178008A15C1240A128A117508C3007408C200BE
:100188007308C1007208C0000330B1040030B20423
:100198008316B901BA014308F5004208F400410882
:1001A800F3004008F2000030F9000030F800003099
:1001B800F7000030F6000A168A1501260A128A117D
:1001C8000318AE2903108316420D430D823EB90071
:1001D800FF3003180030BA00FF30B9070318BA0A15
:1001E800FF30BA070330F2000030F3003A08F50098
:1001F8003908F4000A168A157C250A128A11730830
:10020800BA007208B9000A308312A0000030A100B9
:1002180083163A088312A300831639088312A200B2
:100228000A168A15E1260A128A1121088316BA00CD
:10023800831220088316B900BA1F2829FF30B9078E
:100248000318BA0AFF30BA073903FF3A0A128A15A7
:10025800D8240A128A1156088316BE00831255083C
:100268008316BD00831254088316BC0083125308FA
:100278008316BB0043088312BC008316420883120E
:10028800BB00831641088312BA0083164008831204
:10029800B90083163E088312C00083163D088312F6
:1002A800BF0083163C088312BE0083163B088312E6
:1002B800BD000A128A15FF210A128A113C0883160A
:1002C800BE0083123B088316BD0083123A088316CA
:1002D800BC00831239088316BB003E08F5003D08B0
:1002E800F4003C08F3003B08F2003F30F90080308E
:1002F800F8000030F7000030F6000A168A1148218D
:100308000A128A1103188F29FF308316B9070318B8
:10031800BA0AFF30AD2983163E08F5003D08F400FF
:100328003C08F3003B08F2004130F9002030F800A7
:100338000030F7000030F6000A168A1148210A1228
:100348008A11031CAE2901308316B9070318BA0AAB
:100358000030BA0706300A128A1548200A128A1194
:100368005608A8005508A7005408A6005308A50079
:10037800831643088312AC00831642088312AB002D
:10038800831641088312AA00831640088312A90025
:100398000A128A11DD250A128A1128088316C30059
:1003A800831227088316C200831226088316C10009
:1003B800831225088316C0003A08803AFF0080306F
:1003C8007F02031DE9290A30390203182B2A8316F4
:1003D80003134308F5004208F4004108F3004008FD
:1003E800F2000030F9000030F8000030F70000306B
:1003F800F6000A168A1501260A128A110318892A94
:10040800831643088312E900831642088312E80022
:10041800831641088312E700831640088312E6001A
:100428000A168A1599270A128A1169086804670446
:100438006604031D892A83163A08803AFF00803033
:100448007F02031D292A02303902031C892A8316D8
:1004580003133E08F5003D08F4003C08F3003B0890
:10046800F2004030F9008930F8007030F7005F3052
:10047800F6000A168A1148210A128A110318462A18
:10048800F730472AF8308316B9070318BA0AFF303D
:10049800BA0739080A128A15D8240A128A11560886
:1004A8008316BE00831255088316BD0083125408B4
:1004B8008316BC00831253088316BB004308F5005B
:1004C8004208F4004108F3004008F2003E08F90031
:1004D8003D08F8003C08F7003B08F6000A168A11A8
:1004E8007F220A128A1175088316B8007408B700AB
:1004F8007308B6007208B5000030C3000030C200AF
:100508000030C1000030C000EA2A831603134308F4
:100518008312E900831642088312E8008316410813
:100528008312E700831640088312E6000A168A152C
:1005380099270A128A1169088316B8008312680875
:100548008316B700831267088316B60083126608FD
:100558008316B5003808F5003708F4003608F300AC
:100568003508F20000300A168A11DD210A128A11B4
:100578007508BC007408BB007308BA007208B9009B
:10058800831643088312C000831642088312BF00F3
:10059800831641088312BE00831640088312BD00EB
:1005A8000A168A153F250A128A113C088316C300C9
:1005B80083123B088316C20083123A088316C100CF
:1005C800831239088316C000B901BA01C401C40AEC
:1005D8004408A70001300310A70DFF3E031DEF2AB2
:1005E8000310270D693E84000A168A1100200A129A
:1005F8008A11A8000A168A1100200A128A11A90075
:100608000A168A1100200A128A11AA000A168A11EB
:1006180000200A128A11AB002B083802031D1E2B7A
:100628002A083702031D1E2B29083602031D1E2B1C
:1006380028083502031C282B0130FF007F08C40757
:100648000A304406031DEC2A310803390319352BF7
:100658003F0884002D30831780000130FF007F0899
:10066800BF070130C402440A0319B72B4408A70086
:1006780001300310A70DFF3E031D3D2B0310270D6E
:10068800693E84000A168A1100200A128A11F200B3
:100698000A168A1100200A128A11F3000A168A1112
:1006A80000200A128A11F4000A168A1100200A1280
:1006B8008A11F5003808F9003708F8003608F700FD
:1006C8003508F6000A168A153A270A128A1175089B
:1006D8008316BE007408BD007308BC007208BB0016
:1006E80000308312A9000030A8000030A7000A30AB
:1006F800A60083163E088312AD0083163D088312B8
:10070800AC0083163C088312AB0083163B088312A7
:10071800AA000A168A1595260A128A11290883162C
:10072800BE00831228088316BD008312270883168B
:10073800BC00831226088316BB003F0884003B08D0
:10074800303E2F2B831603133F0884003030831765
:1007580080000130FF007F08BF07FF30B90703188A
:10076800BA0AFF30BA073A08803AFF0080307F02A1
:10077800031DC02B013039020318A62B831603135F
:100788003408803AFF0080307F02031DCD2B0930EA
:100798003302031CD32B083083160313D62B83167E
:1007A80003133308C4004408A700A8012708B302AC
:1007B8002808031CB403B40244080319EC2B3F08AF
:1007C80084002E30831780000130FF007F08BF07A8
:1007D80044080A128A15D8240A128A115608831660
:1007E800AF00831255088316AE008312540883168F
:1007F800AD00831253088316AC002F088312C00083
:1008080083162E088312BF0083162D088312BE009C
:1008180083162C088312BD00831643088312BC007C
:10082800831642088312BB00831641088312BA005C
:10083800831640088312B9000A128A15FF210A128A
:100848008A113C08E9003B08E8003A08E700390843
:10085800E6000A168A1599270A128A11690883166A
:10086800B800831268088316B700831267088316D6
:10087800B600831266088316B5000130C402440A24
:1008880003190E2D4408A70001300310A70DFF3EE1
:10089800031D492C0310270D693E84000A168A118E
:1008A80000200A128A11F2000A168A1100200A1280
:1008B8008A11F3000A168A1100200A128A11F4001C
:1008C8000A168A1100200A128A11F5003808F90060
:1008D8003708F8003608F7003508F6000A168A15B2
:1008E8003A270A128A1175088316BE007408BD00DB
:1008F8007308BC007208BB0000308312A9000030E6
:10090800A8000030A7000A30A60083163E0883120C
:10091800AD0083163D088312AC0083163C08831291
:10092800AB0083163B088312AA000A168A1595267F
:100938000A128A1129088316BE0083122808831612
:10094800BD00831227088316BC008312260883166D
:10095800BB003F0884003B08303E8317800001300D
:10096800FF007F08BF074408A70001300310A70D48
:10097800FF3E031DBA2C0310270D693E84000A169A
:100988008A1100200A128A118312A6000A168A11F7
:1009980000200A128A11A7000A168A1100200A12DA
:1009A8008A11A8000A168A1100200A128A11A900C1
:1009B800831638088312AD00831637088312AC00FB
:1009C800831636088312AB00831635088312AA00F3
:1009D8000A168A1595260A128A1129088316B8005C
:1009E800831228088316B700831227088316B600D7
:1009F800831226083F2C3F0884003030831780007C
:100A08000130FF007F08BF07FF30B3070318B40A9F
:100A1800FF30B4073308340403193828FF2C300892
:100A2800840083130008A700840A0008A800270888
:100A3800B5002808B600B701B8010230FF007F08EA
:100A4800B007C401C40A4408A70001300310A70D69
:100A5800FF3E031D2A2D0310270D693E84000A1648
:100A68008A1100200A128A11A8000A168A11002089
:100A78000A128A11A9000A168A1100200A128A117C
:100A8800AA000A168A1100200A128A11AB002B0844
:100A98003802031D592D2A083702031D592D29082C
:100AA8003602031D592D28083502031C632D013019
:100AB800FF007F08C4070A304406031D272D3108AC
:100AC80003390319702D3F0884002D3083178000E7
:100AD8000130FF007F08BF074408A700A8012708C6
:100AE800B3002808B400FF30B3070318B40AFF3076
:100AF800B407330A0319340A03193828003083125B
:100B0800A9000030A8000030A7000A30A60083160C
:100B18003308A70001300310A70DFF3E031D8F2DDA
:100B28000310270D693E84000A168A1100200A1254
:100B38008A11F2000A168A1100200A128A11F3009B
:100B48000A168A1100200A128A11F4000A168A115C
:100B580000200A128A11F5003808F9003708F80051
:100B68003608F7003508F6000A168A153A270A12D9
:100B78008A117508AD007408AC007308AB007208E0
:100B8800AA000A168A1595260A128A112608303EE6
:100B98008316C4003F08840044088317800001308E
:100BA800FF007F08BF07772D3F0884008317800167
:100BB800080028088039B5002808AD002D07B700BF
:100BC800A71B371437080319F72D370A031DF42D0F
:100BD8000030A8000030A7000030A6000030A500B3
:100BE800A717A801FF2D0030A8000030A70000308B
:100BF800A6000030A5002C088039B6003608350656
:100C0800031D35172C08AD002D07B600AB1B361495
:100C1800360803191D2E360A031D1A2E0030AC00A3
:100C28000030AB000030AA000030A900AB17AC01BF
:100C3800252E0030AC000030AB000030AA00003098
:100C4800A9003708360203184D2E351F2F2E803085
:100C5800FF007F08B5063708B8003608B70038081F
:100C6800B6002508B8002908A5003808A9002608F4
:100C7800B8002A08A6003808AA002708B8002B08D8
:100C8800A7003808AB002808B8002C08A8003808C6
:100C9800AC00B8013608AD00AE012E08B000370828
:100CA8002D02AF00031CB0033008803AFF008030EB
:100CB8007F02031D612E1A302F02031C942E83120B
:100CC8000313280827042604250403196D2E013070
:100CD8006E2E0030B8000030A8000030A7000030A9
:100CE800A6000030A5003608B7009A2E381C832EBF
:100CF8003808AD0003102D0C0138B800852E0310FC
:100D0800B80C2518B8170130AD00280DA80CA70C91
:100D1800A60CA50CAD0B892E0130FF007F08B70784
:100D28008312031336083702031C7A2E351BD92E7B
:100D38003708031DA82E0030A8000030A700003097
:100D4800A6000030A50008002908A5072A080311F5
:100D58000318013E031DA6072B0803110318013EC3
:100D6800031DA7072C0803110318013E031DA8073C
:100D7800281C7B2F381CC72E3808AD0003102D0CFB
:100D88000138B800C92E0310B80C2518B81701305F
:100D9800AD00280DA80CA70CA60CA50CAD0BCD2EEC
:100DA8000130FF007F08B7077B2F2808803AFF0033
:100DB8002C08803A7F02031DEB2E2B082702031D07
:100DC800EB2E2A082602031DEB2E290825020318FC
:100DD800432FFF30AD00FF30AE00FF30AF00FF30D3
:100DE800B0002908B1002A08B2002B08B3002C086B
:100DF800B4002508B1022608031C260F042F052F6E
:100E0800B2022708031C270F0A2F0B2FB30228084A
:100E1800031C280F102F112FB4023108AD07320818
:100E28000318320F182F192FAE0733080318330F82
:100E38001E2F1F2FAF0734080318340AB0073008D5
:100E4800A8002F08A7002E08A6002D08A5008030AE
:100E5800FF007F08B506B809B80A3808031D512FE6
:100E68000130A507003003180130A6070030031829
:100E78000130A707003003180130A807512F2908AF
:100E8800A5022A08031C2A0FA6022B08031C2B0FF5
:100E9800A7022C08031C2C0FA802280827042604E4
:100EA8002504031D792F3808031D792F0030A80069
:100EB8000030A7000030A6000030A500080001306F
:100EC800AD000310A50DA60DA70DA80DAD0B652F40
:100ED800B81B2514381C722F0314732F0310B80D78
:100EE80037080319792F0130B702A71F632FB601FE
:100EF800B81F862F38087F3903192518842F862FA5
:100F0800B601B60A36080319B92F0130A507003013
:100F180003180130A607003003180130A707003076
:100F280003180130A807281CB92F2508AD0026088A
:100F3800AE002708AF002808B0000130B100300D1E
:100F4800B00CAF0CAE0CAD0CB10BA32F3008A80041
:100F58002F08A7002E08A6002D08A500370A031998
:100F6800B92F0130FF007F08B707370A031D37087C
:100F7800031DC92F0030A8000030A7000030A600CC
:100F88000030A50037080319B501371CCD2FA71766
:100F9800D12F7F30FF007F08A7053708AD00031069
:100FA8002D0CA800B51F0800A8170800A400A00170
:100FB800A1017208F400F5017408A2007508A300E5
:100FC800241CEC2F2208A0070318A10A2308A10754
:100FD80001300310A20DA30DFF3E031DED2F0310DA
:100FE800A40C2408031DE42F2108F3002008F200B4
:020FF8000800EF
:10100600831603174408F2004508F30003134C083F
:10101600F5004B08F400013083122405F600003079
:101026002505F7000A168A159D250A128A158312C8
:1010360003132608A70004300310A70CFF3E031D68
:101046001F282708A800A9012808A0002908A10030
:101056000A168A11CE200A128A150A168A15C8257A
:101066000A128A158312031326080F39A700A8014E
:101076002708A0002808A1000A168A11CE200A1205
:101086008A150A168A15C82508008312E4006E30F0
:101096006402031C2C293F30BC000030BB0000302A
:1010A600BA000030B9006430F80064080A168A11E4
:1010B600AD200A128A15D70001300310D70DFF3E66
:1010C600031D60280310570D7D3E84000A168A1101
:1010D60000200A128A15D8000A168A1100200A1260
:1010E6008A15D9000A168A1100200A128A15DA0012
:1010F6000A168A1100200A128A15DB005B08C00056
:101106005A08BF005908BE005808BD000A128A15C1
:10111600FF210A128A153C08E3003B08E2003A0860
:10112600E1003908E0000A30F8006430F200640893
:101136000A168A155D250A128A150A168A11AD2025
:101146000A128A15D70001300310D70DFF3E031D82
:10115600A7280310570D593E84000A168A1100204D
:101166000A128A15D8000A168A1100200A128A1550
:10117600D9000A168A1100200A128A15DA000A1600
:101186008A1100200A128A15DB005B08BC005A0887
:10119600BB005908BA005808B9006308C0006208C5
:1011A600BF006108BE006008BD000A128A15FF2153
:1011B6000A128A153C08DF003B08DE003A08DD000B
:1011C6003908DC000A30F20064080A168A155D2523
:1011D6000A128A15D70001300310D70DFF3E031DF2
:1011E600EF280310570D353E84000A168A11002099
:1011F6000A128A15D8000A168A1100200A128A15C0
:10120600D9000A168A1100200A128A15DA000A166F
:101216008A1100200A128A15DB005B08BC005A08F6
:10122600BB005908BA005808B9005F08C0005E083C
:10123600BF005D08BE005C08BD000A128A15FF21CA
:101246003C08D6003B08D5003A08D4003908D3003C
:1012560008000B306402031CBF293F30BC0000307D
:10126600BB000030BA000030B9000A30F80064084C
:101276000A168A11AD200A128A15D700013003100A
:10128600D70DFF3E031D42290310570D593E84001A
:101296000A168A1100200A128A15D8000A168A111F
:1012A60000200A128A15D9000A168A1100200A128D
:1012B6008A15DA000A168A1100200A128A15DB003E
:1012C6005B08C0005A08BF005908BE005808BD0098
:1012D6000A128A15FF210A128A153C08E3003B0808
:1012E600E2003A08E1003908E0000A30F20064083A
:1012F6000A168A155D250A128A15D70001300310D1
:10130600D70DFF3E031D82290310570D353E84007D
:101316000A168A1100200A128A15D8000A168A119E
:1013260000200A128A15D9000A168A1100200A120C
:101336008A15DA000A168A1100200A128A15DB00BD
:101346005B08BC005A08BB005908BA005808B90027
:101356006308C0006208BF006108BE006008BD00E7
:101366000A128A15FF213C08D6003B08D5003A0828
:10137600D4003908D30008003F30BC000030BB0061
:101386000030BA000030B9006408D70001300310FD
:10139600D70DFF3E031DCA290310570D353E8400A5
:1013A6000A168A1100200A128A15D8000A168A110E
:1013B60000200A128A15D9000A168A1100200A127C
:1013C6008A15DA000A168A1100200A128A15DB002D
:1013D6005B08C0005A08BF005908BE005808BD0087
:1013E6000A128A15FF213C08D6003B08D5003A08A8
:1013F600D4003908D30008003C088039C6003C08F0
:10140600C1004107C800BB1B481448080319182A25
:10141600480A031D162A0030BC000030BB0000300D
:10142600BA000030B900BB17202A0030BC000030DB
:10143600BB000030BA000030B90040088039FF0018
:101446007F08C6064008C1004107C700BF1B4714F6
:10145600470803193B2A470A031D392A0030C000F2
:101466000030BF000030BE000030BD00BF17432A69
:101476000030C0000030BF000030BE000030BD00AC
:101486004708031D4808031D512A0030BC000030E0
:10149600BB000030BA000030B90008003908F2007D
:1014A6003F080A128A11DA270A128A157308D2002F
:1014B6007208D1005108C100C201C301C401440829
:1014C600CC004308CB004208CA004108C9005208B4
:1014D600C100C201C301C4014408D0004308CF00C3
:1014E6004208CE004108CD003A08F2003E080A1232
:1014F6008A11DA270A128A157308D2007208D100F7
:101506005108C100C201C301C4014108C90742080C
:1015160003110318013E031DCA07430803110318EC
:10152600013E031DCB07440803110318013E031DAA
:10153600CC075208C100C201C301C4014108CD074E
:10154600420803110318013E031DCE074308031189
:101556000318013E031DCF07440803110318013E7B
:10156600031DD0073B08F2003D080A128A11DA274C
:101576000A128A157308D2007208D1005108C100F8
:10158600C201C301C4014108C90742080311031877
:10159600013E031DCA07430803110318013E031D3C
:1015A600CB07440803110318013E031DCC0752085C
:1015B600C100C201C301C4014108CD07420803119D
:1015C6000318013E031DCE07430803110318013E0D
:1015D600031DCF07440803110318013E031DD0075E
:1015E6000830C1000310C90DCA0DCB0DCC0DC10BBF
:1015F600F52A3A08F2003D080A128A11DA270A1279
:101606008A157308D2007208D1005108C100520829
:10161600C200C301C4014108C907420803110318E7
:10162600013E031DCA07430803110318013E031DAB
:10163600CB07440803110318013E031DCC073908E4
:10164600F2003E080A128A11DA270A128A1573086E
:10165600D2007208D1005108C1005208C200C3016D
:10166600C4014108C907420803110318013E031DBE
:10167600CA07430803110318013E031DCB0744089C
:1016860003110318013E031DCC070830C1000310E7
:10169600C90DCA0DCB0DCC0DC10B4A2B3908F20072
:1016A6003D080A128A11DA270A128A157308D2002F
:1016B6007208D1005108C1005208C200C301C4011A
:1016C6004108C907420803110318013E031DCA0752
:1016D600430803110318013E031DCB0744080311F9
:1016E6000318013E031DCC073A08F2003F080A1210
:1016F6008A11DA270A128A157308D2007208D100F5
:101706005108C1005208C200C301C4014108CD07F7
:10171600420803110318013E031DCE0743080311B7
:101726000318013E031DCF07440803110318013EA9
:10173600031DD0073B08F2003E080A128A11DA2779
:101746000A128A157308D2007208D1005108C10026
:101756005208C200C301C4014108CD074208031163
:101766000318013E031DCE07430803110318013E6B
:10177600031DCF07440803110318013E031DD007BC
:101786003B08F2003F080A128A11DA270A128A1564
:101796007308D2007208D1005108C1005208C20075
:1017A600C301C40108300310C10DC20DC30DC40D21
:1017B600FF3E031DD62B4108CD074208031103182F
:1017C600013E031DCE07430803110318013E031D06
:1017D600CF07440803110318013E031DD0074C0828
:1017E600C100C201C301C4014108CD07420803116B
:1017F6000318013E031DCE07430803110318013EDB
:10180600031DCF07440803110318013E031DD0072B
:101816000830C1000310C90DCA0DCB0DCC0DC10B8C
:101826000D2C48084707C100C201C20D4108823E7F
:10183600D10042080318013EFF3ED200CF1B3E2CCA
:101846000130C1000310CD0DCE0DCF0DD00DC10B53
:10185600252CCC1B4D140130C1000310C90DCA0D37
:10186600CB0DCC0DC10B302CFF30D1070318D20A9B
:10187600FF30D207212CC701CC1F572CFF3049055A
:10188600C100FF304A05C200FF304B05C3007F3060
:101896004C05C400440843044204410403194D188E
:1018A600552C572CC701C70A47080319892C013044
:1018B600CD07003003180130CE0700300318013081
:1018C600CF07003003180130D007501C892C4D0873
:1018D600C1004E08C2004F08C3005008C4000130C2
:1018E600C500440DC40CC30CC20CC10CC50B742C32
:1018F6004408D0004308CF004208CE004108CD007E
:101906000130D1070318D20A0030D2075208803AB4
:10191600FF0080307F02031D922CFF305102031C12
:101926009F2C7F3083120313D0008030CF0000300D
:10193600CE000030CD00CB2C831203135208803A20
:10194600FF0080307F02031DAA2C013051020318CC
:10195600B82C003083120313D0000030CF000030C3
:10196600CE000030CD00C601CB2C831203135108E4
:10197600C800FF30CD05FF30CE057F30CF050030E3
:10198600D0054818CF174808C1000310410CD000F5
:101996004608FF007F08D0045008BC004F08BB0073
:1019A6004E08BA004D08B90008008312E500E51F8D
:1019B6006F2EE509E50A6508803A123E031CBF2D25
:1019C6000A30A0000030A1006508F400F501F41B00
:1019D600F5036430F2000030F3000A168A154A2631
:1019E6000A128A157308A3007208A2000A168A153D
:1019F600E1260A128A152008D70001300310D70DF8
:101A0600FF3E031D012D0310570D593E84000A1693
:101A16008A1100200A128A15D8000A168A11002097
:101A26000A128A15D9000A168A1100200A128A1586
:101A3600DA000A168A1100200A128A15DB005B08F2
:101A4600BC005A08BB005908BA005808B9006430EF
:101A5600A0000030A1006508A200A301A21BA303F9
:101A66000A168A15E1260A128A152008DC000130BA
:101A76000310DC0DFF3E031D3B2D03105C0D7D3E68
:101A860084000A168A1100200A128A15DD000A1639
:101A96008A1100200A128A15DE000A168A11002011
:101AA6000A128A15DF000A168A1100200A128A1500
:101AB600E0006008C0005F08BF005E08BE005D0869
:101AC600BD000A128A15FF210A128A153C08E40095
:101AD6003B08E3003A08E2003908E1000A30F20068
:101AE6000030F3006508F400F501F41BF5030A164F
:101AF6008A154A260A128A157208D7000130031081
:101B0600D70DFF3E031D822D0310570D353E840071
:101B16000A168A1100200A128A15D8000A168A1196
:101B260000200A128A15D9000A168A1100200A1204
:101B36008A15DA000A168A1100200A128A15DB00B5
:101B46005B08BC005A08BB005908BA005808B9001F
:101B56006408C0006308BF006208BE006108BD00DB
:101B66000A128A15FF213C08D6003B08D5003A0820
:101B7600D4003908D30008006508803A753E031C76
:101B8600442E0A30F2000030F3006508F400F50137
:101B9600F41BF5030A168A154A260A128A157208D4
:101BA600D70001300310D70DFF3E031DD52D0310BE
:101BB600570D353E84000A168A1100200A128A152E
:101BC600D8000A168A1100200A128A15D9000A16A8
:101BD6008A1100200A128A15DA000A168A110020D4
:101BE6000A128A15DB005B08BC005A08BB005908BC
:101BF600BA005808B9000A30A0000030A1006508F4
:101C0600A200A301A21BA3030A168A15E1260A1243
:101C16008A152008DC0001300310DC0DFF3E031D91
:101C26000F2E03105C0D593E84000A168A110020FF
:101C36000A128A15DD000A168A1100200A128A1570
:101C4600DE000A168A1100200A128A15DF000A161B
:101C56008A1100200A128A15E0006008C0005F0899
:101C6600BF005E08BE005D08BD000A128A15FF218E
:101C76003C08D6003B08D5003A08D4003908D30002
:101C860008006508D70001300310D70DFF3E031D7D
:101C9600472E0310570D353E84000A168A11002080
:101CA6000A128A15D8000A168A1100200A128A1505
:101CB600D9000A168A1100200A128A15DA000A16B5
:101CC6008A110020DB005B08D6005A08D5005908A7
:101CD600D4005808D30008006508803A123E031C59
:101CE600502F0A30A0000030A1006508F400F5016D
:101CF600F41BF5036430F2000030F3000A168A156F
:101D06004A260A128A157308A3007208A2000A1648
:101D16008A15E1260A128A152008D7000130031019
:101D2600D70DFF3E031D922E0310570D253E84004E
:101D36000A168A1100200A128A15D8000A168A1174
:101D460000200A128A15D9000A168A1100200A12E2
:101D56008A15DA000A168A1100200A128A15DB0093
:101D66005B08BC005A08BB005908BA005808B900FD
:101D76006430A0000030A1006508A200A301A21BE8
:101D8600A3030A168A15E1260A128A152008DC0022
:101D960001300310DC0DFF3E031DCC2E03105C0D3D
:101DA600493E84000A168A1100200A128A15DD00AF
:101DB6000A168A1100200A128A15DE000A168A11EE
:101DC60000200A128A15DF000A168A1100200A125C
:101DD6008A15E0006008C0005F08BF005E08BE000C
:101DE6005D08BD000A128A15FF210A128A153C08F1
:101DF600E4003B08E3003A08E2003908E1000A3053
:101E0600F2000030F3006508F400F501F41BF50359
:101E16000A168A154A260A128A157208D700013050
:101E26000310D70DFF3E031D132F0310570D013E60
:101E360084000A168A1100200A128A15D8000A168A
:101E46008A1100200A128A15D9000A168A11002062
:101E56000A128A15DA000A168A1100200A128A1551
:101E6600DB005B08BC005A08BB005908BA005808DA
:101E7600B9006408C0006308BF006208BE006108BC
:101E8600BD000A128A15FF213C08D6003B08D50082
:101E96003A08D4003908D30008006508803A753E30
:101EA600031CD52F0A30F2000030F3006508F40059
:101EB600F501F41BF5030A168A154A260A128A1535
:101EC6007208D70001300310D70DFF3E031D662FA1
:101ED6000310570D013E84000A168A1100200A12CB
:101EE6008A15D8000A168A1100200A128A15D90006
:101EF6000A168A1100200A128A15DA000A168A11B1
:101F060000200A128A15DB005B08BC005A08BB00D9
:101F16005908BA005808B9000A30A0000030A100DC
:101F26006508A200A301A21BA3030A168A15E126CF
:101F36000A128A152008DC0001300310DC0DFF3E72
:101F4600031DA02F03105C0D253E84000A168A117E
:101F560000200A128A15DD000A168A1100200A12CC
:101F66008A15DE000A168A1100200A128A15DF0079
:101F76000A168A1100200A128A15E0006008C000BD
:101F86005F08BF005E08BE005D08BD000A128A1524
:101F9600FF213C08D6003B08D5003A08D400390892
:101FA600D30008006508D70001300310D70DFF3EA7
:101FB600031DD82F0310570D013E84000A168A11FF
:101FC60000200A128A15D8000A168A1100200A1261
:101FD6008A15D9000A168A1100200A128A15DA0013
:101FE6000A168A110020DB005B08D6005A08D500C5
:101FF6005908D4005808D300080010308A00040895
:10200600840A820700340034003480343F340034BC
:1020160000342034413400340034C83442340034AF
:1020260000347A344434003440341C3446340034AA
:102036005034C3344734003424347434493480343F
:10204600963418344B342034BC34BE344C342834E3
:102056006B346E344E34F934023415345034EC3467
:102066007834AD346034CA34F234493471340034CF
:10207600003480343F34CD34CC34CC343D340A344F
:10208600D73423343C346F34123483343A3417341F
:10209600B734D1343834AC34C53427343734BD344E
:1020A6003734863435349534BF34D63433347734C4
:1020B600CC342B3432345F34703489343034FF34CA
:1020C600E634DB342E340834E5343C341E346034D4
:1020D6004234A2340D3401340034003400340A345E
:1020E6000034003400346434003400340034E834FE
:1020F6000334003400341034273400340034A03460
:10210600863401340034403442340F340034803491
:102116009634983400340034E134F5340534003410
:10212600CA349A343B3441344434433430343A3438
:102136002034253466342C342034443475347434D5
:1021460079343A34203425347534633420340D34EC
:102156000A340034A000A20178080319CC28A10192
:10216600A10AF81BBD280310F80D0130FF007F08F7
:10217600A107B4280310A20D78082002031CC72863
:102186007808A00222140310F80C0130A102031DE6
:10219600BD282208080083164708F2004808F30005
:1021A6004A08F5004908F400013083122005F600BC
:1021B60000302105F7000A168A159D250A168A1190
:1021C600831603134708F2004808F30003174B0869
:1021D600F5004A08F400831203132108A30020081F
:1021E600A200230DA30CA20C01302205F60000303C
:1021F6002305F7000A168A159D250A168A118316E5
:1022060003134708F2004808F30003174908F500CE
:102216004808F400831203132108A3002008A20033
:10222600230DA30CA20C230DA30CA20C0130220536
:10223600F60000302305F7000A168A159D250A16B2
:102246008A11831603134708F2004808F3000317A0
:102256004708F5004608F400831203132108A3007B
:102266002008A200230DA30CA20C230DA30CA20C84
:10227600230DA30CA20C01302205F6000030230525
:10228600F7000A168A159D2508000030720583128C
:102296000313A00000307305A10080307405A2006E
:1022A6007F307505A3002308220421042004031DA2
:1022B60064290030F5000030F4000030F3000030EF
:1022C600F20000307605A00000307705A1008030CE
:1022D6007805A2007F307905A30023082204210493
:1022E6002004031D7E290030F9000030F80000307C
:1022F600F7000030F600F51FA4290030A0000030DA
:10230600A1000030A2008030A3007208A00273086A
:10231600031C730F8F299029A1027408031C740FE4
:1023260095299629A2027508031C750F9B299C29DD
:10233600A3022308F5002208F4002108F300200870
:10234600F200F91FCA290030A0000030A1000030B9
:10235600A2008030A3007608A0027708031C770F3E
:10236600B529B629A1027808031C780FBB29BC2918
:10237600A2027908031C790FC129C229A3022308E6
:10238600F9002208F8002108F7002008F60080303E
:10239600F5068030F90679087502031D08007808ED
:1023A6007402031D080077087302031D08007608EF
:1023B600720208008312A0002008031DF51FF329EE
:1023C6007209A2007309A3007409A4007509A50087
:1023D600A20A0319A30A0319A40A0319A50AFB29C9
:1023E6007508A5007408A4007308A3007208A2006B
:1023F6007508740473047204031D0A2A0030F5007C
:102406000030F4000030F3000030F200080096308F
:10241600A100FE3025050319392A0130FF007F0887
:10242600A10701300310A50CA40CA30CA20CFF3EBF
:10243600031D152A0C2A0130FF007F08A107013071
:10244600A207003003180130A3070030031801303B
:10245600A407003003180130A50701300310A50CAE
:10246600A40CA30CA20CFF3E031D312AFF30250548
:1024760003194D2A1E2A02302102031C4F2A01305D
:10248600A1020130F6000310A20DA30DA40DA50DA7
:10249600F60B462AA41F3E2A2118592AFF30A20508
:1024A600FF30A3057F30A405FF30A5050310A10C5E
:1024B6002108F600F701F801F90118300310F60DAE
:1024C600F70DF80DF90DFF3E031D612A7608A204EB
:1024D6007708A3047808A4047908A5042008031D36
:1024E600F51F762AA5172508F5002408F400230809
:1024F600F3002208F20008000310740D750D831214
:10250600A6002608031D902A0030F5000030F400CE
:102516000030F3000030F20008000310780D790D4A
:10252600A50025080319872AF417FF30F205FF30A6
:10253600F305FF30F4050030F505F817FF30F60512
:10254600FF30F705FF30F8050030F9050030A4002C
:102556000030A3000030A2000030A1007F30A602A8
:10256600A0302507A0002008A6022030A5000130D3
:10257600A0000310A10DA20DA30DA40DA00BBC2A53
:1025860079087502031DD12A78087402031DD12A21
:1025960077087302031DD12A76087202031CE22A09
:1025A6007608F2027708031C770FF3027808031CFB
:1025B600780FF4027908031C790FF5022114013013
:1025C600A0000310F20DF30DF40DF50DA00BE42A97
:1025D6000130A502031DBA2AA61F062B2608803A3B
:1025E6009F3E031C872A01300310A40CA30CA20CE7
:1025F600A10CFF3E031DF72A0130FF007F08A60746
:102606000319192BF62A203026020318872A2608D2
:102616000319192B0130A0000310A10DA20DA30D63
:10262600A40DA00B0F2B0130A6020A2B2408F500DF
:102636002308F4002208F3002108F20008007208BB
:1026460083120313A0007308A1007408A2000310EC
:10265600210D220DA8002808031D3A2B0030F50095
:102666000030F4000030F3000030F2000800760875
:10267600A0007708A1007808A2000310210D220D02
:10268600A70027080319312BF317FF30F205FF3097
:10269600F3050030F405F717FF30F605FF30F705B0
:1026A6000030F8050030A6000030A5000030A40078
:1026B6000030A3007F30A80298302707A00020082A
:1026C600A8021830A7000130A0000310A30DA40D26
:1026D600A50DA60DA00B682B78087402031D792B97
:1026E60077087302031D792B76087202031C862B6A
:1026F6007608F2027708031C770FF3027808031CAA
:10270600780AF402231401300310F20DF30DF40DD0
:10271600FF3E031D872B0130A702031D662BA81F52
:10272600A92B2808803A973E031C312B0130031051
:10273600A60CA50CA40CA30CFF3E031D9A2B01307E
:10274600FF007F08A8070319BC2B992B1830280215
:102756000318312B28080319BC2B0130A0000310E5
:10276600A30DA40DA50DA60DA00BB22B0130A8023A
:10277600AD2B2608F5002508F4002408F3002308ED
:10278600F2000800831203131F1483169F1383128B
:102796009F131F179F121F129F111F1105308316BB
:1027A6000313A400A40BD52BD82B831203139F1459
:1027B6009F18DB2B1E088316A400A5012408B2006F
:1027C6002508B3001E08A400A5013208A700A6012B
:1027D60024082604A80025082704A9002808B20012
:1027E6002908B30044308312D6007F30D500C030AC
:1027F600D4000030D3004030BC00A030BB00003015
:10280600BA000030B90083163208F2003308F3002C
:10281600F401F50100300A168A11DD210A168A1123
:102826007508C0007408BF007308BE007208BD00BA
:102836000A128A15FF210A168A113C08DA003B089B
:10284600D9003A08D8003908D7000A168A1169262D
:102856000A168A1156088316B10083125508831684
:10286600B000831254088316AF00831253088316F0
:10287600AE003F308312BC00C530BB008B30BA00BF
:102886007A30B900831631088312C00083163008E7
:102896008312BF0083162F088312BE0083162E08EC
:1028A6008312BD000A128A15FF213C088316AD006B
:1028B60083123B088316AC0083123A088316AB00DA
:1028C600831239088316AA0083121F1083162D0857
:1028D600A3002C08A2002B08A1002A08A0000800CB
:1028E600F90079088400831700080317C400840AD6
:1028F60000088403C5007908033E84000008C2006E
:10290600840A00088403C3007908063E8400000890
:102916000313C700840A00088403C8007908023E2E
:10292600840000088312AA00AB012A088316CB0094
:1029360083122B088316CC007908053E8400000814
:102946008312AA00AB012A08FA002B08FB007908BB
:10295600083E84000008AA00AB012A088316C900B5
:1029660083122B088316CA007908093E84000008E2
:102976008312AA00AB012A0883160317CA00831222
:1029860003132B0883160317CB0079080A3E84002D
:10299600000883120313AA00AB012A088316031743
:1029A600C800831203132B0883160317C90079087E
:1029B6000B3E8400000883120313AA00AB012A0809
:1029C60083160317C600831203132B0883160317F7
:1029D600C700413083120313AB00ED30AA00AA0BE7
:1029E600F22CAB0BF22CF72C023083120313A0004F
:1029F6000030A1000A168A11CE200A168A110A167C
:102A06008A15C8250A168A11003083120313A400FA
:102A1600A5002830A6000A128A1503200A168A1174
:102A2600003083120313A400A5000C30A6000A127E
:102A36008A1503200A168A11003083120313A40094
:102A4600A5000630A6000A128A1503200A168A1166
:102A5600003083120313A400A500A601A60A0A12D9
:102A66008A1503200A168A11073083120313AB0056
:102A76007C30AA00AA0B3D2DAB0B3D2D00000800B3
:102A8600831603178901031386010A168A15E224A1
:102A96000A168A110A168A1528250A168A110A168E
:102AA6008A15CA240A168A1183168711B6300A16A1
:102AB6008A1173240A168A110A168A11C5230A1660
:102AC6008A1123080317B500031322080317B4005D
:102AD600031321080317B300031320080317B200DA
:102AE6003508F5003408F4003308F3003208F20024
:102AF6004130F900C830F8000030F7000030F60029
:102B06000A168A1148210A168A1103188E2D831671
:102B16000317B101F42D4230F5004830F4000030BF
:102B2600F3000030F200831603173508F900340865
:102B3600F8003308F7003208F6000A168A11482111
:102B46000A168A110318A92DFF30F12D83160317D3
:102B5600350883120313AC00831603173408831257
:102B66000313AB0083160317330883120313AA005B
:102B760083160317320883120313A900C130A80075
:102B8600C830A7000030A6000030A5000A128A113E
:102B9600DD250A168A112808C0002708BF00260866
:102BA600BE002508BD004130BC002330BB003330D9
:102BB600BA003330B9000A128A15FF210A168A11A3
:102BC6003C08E9003B08E8003A08E7003908E60057
:102BD6000A168A1599270A168A1166088316031794
:102BE600B10091300313A000031735080313A400A6
:102BF600031734080313A300031733080313A200B3
:102C0600031732080313A100031731080313C50085
:102C1600C6014508A5004608A60090300A128A118A
:102C260035200A168A110317AF01B0012F08903E0E
:102C36008400831700080319322E2F08903E840063
:102C460000088312031399008316981C272E01305F
:102C56000317AF070318B00A0030B007192E831206
:102C660003138C1E562E1A0883160317AE00303037
:102C76002E06031D442E03134D080319442E00305F
:102C86004E2E313003172E06031D562E03134D0804
:102C9600031D562E01300A168A1501250A168A11B9
:102CA6005030831299008316031731080A168A15C5
:102CB600BA240A168A11823083160313C600DD3041
:102CC600C500C50B642EC60B642E5F2D5A088039CD
:102CD600E4005A08DB005B07EB00D91B6B146B089A
:102CE6000319832E6B0A031D802E0030DA00003094
:102CF600D9000030D8000030D700D917DA018B2E62
:102D06000030DA000030D9000030D8000030D7009B
:102D160056088039FF007F08E4065608DB005B078B
:102D2600EC00D51B6C146C080319A72E6C0A031D46
:102D3600A42E0030D6000030D5000030D40000307C
:102D4600D300D517D601AF2E0030D6000030D500FF
:102D56000030D4000030D300560855045404530400
:102D6600031DCE2E0030DA000030D9000030D80026
:102D76000030D7008030D9047F30DA046408FF00C1
:102D86007F08DA045A08D6005908D5005808D40036
:102D96005708D30008006B08031DDA2E0030D60052
:102DA6000030D5000030D4000030D30008006B0896
:102DB600DB00DC015C08DE006C085B02DD00031C46
:102DC600DE035D087F3EE5005E080318013E003E17
:102DD600E6005A08E3005908E2005808E1005708DF
:102DE600E0000030DA000030D9000030D8000030B2
:102DF600D7000030EA000030E9000030E80000307B
:102E0600E700EC011A306C0203184D2F6C08031909
:102E1600292F0130DB000310E00DE10DE20DE30D7B
:102E2600DB0B0E2F0130DB000310D70DD80DD90DAB
:102E3600DA0DDB0B172FEA1B57140130DB000310EA
:102E4600E70DE80DE90DEA0DDB0B222F56086302AC
:102E5600031D372F55086202031D372F54086102E0
:102E6600031D372F53086002031C482F6A175308A7
:102E7600E0025408031C540FE1025508031C550FC9
:102E8600E2025608031C560FE3020130FF007F08DA
:102E9600EC07052F6308620461046004031D6714D0
:102EA600D91B702F0130DB000310D70DD80DD90DBB
:102EB600DA0DDB0B572FEA1B57140130DB0003102A
:102EC600E70DE80DE90DEA0DDB0B622FFF30E50794
:102ED6000318E60AFF30E607532FEC01EA1F892F95
:102EE600FF306705DB00FF306805DC00FF30690551
:102EF600DD007F306A05DE005E085D045C045B046D
:102F060003195718872F892FEC01EC0A6C0803194F
:102F1600BB2F0130D707003003180130D807003027
:102F260003180130D907003003180130DA075A1C9C
:102F3600BB2F5708DB005808DC005908DD005A088B
:102F4600DE000130DF005E0DDE0CDD0CDC0CDB0C80
:102F5600DF0BA62F5E08DA005D08D9005C08D800F2
:102F66005B08D7000130E5070318E60A0030E607DC
:102F76006608803AFF0080307F02031DC42FFF30B1
:102F86006502031CD42FFF3083120313E5000030C3
:102F9600E6000030DA000030D9000030D8000030FA
:102FA600D700831203136608803AFF0080307F0241
:102FB600031DDF2F013065020318EE2F8312031362
:102FC600E501E6010030DA000030D9000030D80013
:102FD6000030D700E401831203136508EB006B1C75
:102FE600F62FD917FA2F7F30FF007F08D9056B0817
:0A2FF600DB0003105B0CDA00C12EB3
:10397400F200720883120313950091010800750880
:10398400740473047204031908008030F5060800F7
:10399400811101158110011481128B160B116430F1
:1039A400831281008B170800063400340234063475
:1039B4000034033406340034043405340634073444
:1039C40019309900981683121816831618121815B0
:1039D4008312981718138316181308007E088A0098
:1039E4007F088200F0240A168A158000840A0408DD
:1039F4007D0603190034FF0A0319FE0AF42CF200B1
:103A0400720803190E2D0C3083129700910183164E
:103A14000711CD01CD0A08000715831297018316FB
:103A2400CD0108000B1D1D2D0B11643083120313EF
:103A3400810008308706831203138C188C107108D8
:103A44008A00700E8300FE0E7E0E09000715FF30FB
:103A540092000C3083129700643095008C10023071
:103A64009200063092008C1C352D831607118312A8
:103A74008C108316CD01CD0A08008030BC064008A6
:103A8400A8003F08A7003E08A6003D08A5003C0882
:103A9400AC003B08AB003A08AA003908A9000A1296
:103AA4008A11DD252808BC002708BB002608BA00B7
:103AB4002508B9000800F5000830F600F70175087C
:103AC400F30007300310F30CFF3E031D642D770849
:103AD400F40074077304F7000310F50D72087702FD
:103AE400031C762D7208F7020130F602031D612DC6
:103AF40077080800F601F701721C862D7408F60792
:103B04000318F70A7508F70701300310F40DF50DD3
:103B1400FF3E031D872D01300310F30CF20CFF3E12
:103B2400031D8E2D72087304031D7E2D7708F30088
:103B34007608F200080076037704031DB42D0130E3
:103B4400F800740AA72D0310F80DFF3E031DA52DE0
:103B54007808FF00720884008317731C83137F089E
:103B6400800408000130F800740ABA2D0310F80D1F
:103B7400FF3E031DB82D7808FF3AFF007208840049
:103B84008317731C83137F088005080083160317AB
:103B94004208F2004308F3007B08F5007A08F400B9
:103BA4000130F6000030F7000A168A159D250A1622
:103BB4008A15073083120313A1007C30A000A00BE8
:103BC400E12DA10BE12D0000831603174208F2003A
:103BD4004308F3007B08F5007A08F4000030F6008F
:103BE400F7000A168A159D250A168A15C73083120E
:103BF4000313A000FD2DA00BFC2D002E08000030A7
:103C040072058312A00000307305A1008030740592
:103C1400A2007F307505A300230822042104200498
:103C2400031D1C2E0030F5000030F4000030F300BA
:103C34000030F20000307605A00000307705A100C6
:103C440080307805A2007F307905A3002308220480
:103C540021042004031D362E0030F9000030F80042
:103C64000030F7000030F60079087506031D442E75
:103C740078087406031D442E77087306031D442E2A
:103C8400760872060319482E03100800031408006E
:103C9400F701F51F542EF409F509F40A0319F50A7E
:103CA400F701F70AF31F5B2EF209F309F20A03196D
:103CB400F30A720873040319882EF601F60AF31B3B
:103CC4006F2E01300310F20DF30DFF3E031D642E21
:103CD4000130FF007F08F607612E73087502031D8B
:103CE400752E72087402031C7D2E7208F402730888
:103CF400031CF503F50201300310F30CF20CFF3E34
:103D0400031D7E2E0130F602031D6F2E7708031962
:103D1400902EF409F509F40A0319F50A7508F3005D
:103D24007408F2000800290828042704260403194B
:103D3400D82EAF01AF0AA91BAD2E0130AE0003107F
:103D4400A60DA70DA80DA90DAE0BA12E0130FF00E5
:103D54007F08AF079D2E29082D02031DBB2E2808BE
:103D64002C02031DBB2E27082B02031DBB2E260885
:103D74002A02031CCB2E2608AA022708031C270F9D
:103D8400AB022808031C280FAC022908031C290FC6
:103D9400AD0201300310A90CA80CA70CA60CFF3E21
:103DA400031DCC2E0130AF02031DAD2E2D08A9003A
:103DB4002C08A8002B08A7002A08A6000800A501C3
:103DC400A11FEB2EA009A109A00A0319A10AA501AC
:103DD400A50AA31FF62EA209A309A20A0319A30A7E
:103DE4000130FF007F08A506A601A70120082104D1
:103DF40003192D2FA401A40AA11B0C2F01300310B9
:103E0400A00DA10DFF3E031D012F0130FF007F080F
:103E1400A407FE2E01300310A60DA70DFF3E031DBF
:103E24000D2F21082302031D192F20082202031C31
:103E3400222F2008A2022108031CA303A302261494
:103E440001300310A10CA00CFF3E031D232F0130F1
:103E5400A402031D0C2F25080319352FA609A70951
:103E6400A60A0319A70A2708A1002608A00008002B
:103E740000308312A4000030A3000030A200003000
:103E8400A10075087404730472040319902FA5012A
:103E9400A50AF51B5B2F0130A0000310F20DF30DF2
:103EA400F40DF50DA00B4F2F0130FF007F08A5077F
:103EB4004B2F0130A0000310A10DA20DA30DA40DE2
:103EC400A00B5D2F75087902031D722F7408780208
:103ED400031D722F73087702031D722F7208760276
:103EE400031C832F7208F6027308031C730FF70276
:103EF4007408031C740FF8027508031C750FF9028B
:103F0400211401300310F50CF40CF30CF20CFF3EF9
:103F1400031D842F0130A502031D5B2F2408F50027
:103F24002308F4002208F3002108F200080003101B
:103F3400680D690DEF006F08031DA92F0030E9001B
:103F44000030E8000030E7000030E60008006608B2
:103F5400EA006708EB006808EC006908ED001F3010
:103F64000310ED0CEC0CEB0CEA0CFF3E031DB22F1E
:103F74006A08EE00E817FF30E605FF30E705FF307A
:103F8400E8050030E9059630EF02EF1FDE2F6F08D9
:103F9400803A973E031CA02F01300310E90CE80C73
:103FA400E70CE60CFF3E031DCF2F0130FF007F0816
:103FB400EF070319F12FCE2F20306F020318A02F23
:103FC4006F080319F12F0130EA000310E60DE70D25
:103FD400E80DE90DEA0BE72F0130EF02E22F6E083E
:103FE40003190800E609E709E809E909E60A0319DB
:103FF400E70A0319E80A0319E90A0800FF3FFF3F2B
:04400400FF3FFF3F3C
:04400E00F43FFF3F3D
:00000001FF
