:060000000A128A110C280F
:10000800FE00030EF0000A08F1000A168A15852979
:100018000A128A110F288317AA30FD000730FE0044
:10002800F430FF009E3084000A168A1562210A12F5
:100038008A1183160317900191019201930194018B
:10004800950196019701980199019A019B019C01DC
:100058009D0183160313ED01EE01EF01FA01FB0187
:1000680083010A128A151D2883160313BF00A130C5
:10007800B000042F253044060319432844284E288D
:100088003F0884004408831380000130FF007F0884
:10009800BF07042FB101B201582832157528C030A6
:1000A800B1040030B20475280130A007FF302007E2
:1000B80084000A168A1500200A128A11C400A700B3
:1000C800A8012808003A03196A28042F2708003ACB
:1000D8000319142F663A03195128133A03195328A0
:1000E800042F00303105A70007303205A800270883
:1000F8002804031980288128282E0630B3000030F0
:10010800B4003008840083130008C000840A000883
:10011800C100840A0008C200840A0008C300043031
:10012800FF007F08B0074308F5004208F4004108C3
:10013800F3004008F2000030F9000030F800003009
:10014800F7000030F6000A168A15ED250A128A1102
:100158000318AF28B028CD28831603134308F500E9
:100168004208F4004108F3004008F2000A168A1514
:1001780044210A128A11750883160313C3007408F0
:10018800C2007308C1007208C0000330B104003017
:10019800B20483160313B901BA014308F5004208F3
:1001A800F4004108F3004008F2000030F900003084
:1001B800F8000030F7000030F6000A168A152223EE
:1001C8000A128A110318E928EA28EA290310831673
:1001D8000313420D430D823EB900FF30031800306F
:1001E800BA00FF30B9070318BA0AFF30BA0703305C
:1001F800F2000030F3003A08F5003908F4000A1656
:100208008A15E1210A128A11730883160313BA00AA
:100218007208B9000A3083120313A0000030A1004D
:10022800831603133A0883120313A30083160313D8
:10023800390883120313A2000A168A1589240A12A0
:100248008A1183120313210883160313BA00831239
:100258000313200883160313B900BA1F342935295C
:100268003B29FF30B9070318BA0AFF30BA07390328
:10027800FF3A0A128A159D240A128A11831203135F
:10028800560883160313BE008312031355088316FA
:100298000313BD0083120313540883160313BC0011
:1002A80083120313530883160313BB0043088312F6
:1002B8000313BC0083160313420883120313BB0005
:1002C80083160313410883120313BA00831603131A
:1002D800400883120313B900831603133E088312E0
:1002E8000313C000831603133D0883120313BF00D2
:1002F800831603133C0883120313BE0083160313EB
:100308003B0883120313BD000A128A1558210A12EA
:100318008A11831203133C0883160313BE00831249
:1003280003133B0883160313BD00831203133A0813
:1003380083160313BC0083120313390883160313AF
:10034800BB003E08F5003D08F4003C08F3003B08FC
:10035800F2003F30F9008030F8000030F70000303C
:10036800F6000A168A15ED250A128A110318BD2906
:10037800BE29C729FF3083160313B9070318BA0A21
:10038800FF30BA07EA29831603133E08F5003D0833
:10039800F4003C08F3003B08F2004130F90020303B
:1003A800F8000030F7000030F6000A168A15ED252F
:1003B8000A128A11031CE129E229EA29013083166D
:1003C8000313B9070318BA0A0030BA0706300A1629
:1003D8008A119B230A128A11831203135608A80054
:1003E8005508A7005408A6005308A5008316031350
:1003F800430883120313AC008316031342088312C5
:100408000313AB0083160313410883120313AA00D6
:1004180083160313400883120313A9000A168A11CE
:10042800A8250A128A1183120313280883160313B6
:10043800C30083120313270883160313C200831211
:100448000313260883160313C10083120313250818
:1004580083160313C0003A08803AFF0080307F02F9
:10046800031D382A0A30390203183B2A3C2A8D2AF0
:10047800831603134308F5004208F4004108F3000B
:100488004008F2000030F9000030F8000030F700B2
:100498000030F6000A168A1522230A128A11031858
:1004A800562A572AFF2A8316031343088312031375
:1004B800E90083160313420883120313E800831626
:1004C8000313410883120313E7008316031340083C
:1004D80083120313E6000A168A15F2240A128A11F7
:1004E800831203136908680467046604031D7D2AE0
:1004F8007E2AFF2A831603133A08803AFF008030C9
:100508007F02031D892A02303902031C8C2A8D2A96
:10051800FF2A831603133E08F5003D08F4003C0843
:10052800F3003B08F2004030F9008930F8007030E1
:10053800F7005F30F6000A168A15ED250A128A11AF
:100548000318A72AA82AB12AF73083160313B90774
:100558000318BA0AFF30BA07B92AF830831603130A
:10056800B9070318BA0AFF30BA0739080A128A15F8
:100578009D240A128A118312031356088316031343
:10058800BE0083120313550883160313BD0083129C
:100598000313540883160313BC0083120313530870
:1005A80083160313BB004308F5004208F400410812
:1005B800F3004008F2003E08F9003D08F8003C0846
:1005C800F7003B08F6000A168A1548270A128A110E
:1005D800750883160313B8007408B7007308B600CB
:1005E8007208B5000030C3000030C2000030C100FE
:1005F8000030C000832B83160313430883120313B0
:10060800E90083160313420883120313E8008316D4
:100618000313410883120313E700831603134008EA
:1006280083120313E6000A168A15F2240A128A11A5
:1006380083120313690883160313B8008312031384
:10064800680883160313B700831203136708831619
:100658000313B60083120313660883160313B50049
:100668003808F5003708F4003608F3003508F200BA
:1006780000300A168A113A200A128A117508831264
:100688000313BC007408BB007308BA007208B900F1
:1006980083160313430883120313C000831603133E
:1006A800420883120313BF00831603134108831201
:1006B8000313BE0083160313400883120313BD00FF
:1006C8000A168A15BD210A128A11831203133C08DF
:1006D80083160313C300831203133B088316031303
:1006E800C200831203133A0883160313C10083124E
:1006F8000313390883160313C000B901BA01C401F2
:10070800C40A4408A70001300310A70DFF3E031DCB
:10071800882B0310270D693E84000A168A150020CD
:100728000A128A11A8000A168A1500200A128A11CC
:10073800A9000A168A1500200A128A11AA000A16A8
:100748008A1500200A128A11AB002B083802031DF3
:10075800B72B2A083702031DB72B29083602031DB9
:10076800B72B280835020318BA2BBB2BBC2BC62B7A
:100778000130FF007F08C4070A304406031DC52B5B
:10078800C62B852B03303105A70000303205A800A1
:10079800270828040319D12BD22B5D2C3F0884008D
:1007A8002D30831380000130FF007F08BF075D2CC8
:1007B8004408A70001300310A70DFF3E031DDF2BDF
:1007C8000310270D693E84000A168A1500200A12B4
:1007D8008A11F2000A168A1500200A128A11F300FB
:1007E8000A168A1500200A128A11F4000A168A15B8
:1007F80000200A128A11F5003808F9003708F800B5
:100808003608F7003508F6000A168A1521240A1258
:100818008A11750883160313BE007408BD00730897
:10082800BC007208BB00003083120313A90000301B
:10083800A8000030A7000A30A600831603133E085C
:1008480083120313AD00831603133D0883120313A9
:10085800AC00831603133C0883120313AB00831602
:1008680003133B0883120313AA000A168A1572237E
:100878000A128A1183120313290883160313BE0070
:1008880083120313280883160313BD00831203136E
:10089800270883160313BC00831203132608831644
:1008A8000313BB003F0884003B08303E83138000DD
:1008B800D72B0130C402440A031D632C642CDC2BA3
:1008C800762C831603133F0884003030831380008E
:1008D8000130FF007F08BF07FF30B9070318BA0AC5
:1008E800FF30BA073A08803AFF0080307F02031DC4
:1008F8007F2C013039020318822C832C652C831637
:1009080003133408803AFF0080307F02031D8E2CC9
:1009180009303302031C912C922C972C0830831633
:100928000313C4009B2C831603133308C400440824
:10093800A700A8012708B3022808031CB403B402BF
:1009480044080319A82CA92CB22C3F0884002E3087
:10095800831380000130FF007F08BF0744080A1294
:100968008A159D240A128A118312031356088316C6
:100978000313AF0083120313550883160313AE0045
:1009880083120313540883160313AD008312031351
:10099800530883160313AC002F0883120313C000F7
:1009A800831603132E0883120313BF008316031341
:1009B8002D0883120313BE00831603132C08831219
:1009C8000313BD0083160313430883120313BC00EB
:1009D80083160313420883120313BB008316031301
:1009E800410883120313BA008316031340088312C5
:1009F8000313B9000A128A1558210A128A118312A0
:100A080003133C08E9003B08E8003A08E700390806
:100A1800E6000A168A15F2240A128A1183120313B1
:100A2800690883160313B800831203136808831632
:100A38000313B70083120313670883160313B60062
:100A480083120313660883160313B5000A2E44089D
:100A5800A70001300310A70DFF3E031D2E2D031024
:100A6800270D693E84000A168A1500200A128A1189
:100A7800F2000A168A1500200A128A11F3000A16D3
:100A88008A1500200A128A11F4000A168A15002015
:100A98000A128A11F5003808F9003708F8003608F4
:100AA800F7003508F6000A168A1521240A128A1159
:100AB800750883160313BE007408BD007308BC00D4
:100AC8007208BB00003083120313A9000030A8008D
:100AD8000030A7000A30A600831603133E088312CD
:100AE8000313AD00831603133D0883120313AC00F0
:100AF800831603133C0883120313AB0083160313F6
:100B08003B0883120313AA000A168A1572230A12D5
:100B18008A1183120313290883160313BE00831254
:100B28000313280883160313BD0083120313270831
:100B380083160313BC0083120313260883160313BA
:100B4800BB003F0884003B08303E8313800001301F
:100B5800FF007F08BF074408A70001300310A70D56
:100B6800FF3E031DB22D0310270D693E84000A16AF
:100B78008A1500200A128A1183120313A6000A1686
:100B88008A1500200A128A11A7000A168A15002061
:100B98000A128A11A8000A168A1500200A128A1158
:100BA800A90083160313380883120313AD008316B4
:100BB8000313370883120313AC0083160313360894
:100BC80083120313AB008316031335088312031330
:100BD800AA000A168A1572230A128A1183120313AD
:100BE800290883160313B8008312031328088316F1
:100BF8000313B70083120313270883160313B600E1
:100C080083120313260883160313B5000130C402A8
:100C1800440A031D102E112E2B2D212E3F0884006F
:100C28003030831380000130FF007F08BF07FF309A
:100C3800B3070318B40AFF30B40733083404031D9C
:100C4800262E272E122E042F300884008313000826
:100C5800A700840A0008A8002708B5002808B600DD
:100C6800B701B8010230FF007F08B007C401C40A09
:100C78004408A70001300310A70DFF3E031D3F2EB7
:100C88000310270D693E84000A168A1500200A12EF
:100C98008A11A8000A168A1500200A128A11A900CA
:100CA8000A168A1500200A128A11AA000A168A153D
:100CB80000200A128A11AB002B083802031D6E2E81
:100CC8002A083702031D6E2E29083602031D6E2ED0
:100CD800280835020318712E722E732E7D2E0130CE
:100CE800FF007F08C4070A304406031D7C2E7D2EB2
:100CF8003C2E03303105A70000303205A800270834
:100D080028040319882E892E922E3F0884002D303E
:100D1800831380000130FF007F08BF074408A70045
:100D2800A8012708B3002808B400F62E0030831263
:100D38000313A9000030A8000030A7000A30A6005D
:100D4800831603133308A70001300310A70DFF3ED5
:100D5800031DA92E0310270D693E84000A168A1563
:100D680000200A128A11F2000A168A1500200A12B7
:100D78008A11F3000A168A1500200A128A11F40053
:100D88000A168A1500200A128A11F5003808F90097
:100D98003708F8003608F7003508F6000A168A15ED
:100DA80021240A128A11750883120313AD007408EE
:100DB800AC007308AB007208AA000A168A157223E1
:100DC8000A128A11831203132608303E831603136E
:100DD800C4003F0884004408831380000130FF00EA
:100DE8007F08BF07FF30B3070318B40AFF30B40702
:100DF800330A031D032F340A031D032F042F9A2ED1
:100E08000130A007FF30200784000A168A15002049
:100E18000A128A11C4004408031D132F142F3E28F8
:100E28003F088400831380010800F90079088400D2
:100E380083170008831603179200840A00088403A6
:100E480093007908033E840000089000840A000893
:100E5800840391007908063E840000088316031372
:100E6800ED00840A00088403EE007908023E84003D
:100E7800000883120313AA00AB012A08831603177C
:100E88009C00831203132B08831603179D0079080F
:100E9800053E8400000883120313AA00AB012A0848
:100EA800FA002B08FB007908083E84000008AA0015
:100EB800AB012A08831603179A00831203132B0821
:100EC800831603179B007908093E840000088312E3
:100ED8000313AA00AB012A0883160317980083128C
:100EE80003132B0883160317990079080A3E840018
:100EF800000883120313AA00AB012A0883160317FC
:100F08009600831203132B0883160317970079089A
:100F18000B3E8400000883120313AA00AB012A08C1
:100F2800831603179400831203132B0883160317E1
:100F38009500413083120313AB00ED30AA00AA0BD1
:100F4800A32FAB0BA32FA82F023083120313A000EB
:100F58000030A1000A168A156A250A128A110A1693
:100F68008A155C220A128A11003083120313A40026
:100F7800A5002830A6000A168A15DB220A128A1153
:100F8800003083120313A400A5000C30A6000A1633
:100F98008A15DB220A128A11003083120313A40077
:100FA800A5000630A6000A168A15DB220A128A1145
:100FB800003083120313A400A500A601A60A0A168E
:100FC8008A15DB220A128A11073083120313AB0039
:100FD8007C30AA00AA0BEE2FAB0BEE2F0000080006
:100FE8000634003402340634003403340634003442
:080FF80004340534063407340B
:10100400F200720803190728082813280C308312E9
:10101400031397009101831603130711EF01EF0ADD
:101024001C288316031307158312031397018316D1
:101034000313EF01080083160317890183160313B2
:1010440086010A168A1571210A128A150A168A154A
:101054009E210A128A150A168A154F210A128A1528
:101064008316031387119E300A128A1119270A1254
:101074008A150A168A11F4200A128A158316031394
:101084002308EC002208EB002108EA002008E9000C
:101094006C08F5006B08F4006A08F3006908F200B4
:1010A4004130F900C830F8000030F7000030F60095
:1010B4000A168A15ED250A128A1503186228632870
:1010C400672883160313E801D8284230F500483016
:1010D400F4000030F3000030F200831603136C08B0
:1010E400F9006B08F8006A08F7006908F6000A16A8
:1010F4008A15ED250A128A15031881288228872863
:10110400FF3083160313E800D828831603136C08F2
:1011140083120313AC00831603136B0883120313A7
:10112400AB00831603136A0883120313AA00831601
:101134000313690883120313A900C130A800C8303F
:10114400A7000030A6000030A5000A168A11A825C1
:101154000A128A15831203132808C0002708BF0047
:101164002608BE002508BD004130BC002330BB006A
:101174003330BA003330B9000A128A1558210A12E2
:101184008A15831203133C08E9003B08E8003A0877
:10119400E7003908E6000A168A15F2240A128A15AD
:1011A40083120313660883160313E8009130A0002A
:1011B4006C08A4006B08A3006A08A2006908A100D7
:1011C4006808C500C6014508A5004608A600C73042
:1011D4000A128A1138200A128A1583160313E601AB
:1011E400E70107296608C73E840000088312031339
:1011F400990083160313981C00290129FB28013048
:10120400E6070318E70A0030E7076608C73E8400CC
:1012140083130008031D0F291029F42883120313D4
:101224008C1E1529162942291A0883160313E50072
:1012340030306506031D1F29202930296F08031942
:1012440024292529302900300A128A1502200A127D
:101254008A155030831203139900422931306506F0
:10126400031D3529362942296F08031D3A293B29D4
:10127400422901300A128A1502200A128A152B29E2
:101284008316031368080A168A153D210A128A1563
:10129400823083160313C600DD30C500C50B502908
:1012A400C60B50293B280A128A110C2883120313F7
:1012B4003C088039C6003C08C1004107CC00BB1F74
:1012C4006429652966294C144C0803196A296B2979
:1012D4007A294C0A031D6F29702978290030BC0033
:1012E4000030BB000030BA000030B900BB178229BF
:1012F4000030BC000030BB000030BA000030B90040
:1013040040088039FF007F08C6064008C100410735
:10131400C700BF1F8E298F29902947144708031936
:1013240094299529A429470A031D99299A29A229B0
:101334000030C0000030BF000030BE000030BD00EF
:10134400BF17AC290030C0000030BF000030BE0021
:101354000030BD0047080319B029B129B6294C084B
:10136400031DB529B629BF290030BC000030BB00DD
:101374000030BA000030B9009C2C3908F2003F0854
:101384000A168A1506220A128A1573088312031391
:10139400D2007208D1005108C100C201C301C401C6
:1013A4004408CB004308CA004208C9004108C800E9
:1013B4005208C100C201C301C4014408D00043085B
:1013C400CF004208CE004108CD003A08F2003E08A2
:1013D4000A168A1506220A128A1573088312031341
:1013E400D2007208D1005108C100C201C301C40176
:1013F4004108C807420803110318013E0319032AD0
:10140400C907430803110318013E03190A2ACA072E
:10141400440803110318013E0319112ACB0752088B
:10142400C100C201C301C4014108CD074208031130
:101434000318013E03191F2ACE074308031103189A
:10144400013E0319262ACF07440803110318013E5D
:1014540003192D2AD0073B08F2003D080A168A1505
:1014640006220A128A15730883120313D200720823
:10147400D1005108C100C201C301C4014108C80719
:10148400420803110318013E0319492AC9074308F6
:1014940003110318013E0319502ACA074408031113
:1014A4000318013E0319572ACB075208C100C20191
:1014B400C301C4014108CD07420803110318013ECA
:1014C4000319652ACE07430803110318013E0319C3
:1014D4006C2ACF07440803110318013E0319732A29
:1014E400D0070830C1000310C80DC90DCA0DCB0DBB
:1014F400C10B752A3A08F2003D080A168A1506221D
:101504000A128A15730883120313D2007208D100D9
:101514005108C1005208C200C301C4014108C807F0
:10152400420803110318013E0319992AC907430805
:1015340003110318013E0319A02ACA074408031122
:101544000318013E0319A72ACB073908F2003E0805
:101554000A168A1506220A128A15730883120313BF
:10156400D2007208D1005108C1005208C200C30160
:10157400C4014108C807420803110318013E0319B6
:10158400C42AC907430803110318013E0319CB2ACF
:10159400CA07440803110318013E0319D22ACB07D2
:1015A4000830C1000310C80DC90DCA0DCB0DC10B05
:1015B400D42A3908F2003D080A168A1506220A12AE
:1015C4008A15730883120313D2007208D1005108DC
:1015D400C1005208C200C301C4014108C80742083F
:1015E40003110318013E0319F82AC907430803111C
:1015F4000318013E0319FF2ACA07440803110318FC
:10160400013E0319062BCB073A08F2003F080A16DD
:101614008A1506220A128A15730883120313D2004C
:101624007208D1005108C1005208C200C301C401AC
:101634004108CD07420803110318013E0319232B67
:10164400CE07430803110318013E03192A2BCF07C1
:10165400440803110318013E0319312BD0073B083A
:10166400F2003E080A168A1506220A128A15730821
:1016740083120313D2007208D1005108C10052082A
:10168400C200C301C4014108CD0742080311031875
:10169400013E03194E2BCE07430803110318013EE4
:1016A4000319552BCF07440803110318013E0319EE
:1016B4005C2BD0073B08F2003F080A168A15062265
:1016C4000A128A15730883120313D2007208D10018
:1016D4005108C1005208C200C301C40108300310FC
:1016E400C10DC20DC30DC40DFF3E031D712B410876
:1016F400CD07420803110318013E0319822BCE07BC
:10170400430803110318013E0319892BCF0744082A
:1017140003110318013E0319902BD0074808C10098
:101724004908C2004A08C3004B08C400183003101B
:10173400C40CC30CC20CC10CFF3E031D992B410801
:10174400CD07420803110318013E0319AA2BCE0743
:10175400430803110318013E0319B12BCF074408B2
:1017640003110318013E0319B82BD0070830C10038
:101774000310C80DC90DCA0DCB0DC10BBA2B4C08F3
:101784004707C100C201C20D4108823ED100420890
:101794000318013EFF3ED200EC2B0130C1000310C0
:1017A400CD0DCE0DCF0DD00DC10BD12BCB1FDB2B0F
:1017B400DC2BDD2B4D140130C1000310C80DC90D05
:1017C400CA0DCB0DC10BDF2BFF30D1070318D20A92
:1017D400FF30D207CF1FEF2BF02BCF2BC701CB1F2E
:1017E400F42BF52B112CFF304805C100FF304905BF
:1017F400C200FF304A05C3007F304B05C4004408D3
:101804004304420441040319082C092C0C2CC7017D
:10181400C70A112C4D1C0F2C102C112C092C470815
:101824000319152C162C472C0130CD070030031852
:101834000130CE07003003180130CF070030031801
:101844000130D007501C272C282C472C4D08C100F0
:101854004E08C2004F08C3005008C4000130C50040
:10186400440DC40CC30CC20CC10CC50B322C44086F
:10187400D0004308CF004208CE004108CD0001301B
:10188400D1070318D20A0030D2075208803AFF0069
:1018940080307F02031D502CFF305102031C532C57
:1018A400542C5F2C7F3083120313D0008030CF0080
:1018B4000030CE000030CD00902C83120313520868
:1018C400803AFF0080307F02031D6A2C01305102F0
:1018D40003186D2C6E2C7A2C003083120313D00065
:1018E4000030CF000030CE000030CD00C601902C77
:1018F400831203135108CC00FF30CD05FF30CE0511
:101904007F30CF050030D0054C1C892C8A2C8B2CC1
:10191400CF174C08C1000310410CD0004608FF004B
:101924007F08D0045008BC004F08BB004E08BA0022
:101934004D08B900080083120313E500E51FA32C2A
:10194400A42C532EE509E50A6508803A123E031CCF
:10195400AC2CAD2C972D0A30A0000030A1006508F6
:10196400F400F501F41BF5036430F2000030F300D9
:101974000A168A15C8230A128A15730883120313D8
:10198400A3007208A2000A168A1589240A128A156D
:10199400831203132008D70001300310D70DFF3E34
:1019A400031DCF2C0310570D593E84000A168A15C7
:1019B40000200A128A15D8000A168A1500200A1275
:1019C4008A15D9000A168A1500200A128A15DA0027
:1019D4000A168A1500200A128A15DB005B08BC006F
:1019E4005A08BB005908BA005808B9006430A0006E
:1019F4000030A1006508A200A301A21BA3030A16DC
:101A04008A1589240A128A15831203132008DC001C
:101A140001300310DC0DFF3E031D0B2D03105C0D84
:101A24007D3E84000A168A1500200A128A15DD00FC
:101A34000A168A1500200A128A15DE000A168A156B
:101A440000200A128A15DF000A168A1500200A12DD
:101A54008A15E0006008C0005F08BF005E08BE0091
:101A64005D08BD000A128A1558210A128A158312CC
:101A740003133C08E4003B08E3003A08E200390899
:101A8400E1000A30F2000030F3006508F400F501CB
:101A9400F41BF5030A168A15C8230A128A1572085C
:101AA40083120313D70001300310D70DFF3E031D2B
:101AB400562D0310570D353E84000A168A15002052
:101AC4000A128A15D8000A168A1500200A128A15E5
:101AD400D9000A168A1500200A128A15DA000A1695
:101AE4008A1500200A128A15DB005B08BC005A081C
:101AF400BB005908BA005808B9006408C00063085C
:101B0400BF006208BE006108BD000A128A15582190
:101B14000A128A15831203133C08D6003B08D50029
:101B24003A08D4003908D300FF2F6508803A753E7F
:101B3400031C9D2D9E2D262E0A30F2000030F3004A
:101B44006508F400F501F41BF5030A168A15C82389
:101B54000A128A15720883120313D7000130031086
:101B6400D70DFF3E031DB12D0310570D353E8400E4
:101B74000A168A1500200A128A15D8000A168A1530
:101B840000200A128A15D9000A168A1500200A12A2
:101B94008A15DA000A168A1500200A128A15DB0053
:101BA4005B08BC005A08BB005908BA005808B900C1
:101BB4000A30A0000030A1006508A200A301A21B06
:101BC400A3030A168A1589240A128A158312031399
:101BD4002008DC0001300310DC0DFF3E031DED2D59
:101BE40003105C0D593E84000A168A1500200A125F
:101BF4008A15DD000A168A1500200A128A15DE00ED
:101C04000A168A1500200A128A15DF000A168A1598
:101C140000200A128A15E0006008C0005F08BF00B7
:101C24005E08BE005D08BD000A128A1558210A121A
:101C34008A15831203133C08D6003B08D5003A08E2
:101C4400D4003908D300FF2F6508D70001300310F2
:101C5400D70DFF3E031D292E0310570D353E84007A
:101C64000A168A1500200A128A15D8000A168A153F
:101C740000200A128A15D9000A168A1500200A12B1
:101C84008A15DA000A168A1500200A128A15DB0062
:101C94005B08D6005A08D5005908D4005808D30068
:101CA400FF2F6508803A123E031C592E5A2E442FEA
:101CB4000A30A0000030A1006508F400F501F41B0F
:101CC400F5036430F2000030F3000A168A15C823C5
:101CD4000A128A15730883120313A3007208A20060
:101CE4000A168A1589240A128A15831203132008F6
:101CF400D70001300310D70DFF3E031D7C2E0310C7
:101D0400570D253E84000A168A1500200A128A15EA
:101D1400D8000A168A1500200A128A15D9000A1654
:101D24008A1500200A128A15DA000A168A1500207C
:101D34000A128A15DB005B08BC005A08BB0059086C
:101D4400BA005808B9006430A0000030A10065084A
:101D5400A200A301A21BA3030A168A1589240A124E
:101D64008A15831203132008DC0001300310DC0DF4
:101D7400FF3E031DB82E03105C0D493E84000A1675
:101D84008A1500200A128A15DD000A168A15002019
:101D94000A128A15DE000A168A1500200A128A150C
:101DA400DF000A168A1500200A128A15E00060086E
:101DB400C0005F08BF005E08BE005D08BD000A12D7
:101DC4008A1558210A128A15831203133C08E40069
:101DD4003B08E3003A08E2003908E1000A30F20067
:101DE4000030F3006508F400F501F41BF5030A164E
:101DF4008A15C8230A128A15720883120313D7009E
:101E040001300310D70DFF3E031D032F0310570DA0
:101E1400013E84000A168A1500200A128A15D80089
:101E24000A168A1500200A128A15D9000A168A157C
:101E340000200A128A15DA000A168A1500200A12EE
:101E44008A15DB005B08BC005A08BB005908BA00BD
:101E54005808B9006408C0006308BF006208BE00E7
:101E64006108BD000A128A1558210A128A158312C4
:101E740003133C08D6003B08D5003A08D4003908BF
:101E8400D300FF2F6508803A753E031C4A2F4B2F61
:101E9400D32F0A30F2000030F3006508F400F50196
:101EA400F41BF5030A168A15C8230A128A15720848
:101EB40083120313D70001300310D70DFF3E031D17
:101EC4005E2F0310570D013E84000A168A15002068
:101ED4000A128A15D8000A168A1500200A128A15D1
:101EE400D9000A168A1500200A128A15DA000A1681
:101EF4008A1500200A128A15DB005B08BC005A0808
:101F0400BB005908BA005808B9000A30A0000030D4
:101F1400A1006508A200A301A21BA3030A168A1547
:101F240089240A128A15831203132008DC00013065
:101F34000310DC0DFF3E031D9A2F03105C0D253E9C
:101F440084000A168A1500200A128A15DD000A1672
:101F54008A1500200A128A15DE000A168A15002046
:101F64000A128A15DF000A168A1500200A128A1539
:101F7400E0006008C0005F08BF005E08BE005D08A6
:101F8400BD000A128A1558210A128A1583120313F6
:101F94003C08D6003B08D5003A08D4003908D300E1
:101FA400FF2F6508D70001300310D70DFF3E031D36
:101FB400D62F0310570D013E84000A168A150020FF
:101FC4000A128A15D8000A168A1500200A128A15E0
:101FD400D9000A168A1500200A128A15DA000A1690
:101FE4008A1500200A128A15DB005B08D6005A08FD
:101FF400D5005908D4005808D300080072087304A7
:102004000319052806283528F601F60A1428013094
:102014000310F20DF30DFF3E031D0A280130FF00EB
:102024007F08F607F31F1728182809287308750274
:10203400031D1E2872087402031C21282228282844
:102044007208F4027308031CF503F502013003104F
:10205400F30CF20CFF3E031D29280130F602031D88
:102064003428352818287508F3007408F20008008D
:1020740083120313A000200803194128422856287C
:10208400F51F4528462856287209A2007309A300A3
:102094007409A4007509A500A20A0319A30A031967
:1020A400A40A0319A50A5E287508A5007408A400EB
:1020B4007308A3007208A200750874047304720400
:1020C400031D652866286F280030F5000030F400F1
:1020D4000030F3000030F200F3289630A1007F288E
:1020E4000130FF007F08A10701300310A50CA40CE8
:1020F400A30CA20CFF3E031D7728FE302505031D0B
:10210400842885287228A1280130FF007F08A107B0
:102114000130A207003003180130A3070030031870
:102124000130A407003003180130A5070130031063
:10213400A50CA40CA30CA20CFF3E031D9928FF3090
:102144002505031DA628A7288628B3280130A10247
:102154000130F6000310A20DA30DA40DA50DF60B7E
:10216400AC28A41BB628B728BD28023021020318C6
:10217400BC28BD28A8282118C028C128C928FF3098
:10218400A205FF30A3057F30A405FF30A505031089
:10219400A10C2108F600F701F801F9011830031029
:1021A400F60DF70DF80DF90DFF3E031DD128760845
:1021B400A2047708A3047808A4047908A5042008D5
:1021C4000319E528E628EB28F51FE928EA28EB2877
:1021D400A5172508F5002408F4002308F3002208B5
:1021E400F2000800831203131F14831603139F13B2
:1021F400831203139F131F179F121F129F111F1186
:10220400053083160313A400A40B0629092983129D
:1022140003139F149F180F2910290C291E088316D5
:102224000313A400A5012408B2002508B3001E0866
:10223400A400A5013208A700A60124082604A800CA
:1022440025082704A9002808B2002908B30044304F
:1022540083120313D6007F30D500C030D400003081
:10226400D3004030BC00A030BB000030BA000030C6
:10227400B900831603133208F2003308F300F401A3
:10228400F50100300A168A113A200A168A117508D7
:1022940083120313C0007408BF007308BE007208E1
:1022A400BD000A128A1558210A168A1183120313D3
:1022B4003C08DA003B08D9003A08D8003908D700AE
:1022C4000A168A11CC210A168A118312031356089E
:1022D40083160313B10083120313550883160313E3
:1022E400B00083120313540883160313AF00831240
:1022F4000313530883160313AE003F3083120313F2
:10230400BC00C530BB008B30BA007A30B9008316EC
:102314000313310883120313C00083160313300818
:1023240083120313BF00831603132F0883120313AE
:10233400BE00831603132E0883120313BD000A1272
:102344008A1558210A168A11831203133C0883162E
:102354000313AD00831203133B0883160313AC006D
:10236400831203133A0883160313AB008312031377
:10237400390883160313AA00831203131F1083164C
:1023840003132D08A3002C08A2002B08A1002A087F
:10239400A0000800831203135A088039E4005A0885
:1023A400DB005B07EB00D91FD829D929DA296B1484
:1023B4006B080319DE29DF29EF296B0A031DE329C2
:1023C400E429EC290030DA000030D9000030D800CC
:1023D4000030D700D917DA01F7290030DA000030CD
:1023E400D9000030D8000030D70056088039FF00EB
:1023F4007F08E4065608DB005B07EC00D51F032AC0
:10240400042A052A6C146C080319092A0A2A1A2AB0
:102414006C0A031D0E2A0F2A172A0030D60000303A
:10242400D5000030D4000030D300D517D601222ABD
:102434000030D6000030D5000030D4000030D30086
:102444005608550454045304031D292A2A2A432AEE
:102454000030DA000030D9000030D8000030D70056
:102464008030D9047F30DA046408FF007F08DA047E
:102474005A08D6005908D5005808D4005708D30084
:102484009A2B6B08031D472A482A512A0030D6008C
:102494000030D5000030D4000030D3009A2B6B08F4
:1024A400DB00DC015C08DE006C085B02DD00031C61
:1024B400DE035D087F3EE5005E080318013E003E32
:1024C400E6005A08E3005908E2005808E1005708FA
:1024D400E0000030DA000030D9000030D8000030CD
:1024E400D7000030EA000030E9000030E800003096
:1024F400E700EC01C72A6C080319812A822AA22A60
:102504000130DB000310E00DE10DE20DE30DDB0B08
:10251400842A0130DB000310D70DD80DD90DDA0D54
:10252400DB0B8D2AEA1F972A982A992A571401301F
:10253400DB000310E70DE80DE90DEA0DDB0B9B2A28
:1025440056086302031DB02A55086202031DB02A0F
:1025540054086102031DB02A53086002031CB32A05
:10256400B42AC32A6A175308E0025408031C540F00
:10257400E1025508031C550FE2025608031C560FCE
:10258400E3020130FF007F08EC071A306C02031CE1
:10259400CC2ACD2A7D2A63086204610460040319ED
:1025A400D42AD52AF42A6714F42A0130DB00031054
:1025B400D70DD80DD90DDA0DDB0BD92AEA1FE32A82
:1025C400E42AE52A57140130DB000310E70DE80D77
:1025D400E90DEA0DDB0BE72AFF30E5070318E60AED
:1025E400FF30E607D91FF72AF82AD72AEC01EA1F99
:1025F400FC2AFD2A192BFF306705DB00FF30680534
:10260400DC00FF306905DD007F306A05DE005E080E
:102614005D045C045B040319102B112B142BEC01D7
:10262400EC0A192B571C172B182B192B112B6C0880
:1026340003191D2B1E2B4F2B0130D7070030031815
:102644000130D807003003180130D90700300318CF
:102654000130DA075A1C2F2B302B4F2B5708DB0085
:102664005808DC005908DD005A08DE000130DF009C
:102674005E0DDE0CDD0CDC0CDB0CDF0B3A2B5E0894
:10268400DA005D08D9005C08D8005B08D700013087
:10269400E5070318E60A0030E6076608803AFF00FB
:1026A40080307F02031D582BFF306502031C5B2B17
:1026B4005C2B6A2BFF3083120313E5000030E60025
:1026C4000030DA000030D9000030D8000030D700E4
:1026D400831203136608803AFF0080307F02031DD3
:1026E400752B013065020318782B792B862B831206
:1026F4000313E501E6010030DA000030D9000030B0
:10270400D8000030D700E401831203136508EB00FE
:102714006B1C8D2B8E2B902BD917942B7F30FF00A5
:102724007F08D9056B08DB0003105B0CDA00362A3E
:10273400080083120313E6006E306602031CA32B09
:10274400A42BB32C3F30BC000030BB000030BA00D7
:102754000030B9006430A0000030A1006608D70042
:10276400D8015708A2005808A3000A168A15952212
:102774000A168A11831203132008D90001300310AA
:10278400D90DFF3E031DC12B0310590D7D3E84005E
:102794000A168A1500200A168A11DA000A168A1502
:1027A40000200A168A11DB000A168A1500200A1670
:1027B4008A11DC000A168A1500200A168A11DD0027
:1027C4005D08C0005C08BF005B08BE005A08BD007D
:1027D4000A128A1558210A168A11831203133C0817
:1027E400E5003B08E4003A08E3003908E2000A3057
:1027F400A0000030A1006608D700D8015708F400F3
:102804005808F5006430F2000030F3000A168A110B
:1028140000200A168A11730883120313A300720896
:10282400A2000A168A1595220A168A118312031326
:102834002008D90001300310D90DFF3E031D1D2CC3
:102844000310590D593E84000A168A1500200A16F1
:102854008A11DA000A168A1500200A168A11DB008A
:102864000A168A1500200A168A11DC000A168A152F
:1028740000200A168A11DD005D08BC005C08BB005C
:102884005B08BA005A08B9006508C0006408BF00B4
:102894006308BE006208BD000A128A1558210A1690
:1028A4008A11831203133C08E1003B08E0003A0854
:1028B400DF003908DE000A30F2000030F300660859
:1028C400D700D8015708F4005808F5000A168A11F1
:1028D40000200A168A11720883120313D9000130EA
:1028E4000310D90DFF3E031D722C0310590D353E04
:1028F40084000A168A1500200A168A11DA000A16BC
:102904008A1500200A168A11DB000A168A1500208F
:102914000A168A11DC000A168A1500200A168A1182
:10292400DD005D08BC005C08BB005B08BA005A0807
:10293400B9006108C0006008BF005F08BE005E08FF
:10294400BD000A128A1558210A168A11831203132C
:102954003C08D6003B08D5003A08D4003908D30017
:10296400A72D0B306602031CB82CB92C642D3F3004
:10297400BC000030BB000030BA000030B9000A309F
:10298400A0000030A1006608D700D8015708A200B3
:102994005808A3000A168A1595220A168A1183126A
:1029A40003132008D90001300310D90DFF3E031D85
:1029B400D62C0310590D593E84000A168A1500209E
:1029C4000A168A11DA000A168A1500200A168A11D4
:1029D400DB000A168A1500200A168A11DC000A1682
:1029E4008A1500200A168A11DD005D08C0005C0803
:1029F400BF005B08BE005A08BD000A128A155821A0
:102A04000A168A11831203133C08E5003B08E4000C
:102A14003A08E3003908E2000A30F2000030F3001B
:102A24006608D700D8015708F4005808F5000A16BC
:102A34008A1100200A168A11720883120313D9001E
:102A440001300310D90DFF3E031D232D0310590D32
:102A5400353E84000A168A1500200A168A11DA0007
:102A64000A168A1500200A168A11DB000A168A152E
:102A740000200A168A11DC000A168A1500200A169C
:102A84008A11DD005D08BC005C08BB005B08BA006D
:102A94005A08B9006508C0006408BF006308BE0096
:102AA4006208BD000A128A1558210A168A11831277
:102AB40003133C08D6003B08D5003A08D400390873
:102AC400D300A72D3F30BC000030BB000030BA005B
:102AD4000030B9006608D70001300310D70DFF3E5F
:102AE400031D6F2D0310570D353E84000A168A15F9
:102AF40000200A168A11D8000A168A1500200A1620
:102B04008A11D9000A168A1500200A168A11DA00D9
:102B14000A168A1500200A168A11DB005B08C00019
:102B24005A08BF005908BE005808BD000A128A1589
:102B340058210A168A11831203133C08D6003B0855
:102B4400D5003A08D4003908D300080083120313CF
:102B540028088039B5002808AD002D07B700A71F45
:102B6400B42DB52DB62D371437080319BA2DBB2D46
:102B7400CB2D370A031DBF2DC02DC82D0030A80052
:102B84000030A7000030A6000030A500A717A80158
:102B9400D32D0030A8000030A7000030A60000307C
:102BA400A5002C088039B600360835060319DB2D3C
:102BB400DC2DDD2D35172C08AD002D07B600AB1F1D
:102BC400E42DE52DE62D361436080319EA2DEB2DF8
:102BD400FB2D360A031DEF2DF02DF82D0030AC002F
:102BE4000030AB000030AA000030A900AB17AC01E4
:102BF400032E0030AC000030AB000030AA000030DF
:102C0400A900370836020318082E092E2F2E351F67
:102C14000C2E0D2E112E8030FF007F08B5063708CC
:102C2400B8003608B7003808B6002508B8002908E7
:102C3400A5003808A9002608B8002A08A600380804
:102C4400AA002708B8002B08A7003808AB002808FA
:102C5400B8002C08A8003808AC00B8013608AD004C
:102C6400AE012E08B00037082D02AF00031CB003DC
:102C74003008803AFF0080307F02031D432E1A3053
:102C84002F02031C462E472E7E2E83120313280880
:102C9400270426042504031D502E522E0130532EE2
:102CA4000030B8000030A8000030A7000030A600B3
:102CB4000030A5003608B700862E381C622E632E1D
:102CC4006A2E3808AD0003102D0C0138B8006C2EA4
:102CD4000310B80C251C6F2E702E712EB8170130FE
:102CE400AD00280DA80CA70CA60CA50CAD0B732EDB
:102CF4000130FF007F08B707831203133608370239
:102D0400031C852E862E5F2E351B892E8A2ED32EEC
:102D14003708031D8E2E8F2E982E0030A800003009
:102D2400A7000030A6000030A500FF2F2908A50742
:102D34002A0803110318013E0319A12EA6072B0824
:102D440003110318013E0319A82EA7072C08031129
:102D54000318013E0319AF2EA807281CB22EB32E68
:102D6400872F381CB62EB72EBE2E3808AD000310A0
:102D74002D0C0138B800C02E0310B80C251CC32E2E
:102D8400C42EC52EB8170130AD00280DA80CA70C11
:102D9400A60CA50CAD0BC72E0130FF007F08B707AA
:102DA400872F2808803AFF002C08803A7F02031DF1
:102DB400E52E2B082702031DE52E2A082602031DF3
:102DC400E52E290825020318E82EE92E412FFF30AD
:102DD400AD00FF30AE00FF30AF00FF30B000290877
:102DE400B1002A08B2002B08B3002C08B40025084F
:102DF400B1022608031C260F002F012FB202270858
:102E0400031C270F062F072FB3022808031C280FC3
:102E14000C2F0D2FB4023108AD0732080318320FFE
:102E2400142F152FAE0733080318330F1A2F1B2F37
:102E3400AF0734080318340AB0073008A8002F0875
:102E4400A7002E08A6002D08A5008030FF007F08EB
:102E5400B506B809B80A3808031D312F322F4F2F91
:102E64000130A507003003180130A607003003180D
:102E74000130A707003003180130A8074F2F290895
:102E8400A5022A08031C2A0FA6022B08031C2B0FD9
:102E9400A7022C08031C2C0FA802280827042604C8
:102EA4002504031D562F572F832F3808031D5B2F2E
:102EB4005C2F832F0030A8000030A7000030A6004C
:102EC4000030A500FF2F0130AD000310A50DA60DA5
:102ED400A70DA80DAD0B672FB81F712F722F732F7D
:102EE4002514381C762F772F7A2F0314B80D7C2FD6
:102EF4000310B80D37080319802F812F832F013059
:102F0400B702A71F862F872F652FB601B81F8B2FF7
:102F14008C2F9A2F38087F390319912F922F952FD0
:102F2400B601B60A9A2F251C982F992F9A2F922F03
:102F3400360803199E2F9F2FD32F0130A507003089
:102F440003180130A607003003180130A70700302A
:102F540003180130A807281CB02FB12FD32F250840
:102F6400AD002608AE002708AF002808B0000130E5
:102F7400B100300DB00CAF0CAE0CAD0CB10BBB2FCF
:102F84003008A8002F08A7002E08A6002D08A500C9
:102F9400370A0319CE2FCF2FD32F0130FF007F081C
:102FA400B707370A0319D72FD82FDD2F3708031D8A
:102FB400DC2FDD2FEB2F0030A8000030A7000030FD
:102FC400A6000030A5003708031DE92FEA2FEB2FD8
:102FD400B501371CEE2FEF2FF12FA717F52F7F30F8
:102FE400FF007F08A7053708AD0003102D0CA800CB
:102FF400B51FFD2FFE2FFF2FA817080018308A00D9
:103004000408840A820700340034003480343F34D6
:10301400003400342034413400340034C8344234A1
:10302400003400347A344434003440341C3446349C
:1030340000345034C33447340034243474344934B1
:103044008034963418344B342034BC34BE344C347D
:1030540028346B346E344E34F9340234153450341D
:10306400EC347834AD346034CA34F23449347134D5
:103074000034003480343F34CD34CC34CC343D344B
:103084000A34D73423343C346F34123483343A341E
:103094001734B734D1343834AC34C53427343734E6
:1030A400BD343734863435349534BF34D634333470
:1030B4007734CC342B3432345F3470348934303444
:1030C400FF34E634DB342E340834E5343C341E3427
:1030D40060344234A2340D340134003400340034FA
:1030E4000A340034003400346434003400340034CE
:1030F400E83403340034003410342734003400340A
:10310400A034863401340034403442340F34003463
:1031140080349634983400340034E134F534053482
:103124000034CA349A343B34413444344334303464
:103134003A342034253466342C3420344434753401
:10314400743479343A342034253475346334203477
:063154000D340A340034C2
:10327A00F200720883120313950091010800750881
:10328A0074047304720403194B294C294E298030A3
:10329A00F506080083160313811101158110011424
:1032AA0081128B160B1164308312031381008B1762
:1032BA0008007E088A007F0882000A168A155E21A5
:1032CA000A168A158000840A04087D060319003448
:1032DA00FF0A0319FE0A622919308316031399009B
:1032EA009816831203131816831603131812181547
:1032FA00831203139817181383160313181308005D
:10330A000B1D8829892990290B1164308312031314
:10331A00810008308706831203138C1C952996298D
:10332A0097298C1071088A00700E8300FE0E7E0E9B
:10333A000900831603130715FF3092000C3083121D
:10334A0003139700643095008C1002309200063007
:10335A0092008C1CB129B229AE29831603130711D6
:10336A00831203138C1083160313EF01EF0A08006C
:10337A00803083120313BC064008A8003F08A70048
:10338A003E08A6003D08A5003C08AC003B08AB007F
:10339A003A08AA003908A9000A168A11A8250A16A5
:1033AA008A15831203132808BC002708BB002608C5
:1033BA00BA002508B9000800F601F701721CE629CF
:1033CA00E729ED297408F6070318F70A7508F707BD
:1033DA0001300310F40DF50DFF3E031DEE290130F7
:1033EA000310F30CF20CFF3E031DF5297208730457
:1033FA00031D002A012AE3297708F3007608F20060
:10340A00080083120313A400A001A1017208F400AA
:10341A00F5017408A2007508A300241C152A162AAF
:10342A001C2A2208A0070318A10A2308A1070130B1
:10343A000310A20DA30DFF3E031D1D2A0310A40CA9
:10344A002408031D292A2A2A122A2108F3002008FF
:10345A00F200080076037704031D342A352A482A25
:10346A000130F800740A3B2A0310F80DFF3E031DD1
:10347A00392A7808FF00720884008317731C8313A3
:10348A007F0880045B2A0130F800740A4E2A031070
:10349A00F80DFF3E031D4C2A7808FF3AFF00720818
:1034AA0084008317731C83137F0880050800831622
:1034BA0003171008F2001108F3007B08F5007A08D8
:1034CA00F4000130F6000030F7000A168A152F22A0
:1034DA000A168A15073083120313A1007C30A00054
:1034EA00A00B752AA10B752A000083160317100872
:1034FA00F2001108F3007B08F5007A08F4000030A6
:10350A00F600F7000A168A152F220A168A15C730FE
:10351A0083120313A000912AA00B902A942A080070
:10352A00F801F901831203132008210403199E2AC2
:10353A009F2AD62AF701F70AAD2A01300310A00DF7
:10354A00A10DFF3E031DA32A0130FF007F08F707E4
:10355A00A11FB02AB12AA22A01300310F80DF90DD1
:10356A00FF3E031DB22A21082302031DBE2A20089A
:10357A002202031CC12AC22AC92A2008A20221083F
:10358A00031CA303A302781401300310A10CA00C9E
:10359A00FF3E031DCA2A0130F702031DD52AD62A87
:1035AA00B12A7908A1007808A00008008316031739
:1035BA001208F2001308F3001D08F5001C08F400B5
:1035CA000130831203132405F60000302505F700A5
:1035DA000A168A152F220A168A1583120313260839
:1035EA00A70004300310A70CFF3E031DF72A270883
:1035FA00A800A9012808A0002908A1000A168A150E
:10360A006A250A168A150A168A155C220A168A1566
:10361A008312031326080F39A700A8012708A00060
:10362A002808A1000A168A156A250A168A150A1692
:10363A008A155C220A168A15080000307205831260
:10364A000313A00000307305A10080307405A200A6
:10365A007F307505A3002308220421042004031DDA
:10366A00372B382B402B0030F5000030F4000030A7
:10367A00F3000030F20000307605A0000030770534
:10368A00A10080307805A2007F307905A3002308C5
:10369A00220421042004031D532B542B5C2B0030DD
:1036AA00F9000030F8000030F7000030F600790821
:1036BA007506031D6A2B78087406031D6A2B7708A2
:1036CA007306031D6A2B7608720603196D2B6E2B7F
:1036DA00702B0310712B031408008312031329089B
:1036EA0028042704260403197B2B7C2BBF2BAF014C
:1036FA00AF0A8C2B0130AE000310A60DA70DA80D42
:10370A00A90DAE0B812B0130FF007F08AF07A91F5F
:10371A008F2B902B7F2B29082D02031D9E2B280807
:10372A002C02031D9E2B27082B02031D9E2B260805
:10373A002A02031CA12BA22BB02B2608AA022708B7
:10374A00031C270FAB022808031C280FAC02290808
:10375A00031C290FAD0201300310A90CA80CA70CF9
:10376A00A60CFF3E031DB12B0130AF02031DBE2B79
:10377A00BF2B902B2D08A9002C08A8002B08A70006
:10378A002A08A6000800F701F51FCC2BCD2BD42B55
:10379A00F409F509F40A0319F50AF701F70AF31F00
:1037AA00D72BD82BDD2BF209F309F20A0319F30AF6
:1037BA00720873040319E22BE32B122CF601F60AA2
:1037CA00F12B01300310F20DF30DFF3E031DE72B21
:1037DA000130FF007F08F607F31FF42BF52BE62BC9
:1037EA0073087502031DFB2B72087402031CFE2B5F
:1037FA00FF2B052C7208F4027308031CF503F5026B
:10380A0001300310F30CF20CFF3E031D062C0130AD
:10381A00F602031D112C122CF52B77080319162C0E
:10382A00172C1C2CF409F509F40A0319F50A750872
:10383A00F3007408F2000800003083120313A40096
:10384A000030A3000030A2000030A1007508740403
:10385A00730472040319322C332C802CA501A50A97
:10386A00432C0130A0000310F20DF30DF40DF50DF9
:10387A00A00B382C0130FF007F08A507F51F462C46
:10388A00472C362C0130A0000310A10DA20DA30D68
:10389A00A40DA00B492C75087902031D5E2C74082F
:1038AA007802031D5E2C73087702031D5E2C7208D2
:1038BA007602031C612C622C712C7208F6027308C2
:1038CA00031C730FF7027408031C740FF8027508BF
:1038DA00031C750FF902211401300310F50CF40CC6
:1038EA00F30CF20CFF3E031D722C0130A502031DDE
:1038FA007F2C802C472C2408F5002308F40022088A
:10390A00F3002108F200080083120313A501A11F86
:10391A008F2C902C972CA009A109A00A0319A10A9F
:10392A00A501A50AA31F9A2C9B2CA42CA209A309C2
:10393A00A20A0319A30A0130FF007F08A506A601FF
:10394A00A701200821040319AB2CAC2CE32CA401F9
:10395A00A40ABA2C01300310A00DA10DFF3E031DCD
:10396A00B02C0130FF007F08A407A11FBD2CBE2C7C
:10397A00AF2C01300310A60DA70DFF3E031DBF2C6F
:10398A0021082302031DCB2C20082202031CCE2C63
:10399A00CF2CD62C2008A2022108031CA303A302C1
:1039AA00261401300310A10CA00CFF3E031DD72CD6
:1039BA000130A402031DE22CE32CBE2C25080319B6
:1039CA00E72CE82CED2CA609A709A60A0319A70AD1
:1039DA002708A1002608A000080003108312031379
:1039EA00680D690DEF006F08031DFC2CFD2C062DD8
:1039FA000030E9000030E8000030E7000030E6005F
:103A0A00692D6608EA006708EB006808EC00690897
:103A1A00ED001F300310ED0CEC0CEB0CEA0CFF3E32
:103A2A00031D0F2D6A08EE00E817FF30E605FF3088
:103A3A00E705FF30E8050030E9059630EF02EF1F91
:103A4A00272D282D422D6F08803A973E03182E2DD8
:103A5A002F2D302DFD2C01300310E90CE80CE70C5A
:103A6A00E60CFF3E031D312D0130FF007F08EF07F2
:103A7A00031D402D412D302D592D20306F02031C7E
:103A8A00472D482D542DFD2C0130EA000310E60D78
:103A9A00E70DE80DE90DEA0B4B2D0130EF026F0837
:103AAA00031D582D592D492D6E0803195D2D5E2DC4
:103ABA00692DE609E709E809E909E60A0319E70AA7
:103ACA000319E80A0319E90A0800831603136D08A3
:103ADA00F2006E08F300831603171B08F5001A0894
:103AEA00F4000130831203132005F600003021058B
:103AFA00F7000A168A152F220A168A158316031347
:103B0A006D08F2006E08F300831603171908F50012
:103B1A001808F400831203132108A3002008A20046
:103B2A00230DA30CA20C01302205F6000030230558
:103B3A00F7000A168A152F220A168A158316031306
:103B4A006D08F2006E08F300831603171708F500D4
:103B5A001608F400831203132108A3002008A20008
:103B6A00230DA30CA20C230DA30CA20C01302205D9
:103B7A00F60000302305F7000A168A152F220A16C6
:103B8A008A15831603136D08F2006E08F300831674
:103B9A0003171508F5001408F4008312031321080B
:103BAA00A3002008A200230DA30CA20C230DA30C32
:103BBA00A20C230DA30CA20C01302205F600003042
:103BCA002305F7000A168A152F220A168A150800F5
:103BDA000030720583120313A00000307305A100A0
:103BEA0080307405A2007F307505A30023082204E3
:103BFA0021042004031D022E032E0B2E0030F50093
:103C0A000030F4000030F3000030F2000030760596
:103C1A00A00000307705A10080307805A2007F302F
:103C2A007905A3002308220421042004031D1E2E63
:103C3A001F2E272E0030F9000030F8000030F70060
:103C4A000030F600F51F2A2E2B2E4F2E0030A00032
:103C5A000030A1000030A2008030A3007208A00248
:103C6A007308031C730F3A2E3B2EA1027408031C1F
:103C7A00740F402E412EA2027508031C750F462EA2
:103C8A00472EA3022308F5002208F4002108F300B6
:103C9A002008F200F91F522E532E772E0030A00072
:103CAA000030A1000030A2008030A3007608A002F4
:103CBA007708031C770F622E632EA1027808031C73
:103CCA00780F682E692EA2027908031C790F6E2ECE
:103CDA006F2EA3022308F9002208F8002108F70032
:103CEA002008F6008030F5068030F906790875025A
:103CFA00031D892E78087402031D892E7708730222
:103D0A00031D892E7608720203188C2E8D2E8F2E93
:103D1A000310902E03140800720883120313A000E4
:103D2A007308A1007408A2000310210D220DA80037
:103D3A002808031DA12EA22EAB2E0030F50000305C
:103D4A00F4000030F3000030F200472F7608A0009C
:103D5A007708A1007808A2000310210D220DA70000
:103D6A002708031DB92EBA2EBB2EA22EF317FF3039
:103D7A00F205FF30F3050030F405F717FF30F605BA
:103D8A00FF30F7050030F8050030A6000030A50026
:103D9A000030A4000030A3007F30A8029830270723
:103DAA00A0002008A8021830A7000130A0000310C4
:103DBA00A30DA40DA50DA60DA00BDC2E7808740288
:103DCA00031DED2E77087302031DED2E760872028D
:103DDA00031CF02EF12EFC2E7608F2027708031C43
:103DEA00770FF3027808031C780AF40223140130CF
:103DFA000310F20DF30DF40DFF3E031DFD2E0130ED
:103E0A00A702031D092F0A2FDA2EA81F0D2F0E2F26
:103E1A00282F2808803A973E0318142F152F162F9B
:103E2A00A22E01300310A60CA50CA40CA30CFF3E75
:103E3A00031D172F0130FF007F08A807031D262F37
:103E4A00272F162F3F2F18302802031C2D2F2E2F15
:103E5A003A2FA22E0130A0000310A30DA40DA50D28
:103E6A00A60DA00B312F0130A8022808031D3E2FF2
:103E7A003F2F2F2F2608F5002508F4002408F30009
:103E8A002308F20008000310740D750D8312031342
:103E9A00A6002608031D522F532F5C2F0030F50071
:103EAA000030F4000030F3000030F200FF2F03105E
:103EBA00780D790DA5002508031D642F652F662F3F
:103ECA00532FF417FF30F205FF30F305FF30F405E6
:103EDA000030F505F817FF30F605FF30F705FF301B
:103EEA00F8050030F9050030A4000030A3000030C6
:103EFA00A2000030A1007F30A602A0302507A00052
:103F0A002008A6022030A5000130A0000310A10D50
:103F1A00A20DA30DA40DA00B8B2F79087502031D0A
:103F2A00A02F78087402031DA02F77087302031DBF
:103F3A00A02F76087202031CA32FA42FB32F760892
:103F4A00F2027708031C770FF3027808031C780F34
:103F5A00F4027908031C790FF50221140130A0003C
:103F6A000310F20DF30DF40DF50DA00BB52F013072
:103F7A00A502031DC12FC22F892FA61FC52FC62F29
:103F8A00E02F2608803A9F3E0318CC2FCD2FCE2F44
:103F9A00532F01300310A40CA30CA20CA10CFF3E5A
:103FAA00031DCF2F0130FF007F08A607031DDE2F58
:103FBA00DF2FCE2FF72F20302602031CE52FE62F06
:103FCA00F22F532F0130A0000310A10DA20DA30D53
:103FDA00A40DA00BE92F0130A6022608031DF62F17
:103FEA00F72FE72F2408F5002308F4002208F3002E
:0E3FFA002108F2000800FF3FFF3FFF3FFF3F9E
:04400E00F43FFF3F3D
:00000001FF
