:060000000A128A110C280F
:10000800FE00030EF0000A08F1000A168A15F12A0C
:100018000A128A110F288317AA30FD001A30FE0031
:10002800C530FF009E3084000A168A15E422831624
:100038000317900191019201930194019501960192
:100048009701980199019A019B019C019D018316D2
:100058000313ED01EE01EF01FA01FB0183010A121E
:100068008A11CE2E83160313BF00A130B0000130D1
:10007800A007FF30200784000A168A1100200A1200
:100088008A11C40044080319C92E253044060319EF
:1000980057283F0884004408831380000130FF007C
:1000A8007F08BF073B28B101B201612832157E28BD
:1000B800C030B1040030B2047E280130A007FF3000
:1000C800200784000A168A1100200A128A11C40027
:1000D800A700A8012808003A031973283B28270815
:1000E800003A0319C92E663A03195A28133A031914
:1000F8005C283B2800303105A70007303205A800EE
:10010800270828040319F72D0630B3000030B4007F
:100118003008840083130008C000840A0008C10066
:10012800840A0008C200840A0008C3000430FF00E3
:100138007F08B0074308F5004208F4004108F300BF
:100148004008F2000030F9000030F8000030F700F5
:100158000030F6000A168A15C8260A128A110318F2
:10016800D228831603134308F5004208F400410817
:10017800F3004008F2000A168A15BC220A128A11F6
:10018800750883160313C3007408C2007308C100FE
:100198007208C0000330B1040030B20483160313A0
:1001A800B901BA014308F5004208F4004108F30018
:1001B8004008F2000030F9000030F8000030F70085
:1001C8000030F6000A168A159B240A128A110318B1
:1001D800E629031083160313420D430D823EB9002E
:1001E800FF3003180030BA00FF30B9070318BA0A05
:1001F800FF30BA070330F2000030F3003A08F50088
:100208003908F4000A128A1500200A128A117308A4
:1002180083160313BA007208B9000A308312031355
:10022800A0000030A100831603133A0883120313B9
:10023800A30083160313390883120313A2000A16B6
:100248008A11AD200A128A1183120313210883161A
:100258000313BA0083120313200883160313B9008B
:10026800BA1F3C29FF30B9070318BA0AFF30BA078A
:100278003903FF3A0A128A15B3240A128A11831223
:100288000313560883160313BE008312031355087D
:1002980083160313BD008312031354088316031334
:1002A800BC0083120313530883160313BB004308CF
:1002B80083120313BC00831603134208831203132B
:1002C800BB0083160313410883120313BA00831675
:1002D8000313400883120313B900831603133E085F
:1002E80083120313C000831603133D0883120313FC
:1002F800BF00831603133C0883120313BE00831642
:1003080003133B0883120313BD000A128A15BA218E
:100318000A128A11831203133C0883160313BE00C2
:10032800831203133B0883160313BD0083120313C0
:100338003A0883160313BC00831203133908831683
:100348000313BB003E08F5003D08F4003C08F30029
:100358003B08F2003F30F9008030F8000030F70029
:100368000030F6000A168A15C8260A128A110318E0
:10037800C529FF3083160313B9070318BA0AFF30DB
:10038800E529831603133E08F5003D08F4003C08F0
:10039800F3003B08F2004130F9002030F80000304B
:1003A800F7000030F6000A168A15C8260A128A11C4
:1003B800031CE629013083160313B9070318BA0A88
:1003C8000030BA0706300A168A11FD250A128A116A
:1003D800831203135608A8005508A7005408A6005E
:1003E8005308A50083160313430883120313AC00B4
:1003F80083160313420883120313AB0083160313F7
:10040800410883120313AA008316031340088312BA
:100418000313A9000A168A11FE230A128A118312ED
:100428000313280883160313C30083120313270832
:1004380083160313C20083120313260883160313BB
:10044800C10083120313250883160313C0003A085A
:10045800803AFF0080307F02031D342A0A303902B7
:100468000318812A831603134308F5004208F40091
:100478004108F3004008F2000030F9000030F800AD
:100488000030F7000030F6000A168A159B240A127D
:100498008A110318EA2A83160313430883120313E5
:1004A800E90083160313420883120313E800831636
:1004B8000313410883120313E7008316031340084C
:1004C80083120313E6000A168A15DE250A128A111A
:1004D800831203136908680467046604031DEA2A83
:1004E800831603133A08803AFF0080307F02031D09
:1004F8007F2A02303902031CEA2A831603133E08B6
:10050800F5003D08F4003C08F3003B08F2004030D9
:10051800F9008930F8007030F7005F30F6000A16ED
:100528008A15C8260A128A1103189C2AF7309D2AB0
:10053800F83083160313B9070318BA0AFF30BA074D
:1005480039080A128A15B3240A128A11831203136E
:10055800560883160313BE00831203135508831627
:100568000313BD0083120313540883160313BC003E
:1005780083120313530883160313BB004308F500C3
:100588004208F4004108F3004008F2003E08F90070
:100598003D08F8003C08F7003B08F6000A168A11E7
:1005A800AB210A128A11750883160313B800740860
:1005B800B7007308B6007208B5000030C3000030F9
:1005C800C2000030C1000030C0006E2B8316031338
:1005D800430883120313E9008316031342088312A6
:1005E8000313E80083160313410883120313E7007B
:1005F80083160313400883120313E6000A168A15AC
:10060800DE250A128A11831203136908831603135D
:10061800B80083120313680883160313B700831204
:100628000313670883160313B600831203136608BF
:1006380083160313B5003808F5003708F4003608A8
:10064800F3003508F20000300A168A155D270A12F1
:100658008A11750883120313BC007408BB00730861
:10066800BA007208B90083160313430883120313F0
:10067800C00083160313420883120313BF008316B6
:100688000313410883120313BE00831603134008A3
:1006980083120313BD000A168A153B230A128A1116
:1006A800831203133C0883160313C3008312031336
:1006B8003B0883160313C200831203133A088316F8
:1006C8000313C10083120313390883160313C000F0
:1006D800B901BA01C401C40A4408A70001300310D3
:1006E800A70DFF3E031D732B0310270D693E8400E1
:1006F8000A168A1100200A128A11A8000A168A11FD
:1007080000200A128A11A9000A168A1100200A126A
:100718008A11AA000A168A1100200A128A11AB004F
:100728002B083802031DA22B2A083702031DA22B0F
:1007380029083602031DA22B28083502031CAC2BFE
:100748000130FF007F08C4070A304406031D702BE0
:1007580003303105A70000303205A8002708280417
:100768000319BF2B3F0884002D308313800001300C
:10077800FF007F08BF070130C402440A0319542C44
:100788004408A70001300310A70DFF3E031DC72B27
:100798000310270D693E84000A168A1100200A12E8
:1007A8008A11F2000A168A1100200A128A11F3002F
:1007B8000A168A1100200A128A11F4000A168A11F0
:1007C80000200A128A11F5003808F9003708F800E5
:1007D8003608F7003508F6000A168A157E250A122B
:1007E8008A11750883160313BE007408BD007308C8
:1007F800BC007208BB00003083120313A90000304C
:10080800A8000030A7000A30A600831603133E088C
:1008180083120313AD00831603133D0883120313D9
:10082800AC00831603133C0883120313AB00831632
:1008380003133B0883120313AA000A168A153025EE
:100848000A128A1183120313290883160313BE00A0
:1008580083120313280883160313BD00831203139E
:10086800270883160313BC00831203132608831674
:100878000313BB003F0884003B08303EB92B8316A6
:1008880003133F0884003030831380000130FF00D9
:100898007F08BF07FF30B9070318BA0AFF30BA0745
:1008A8003A08803AFF0080307F02031D5D2C01303A
:1008B80039020318432C831603133408803AFF00C7
:1008C80080307F02031D6A2C09303302031C702C10
:1008D800083083160313732C831603133308C400DC
:1008E8004408A700A8012708B3022808031CB4037A
:1008F800B40244080319892C3F0884002E3083135E
:1009080080000130FF007F08BF0744080A128A15DB
:10091800B3240A128A118312031356088316031389
:10092800AF0083120313550883160313AE00831216
:100938000313540883160313AD00831203135308DB
:1009480083160313AC002F0883120313C000831609
:1009580003132E0883120313BF00831603132D08F5
:1009680083120313BE00831603132C088312031388
:10097800BD0083160313430883120313BC008316B8
:100988000313420883120313BB00831603134108A1
:1009980083120313BA008316031340088312031348
:1009A800B9000A128A15BA210A128A11831203138E
:1009B8003C08E9003B08E8003A08E7003908E60087
:1009C8000A168A15DE250A128A118312031369088A
:1009D80083160313B80083120313680883160313DE
:1009E800B70083120313670883160313B600831234
:1009F8000313660883160313B5000130C402440AC2
:100A08000319F22D4408A70001300310A70DFF3E7B
:100A1800031D092D0310270D693E84000A168A114B
:100A280000200A128A11F2000A168A1100200A12FE
:100A38008A11F3000A168A1100200A128A11F4009A
:100A48000A168A1100200A128A11F5003808F900DE
:100A58003708F8003608F7003508F6000A168A1530
:100A68007E250A128A11750883160313BE007408BE
:100A7800BD007308BC007208BB000030831203136A
:100A8800A9000030A8000030A7000A30A60083168D
:100A980003133E0883120313AD00831603133D08A6
:100AA80083120313AC00831603133C088312031349
:100AB800AB00831603133B0883120313AA000A161C
:100AC8008A1530250A128A118312031329088316FE
:100AD8000313BE0083120313280883160313BD00F3
:100AE80083120313270883160313BC00831203130E
:100AF800260883160313BB003F0884003B08303EDA
:100B0800831380000130FF007F08BF074408A70057
:100B180001300310A70DFF3E031D8D2D0310270D77
:100B2800693E84000A168A1100200A128A1183126B
:100B38000313A6000A168A1100200A128A11A700B8
:100B48000A168A1100200A128A11A8000A168A11A8
:100B580000200A128A11A900831603133808831289
:100B68000313AD0083160313370883120313AC0075
:100B780083160313360883120313AB00831603137B
:100B8800350883120313AA000A168A1530250A129B
:100B98008A1183120313290883160313B8008312DA
:100BA8000313280883160313B700831203132708B7
:100BB80083160313B600831203132608FE2C3F087E
:100BC80084003030831380000130FF007F08BF07A6
:100BD800FF30B3070318B40AFF30B40733083404EE
:100BE80003193B28E32D3008840083130008A7006D
:100BF800840A0008A8002708B5002808B600B7012D
:100C0800B8010230FF007F08B007C401C40A4408D5
:100C1800A70001300310A70DFF3E031D0E2E031081
:100C2800270D693E84000A168A1100200A128A11CB
:100C3800A8000A168A1100200A128A11A9000A16A9
:100C48008A1100200A128A11AA000A168A110020A5
:100C58000A128A11AB002B083802031D3D2E2A0800
:100C68003702031D3D2E29083602031D3D2E280894
:100C78003502031C472E0130FF007F08C4070A30E5
:100C88004406031D0B2E03303105A7000030320542
:100C9800A8002708280403195A2E3F0884002D307D
:100CA800831380000130FF007F08BF074408A700B6
:100CB800A8012708B3002808B400FF30B3070318B9
:100CC800B40AFF30B407330A0319340A03193B285E
:100CD800003083120313A9000030A8000030A700D9
:100CE8000A30A600831603133308A7000130031047
:100CF800A70DFF3E031D7B2E0310270D693E8400C0
:100D08000A168A1100200A128A11F2000A168A119C
:100D180000200A128A11F3000A168A1100200A120A
:100D28008A11F4000A168A1100200A128A11F500A5
:100D38003808F9003708F8003608F7003508F600D3
:100D48000A168A157E250A128A117508831203135A
:100D5800AD007408AC007308AB007208AA000A164C
:100D68008A1530250A128A11831203132608303E89
:100D780083160313C4003F088400440883138000CB
:100D88000130FF007F08BF07612E3F0884008313EE
:100D9800800108008316031789018316031386014F
:100DA8000A128A11EB270A128A110A168A151E23BB
:100DB8000A128A110A168A15D1220A128A11831672
:100DC800031387119E300A168A1123230A128A11E7
:100DD8000A168A114F220A128A118316031323084E
:100DE800EC002208EB002108EA002008E9006C0862
:100DF800F5006B08F4006A08F3006908F200413056
:100E0800F900C830F8000030F7000030F6000A1684
:100E18008A15C8260A128A110318162F8316031377
:100E2800E801822F4230F5004830F4000030F3002A
:100E38000030F200831603136C08F9006B08F80001
:100E48006A08F7006908F6000A168A15C8260A1201
:100E58008A110318312FFF307F2F831603136C0874
:100E680083120313AC00831603136B088312031356
:100E7800AB00831603136A0883120313AA008316B0
:100E88000313690883120313A900C130A800C830EE
:100E9800A7000030A6000030A5000A168A11FE231C
:100EA8000A128A11831203132808C0002708BF00FA
:100EB8002608BE002508BD004130BC002330BB0019
:100EC8003330BA003330B9000A128A15BA210A122F
:100ED8008A11831203133C08E9003B08E8003A082A
:100EE800E7003908E6000A168A15DE250A128A1173
:100EF80083120313660883160313E8009130A000D9
:100F08006C08A4006B08A3006A08A2006908A10085
:100F18006808C500C6014508A5004608A600C730F0
:100F28000A128A1136200A128A1183160313E6015F
:100F3800E7016608C73E8400831300080319B62F2B
:100F48006608C73E840000088312031399008316BD
:100F58000313981CAB2F0130E6070318E70A00308B
:100F6800E7079D2F831203138C1ED82F1A088316A8
:100F78000313E50030306506031DC72F6F080319FA
:100F8800C72F0030CF2F31306506031DD82F6F08CB
:100F9800031DD82F01300A168A1505230A128A1153
:100FA80050308312031399008316031368080A1636
:100FB8008A15B5220A128A11823083160313C600D5
:100FC800DD30C500C50BE62FC60BE62FEC2E193019
:100FD80083160313990098168312031318168316A1
:100FE800031318121815831203139817181383166E
:060FF800031318130800AA
:10100000F601F701721C0A287408F6070318F70A9C
:101010007508F70701300310F40DF50DFF3E031DB1
:101020000B2801300310F30CF20CFF3E031D1228B5
:1010300072087304031D02287708F3007608F20093
:101040000800831203135A088039E4005A08DB00B1
:101050005B07EB00D91B6B146B0803193D286B0A67
:10106000031D3A280030DA000030D9000030D800E3
:101070000030D700D917DA0145280030DA000030F7
:10108000D9000030D8000030D70056088039FF0062
:101090007F08E4065608DB005B07EC00D51B6C14E8
:1010A0006C08031961286C0A031D5E280030D60005
:1010B0000030D5000030D4000030D300D517D60161
:1010C00069280030D6000030D5000030D400003050
:1010D000D3005608550454045304031D88280030D7
:1010E000DA000030D9000030D8000030D70080305E
:1010F000D9047F30DA046408FF007F08DA045A0854
:10110000D6005908D5005808D4005708D300080065
:101110006B08031D94280030D6000030D500003045
:10112000D4000030D30008006B08DB00DC015C0851
:10113000DE006C085B02DD00031CDE035D087F3E01
:10114000E5005E080318013E003EE6005A08E30091
:101150005908E2005808E1005708E0000030DA00C2
:101160000030D9000030D8000030D7000030EA004D
:101170000030E9000030E8000030E700EC011A30F0
:101180006C02031807296C080319E3280130DB00FF
:101190000310E00DE10DE20DE30DDB0BC82801307B
:1011A000DB000310D70DD80DD90DDA0DDB0BD128DC
:1011B000EA1B57140130DB000310E70DE80DE90DC1
:1011C000EA0DDB0BDC2856086302031DF1285508E5
:1011D0006202031DF12854086102031DF12853081F
:1011E0006002031C02296A175308E0025408031C1A
:1011F000540FE1025508031C550FE2025608031C68
:10120000560FE3020130FF007F08EC07BF28630898
:10121000620461046004031D6714D91B2A2901308C
:10122000DB000310D70DD80DD90DDA0DDB0B11291A
:10123000EA1B57140130DB000310E70DE80DE90D40
:10124000EA0DDB0B1C29FF30E5070318E60AFF3027
:10125000E6070D29EC01EA1F4329FF306705DB0093
:10126000FF306805DC00FF306905DD007F306A056E
:10127000DE005E085D045C045B0403195718412915
:101280004329EC01EC0A6C08031975290130D707D2
:10129000003003180130D807003003180130D90797
:1012A000003003180130DA075A1C75295708DB0093
:1012B0005808DC005908DD005A08DE000130DF0064
:1012C0005E0DDE0CDD0CDC0CDB0CDF0B60295E0838
:1012D000DA005D08D9005C08D8005B08D70001304F
:1012E000E5070318E60A0030E6076608803AFF00C3
:1012F00080307F02031D7E29FF306502031C8E298A
:10130000FF3083120313E5000030E6000030DA00FE
:101310000030D9000030D8000030D700831203130A
:101320006608803AFF0080307F02031D9929013052
:1013300065020318A82983120313E501E6010030B2
:10134000DA000030D9000030D8000030D700E401C6
:10135000831203136508EB006B1CB029D917B4295D
:101360007F30FF007F08D9056B08DB0003105B0CA2
:10137000DA007B28831203133C088039C6003C083E
:10138000C1004107CC00BB1B4C144C080319D529E4
:101390004C0A031DD3290030BC000030BB000030D4
:1013A000BA000030B900BB17DD290030BC000030A6
:1013B000BB000030BA000030B90040088039FF009F
:1013C0007F08C6064008C1004107C700BF1B47147D
:1013D00047080319F829470A031DF6290030C00001
:1013E0000030BF000030BE000030BD00BF17002A33
:1013F0000030C0000030BF000030BE000030BD0033
:101400004708031D4C08031D0E2A0030BC000030A5
:10141000BB000030BA000030B90008003908F20003
:101420003F080A168A155D230A128A15730883126B
:101430000313D2007208D1005108C100C201C301D8
:10144000C4014408CB004308CA004208C90041084F
:10145000C8005208C100C201C301C4014408D00041
:101460004308CF004208CE004108CD003A08F20000
:101470003E080A168A155D230A128A15730883121C
:101480000313D2007208D1005108C100C201C30188
:10149000C4014108C807420803110318013E031D97
:1014A000C907430803110318013E031DCA07440876
:1014B00003110318013E031DCB075208C100C201EE
:1014C000C301C4014108CD07420803110318013EBE
:1014D000031DCE07430803110318013E031DCF0768
:1014E000440803110318013E031DD0073B08F20016
:1014F0003D080A168A155D230A128A15730883129D
:101500000313D2007208D1005108C100C201C30107
:10151000C4014108C807420803110318013E031D16
:10152000C907430803110318013E031DCA074408F5
:1015300003110318013E031DCB075208C100C2016D
:10154000C301C4014108CD07420803110318013E3D
:10155000031DCE07430803110318013E031DCF07E7
:10156000440803110318013E031DD0070830C100D1
:101570000310C80DC90DCA0DCB0DC10BB82A3A080E
:10158000F2003D080A168A155D230A128A157308AF
:1015900083120313D2007208D1005108C10052080F
:1015A000C200C301C4014108C8074208031103185F
:1015B000013E031DC907430803110318013E031D23
:1015C000CA07440803110318013E031DCB0739085D
:1015D000F2003E080A168A155D230A128A1573085E
:1015E00083120313D2007208D1005108C1005208BF
:1015F000C200C301C4014108C8074208031103180F
:10160000013E031DC907430803110318013E031DD2
:10161000CA07440803110318013E031DCB07083015
:10162000C1000310C80DC90DCA0DCB0DC10B112B84
:101630003908F2003D080A168A155D230A128A1538
:10164000730883120313D2007208D1005108C1003D
:101650005208C200C301C4014108C807420803116F
:101660000318013E031DC907430803110318013E77
:10167000031DCA07440803110318013E031DCB07CD
:101680003A08F2003F080A168A155D230A128A15E5
:10169000730883120313D2007208D1005108C100ED
:1016A0005208C200C301C4014108CD07420803111A
:1016B0000318013E031DCE07430803110318013E22
:1016C000031DCF07440803110318013E031DD00773
:1016D0003B08F2003E080A168A155D230A128A1595
:1016E000730883120313D2007208D1005108C1009D
:1016F0005208C200C301C4014108CD0742080311CA
:101700000318013E031DCE07430803110318013ED1
:10171000031DCF07440803110318013E031DD00722
:101720003B08F2003F080A168A155D230A128A1543
:10173000730883120313D2007208D1005108C1004C
:101740005208C200C301C40108300310C10DC20D0C
:10175000C30DC40DFF3E031DA52B4108CD07420854
:1017600003110318013E031DCE074308031103189C
:10177000013E031DCF07440803110318013E031D5A
:10178000D0074808C1004908C2004A08C3004B08F6
:10179000C40018300310C40CC30CC20CC10CFF3EB3
:1017A000031DCA2B4108CD07420803110318013E4F
:1017B000031DCE07430803110318013E031DCF0785
:1017C000440803110318013E031DD0070830C1006F
:1017D0000310C80DC90DCA0DCB0DC10BE82B4C0869
:1017E0004707C100C201C20D4108823ED100420834
:1017F0000318013EFF3ED200CF1B192C0130C1005F
:101800000310CD0DCE0DCF0DD00DC10B002CCB1B79
:101810004D140130C1000310C80DC90DCA0DCB0D08
:10182000C10B0B2CFF30D1070318D20AFF30D207AF
:10183000FC2BC701CB1F322CFF304805C100FF3005
:101840004905C200FF304A05C3007F304B05C40084
:10185000440843044204410403194D18302C322C2F
:10186000C701C70A47080319642C0130CD070030AF
:1018700003180130CE07003003180130CF070030C5
:1018800003180130D007501C642C4D08C1004E08CD
:10189000C2004F08C3005008C4000130C500440D09
:1018A000C40CC30CC20CC10CC50B4F2C4408D00097
:1018B0004308CF004208CE004108CD000130D107D7
:1018C0000318D20A0030D2075208803AFF00803055
:1018D0007F02031D6D2CFF305102031C7A2C7F30D8
:1018E00083120313D0008030CF000030CE000030D0
:1018F000CD00A62C831203135208803AFF008030DB
:101900007F02031D852C013051020318932C0030F7
:1019100083120313D0000030CF000030CE0000301F
:10192000CD00C601A62C831203135108CC00FF3052
:10193000CD05FF30CE057F30CF050030D0054C18E7
:10194000CF174C08C1000310410CD0004608FF001F
:101950007F08D0045008BC004F08BB004E08BA00F6
:101960004D08B900080083120313E500E51F5D2E42
:10197000E509E50A6508803A123E031CA72D0A30E6
:10198000A0000030A1006508F400F501F41BF50388
:101990006430F2000030F3000A168A15E5240A12BA
:1019A0008A15730883120313A3007208A2000A1693
:1019B0008A11AD200A128A15831203132008D7005A
:1019C00001300310D70DFF3E031DE12C0310570D0E
:1019D000593E84000A168A1100200A128A15D8007E
:1019E0000A168A1100200A128A15D9000A168A11CD
:1019F00000200A128A15DA000A168A1100200A123B
:101A00008A15DB005B08BC005A08BB005908BA0005
:101A10005808B9006430A0000030A1006508A20099
:101A2000A301A21BA3030A168A11AD200A128A156C
:101A3000831203132008DC0001300310DC0DFF3E8D
:101A4000031D1D2D03105C0D7D3E84000A168A11B6
:101A500000200A128A15DD000A168A1100200A12D7
:101A60008A15DE000A168A1100200A128A15DF0084
:101A70000A168A1100200A128A15E0006008C000C8
:101A80005F08BF005E08BE005D08BD000A128A152F
:101A9000BA210A128A15831203133C08E4003B089A
:101AA000E3003A08E2003908E1000A30F2000030B1
:101AB000F3006508F400F501F41BF5030A168A1516
:101AC000E5240A128A15720883120313D700013025
:101AD0000310D70DFF3E031D682D0310570D353E33
:101AE00084000A168A1100200A128A15D8000A16E4
:101AF0008A1100200A128A15D9000A168A110020BC
:101B00000A128A15DA000A168A1100200A128A15AA
:101B1000DB005B08BC005A08BB005908BA00580833
:101B2000B9006408C0006308BF006208BE00610815
:101B3000BD000A128A15BA21831203133C08D6008D
:101B40003B08D5003A08D4003908D30008006508DE
:101B5000803A753E031C322E0A30F2000030F3004A
:101B60006508F400F501F41BF5030A168A15E5244F
:101B70000A128A15720883120313D700013003106A
:101B8000D70DFF3E031DBF2D0310570D353E8400BA
:101B90000A168A1100200A128A15D8000A168A111C
:101BA00000200A128A15D9000A168A1100200A128A
:101BB0008A15DA000A168A1100200A128A15DB003B
:101BC0005B08BC005A08BB005908BA005808B900A5
:101BD0000A30A0000030A1006508A200A301A21BEA
:101BE000A3030A168A11AD200A128A158312031361
:101BF0002008DC0001300310DC0DFF3E031DFB2D2F
:101C000003105C0D593E84000A168A1100200A1246
:101C10008A15DD000A168A1100200A128A15DE00D4
:101C20000A168A1100200A128A15DF000A168A1184
:101C300000200A128A15E0006008C0005F08BF009B
:101C40005E08BE005D08BD000A128A15BA21831223
:101C500003133C08D6003B08D5003A08D4003908E5
:101C6000D30008006508D70001300310D70DFF3EF0
:101C7000031D352E0310570D353E84000A168A11B8
:101C800000200A128A15D8000A168A1100200A12AA
:101C90008A15D9000A168A1100200A128A15DA005C
:101CA0000A168A110020DB005B08D6005A08D5000E
:101CB0005908D4005808D30008006508803A123E3D
:101CC000031C4A2F0A30A0000030A1006508F40070
:101CD000F501F41BF5036430F2000030F3000A163E
:101CE0008A15E5240A128A15730883120313A300C8
:101CF0007208A2000A168A11AD200A128A158312F0
:101D000003132008D70001300310D70DFF3E031D39
:101D1000842E0310570D253E84000A168A110020D8
:101D20000A128A15D8000A168A1100200A128A158A
:101D3000D9000A168A1100200A128A15DA000A163A
:101D40008A1100200A128A15DB005B08BC005A08C1
:101D5000BB005908BA005808B9006430A000003030
:101D6000A1006508A200A301A21BA3030A168A1101
:101D7000AD200A128A15831203132008DC000130FB
:101D80000310DC0DFF3E031DC02E03105C0D493E09
:101D900084000A168A1100200A128A15DD000A162C
:101DA0008A1100200A128A15DE000A168A11002004
:101DB0000A128A15DF000A168A1100200A128A15F3
:101DC000E0006008C0005F08BF005E08BE005D085C
:101DD000BD000A128A15BA210A128A15831203134A
:101DE0003C08E4003B08E3003A08E2003908E1005F
:101DF0000A30F2000030F3006508F400F501F41B2E
:101E0000F5030A168A15E5240A128A157208831248
:101E10000313D70001300310D70DFF3E031D0B2F16
:101E20000310570D013E84000A168A1100200A1281
:101E30008A15D8000A168A1100200A128A15D900BC
:101E40000A168A1100200A128A15DA000A168A1167
:101E500000200A128A15DB005B08BC005A08BB0090
:101E60005908BA005808B9006408C0006308BF00E8
:101E70006208BE006108BD000A128A15BA218312E9
:101E800003133C08D6003B08D5003A08D4003908B3
:101E9000D30008006508803A753E031CD52F0A3030
:101EA000F2000030F3006508F400F501F41BF503BF
:101EB0000A168A15E5240A128A157208831203137A
:101EC000D70001300310D70DFF3E031D622F031012
:101ED000570D013E84000A168A1100200A128A1545
:101EE000D8000A168A1100200A128A15D9000A168B
:101EF0008A1100200A128A15DA000A168A110020B7
:101F00000A128A15DB005B08BC005A08BB0059089E
:101F1000BA005808B9000A30A0000030A1006508D6
:101F2000A200A301A21BA3030A168A11AD200A1264
:101F30008A15831203132008DC0001300310DC0D26
:101F4000FF3E031D9E2F03105C0D253E84000A16E4
:101F50008A1100200A128A15DD000A168A11002053
:101F60000A128A15DE000A168A1100200A128A1542
:101F7000DF000A168A1100200A128A15E0006008A4
:101F8000C0005F08BF005E08BE005D08BD000A1209
:101F90008A15BA21831203133C08D6003B08D500EA
:101FA0003A08D4003908D30008006508D70001308A
:101FB0000310D70DFF3E031DD82F0310570D013E10
:101FC00084000A168A1100200A128A15D8000A16FF
:101FD0008A1100200A128A15D9000A168A110020D7
:101FE0000A128A15DA000A168A110020DB005B0843
:101FF000D6005A08D5005908D4005808D300080064
:1020000010308A000408840A820700340034003447
:1020100080343F3400340034203441340034003400
:10202000C8344234003400347A3444340034403408
:102030001C34463400345034C33447340034243420
:10204000743449348034963418344B342034BC34DE
:10205000BE344C3428346B346E344E34F93402348C
:1020600015345034EC347834AD346034CA34F2343E
:10207000493471340034003480343F34CD34CC34AE
:10208000CC343D340A34D73423343C346F341234E6
:1020900083343A341734B734D1343834AC34C5349B
:1020A00027343734BD343734863435349534BF342F
:1020B000D63433347734CC342B3432345F34703408
:1020C00089343034FF34E634DB342E340834E534DC
:1020D0003C341E3460344234A2340D3401340034B4
:1020E000003400340A3400340034003464340034E2
:1020F00000340034E834033400340034103427341E
:1021000000340034A0348634013400344034423486
:102110000F34003480349634983400340034E13481
:10212000F53405340034CA349A343B3441344434F1
:10213000433430343A342034253466342C3420345B
:1021400044347534743479343A3420342534753455
:10215000633420340D340A34003483120313A50190
:10216000A11FB928A009A109A00A0319A10AA50164
:10217000A50AA31FC428A209A309A20A0319A30A36
:102180000130FF007F08A506A601A7012008210451
:102190000319FB28A401A40AA11BDA2801300310AB
:1021A000A00DA10DFF3E031DCF280130FF007F08C9
:1021B000A407CC2801300310A60DA70DFF3E031D78
:1021C000DB2821082302031DE72820082202031C24
:1021D000F0282008A2022108031CA303A30226144E
:1021E00001300310A10CA00CFF3E031DF1280130AB
:1021F000A402031DDA28250803190329A609A70943
:10220000A60A0319A70A2708A1002608A0000800AB
:10221000720883120313A0007308A1007408A200BF
:102220000310210D220DA8002808031D20290030CD
:10223000F5000030F4000030F3000030F200080038
:102240007608A0007708A1007808A2000310210DED
:10225000220DA700270803191729F317FF30F205ED
:10226000FF30F3050030F405F717FF30F605FF30B7
:10227000F7050030F8050030A6000030A50000305A
:10228000A4000030A3007F30A80298302707A000E8
:102290002008A8021830A7000130A0000310A30DE9
:1022A000A40DA50DA60DA00B4E2978087402031DE0
:1022B0005F2977087302031D5F2976087202031CE9
:1022C0006C297608F2027708031C770FF30278086E
:1022D000031C780AF402231401300310F20DF30DED
:1022E000F40DFF3E031D6D290130A702031D4C298B
:1022F000A81F8F292808803A973E031C1729013010
:102300000310A60CA50CA40CA30CFF3E031D8029F2
:102310000130FF007F08A8070319A2297F29183080
:1023200028020318172928080319A2290130A00040
:102330000310A30DA40DA50DA60DA00B9829013027
:10234000A80293292608F5002508F4002408F300C4
:102350002308F20008000310740D750D8312031397
:10236000A6002608031DBD290030F5000030F4004A
:102370000030F3000030F20008000310780D790DF2
:10238000A50025080319B429F417FF30F205FF3022
:10239000F305FF30F4050030F505F817FF30F605BA
:1023A000FF30F705FF30F8050030F9050030A400D4
:1023B0000030A3000030A2000030A1007F30A60250
:1023C000A0302507A0002008A6022030A50001307B
:1023D000A0000310A10DA20DA30DA40DA00BE929CF
:1023E00079087502031DFE2978087402031DFE2971
:1023F00077087302031DFE2976087202031C0F2A58
:102400007608F2027708031C770FF3027808031CA2
:10241000780FF4027908031C790FF50221140130BA
:10242000A0000310F20DF30DF40DF50DA00B112A11
:102430000130A502031DE729A61F332A2608803A8A
:102440009F3E031CB42901300310A40CA30CA20C62
:10245000A10CFF3E031D242A0130FF007F08A607C0
:102460000319462A232A203026020318B4292608F5
:102470000319462A0130A0000310A10DA20DA30DDF
:10248000A40DA00B3C2A0130A602372A2408F5002F
:102490002308F4002208F3002108F2000800831248
:1024A00003131F14831603139F13831203139F1325
:1024B0001F179F121F129F111F1105308316031340
:1024C000A400A40B612A642A831203139F149F188B
:1024D000672A1E0883160313A400A5012408B2006E
:1024E0002508B3001E08A400A5013208A700A60114
:1024F00024082604A80025082704A9002808B200FB
:102500002908B300443083120313D6007F30D5006E
:10251000C030D4000030D3004030BC00A030BB003D
:102520000030BA000030B900831603133208F200FD
:102530003308F300F401F50100300A168A155D270F
:102540000A168A11750883120313C0007408BF00AD
:102550007308BE007208BD000A128A15BA210A1655
:102560008A11831203133C08DA003B08D9003A08A9
:10257000D8003908D7000A128A1521200A168A11B4
:1025800083120313560883160313B1008312031337
:10259000550883160313B0008312031354088316DF
:1025A0000313AF0083120313530883160313AE0003
:1025B0003F3083120313BC00C530BB008B30BA0020
:1025C0007A30B90083160313310883120313C00055
:1025D00083160313300883120313BF0083160313FB
:1025E0002F0883120313BE00831603132E088312D1
:1025F0000313BD000A128A15BA21831203133C0883
:1026000083160313AD00831203133B0883160313D1
:10261000AC00831203133A0883160313AB00831232
:102620000313390883160313AA00831203131F1020
:10263000831603132D08A3002C08A2002B08A10069
:102640002A08A0000800F900790884008317000810
:10265000831603179200840A000884039300790804
:10266000033E840000089000840A0008840391005F
:102670007908063E8400000883160313ED00840ADF
:1026800000088403EE007908023E840000088312EB
:102690000313AA00AB012A08831603179C008312B8
:1026A00003132B08831603179D007908053E840049
:1026B000000883120313AA00AB012A08FA002B08B2
:1026C000FB007908083E84000008AA00AB012A0834
:1026D000831603179A00831203132B08831603171C
:1026E0009B007908093E8400000883120313AA00A6
:1026F000AB012A08831603179800831203132B08D3
:1027000083160317990079080A3E84000008831293
:102710000313AA00AB012A0883160317960083123D
:1027200003132B0883160317970079080B3E8400C8
:10273000000883120313AA00AB012A0883160317AB
:102740009400831203132B0883160317950041305E
:1027500083120313AB00ED30AA00AA0BAD2BAB0B19
:10276000AD2BB22B023083120313A0000030A10066
:102770000A168A1547260A168A110A168A15DF23B1
:102780000A168A11003083120313A400A500283012
:10279000A6000A168A1556240A168A1100308312DA
:1027A0000313A400A5000C30A6000A168A155624AF
:1027B0000A168A11003083120313A400A500063004
:1027C000A6000A168A1556240A168A1100308312AA
:1027D0000313A400A500A601A60A0A168A1556240A
:1027E0000A168A11073083120313AB007C30AA004B
:1027F000AA0BF82BAB0BF82B000008008312031375
:1028000028088039B5002808AD002D07B700A71BA0
:102810003714370803191A2C370A031D172C0030F8
:10282000A8000030A7000030A6000030A500A717C0
:10283000A801222C0030A8000030A7000030A6001C
:102840000030A5002C088039B60036083506031D77
:1028500035172C08AD002D07B600AB1B3614360813
:102860000319402C360A031D3D2C0030AC0000300B
:10287000AB000030AA000030A900AB17AC01482C17
:102880000030AC000030AB000030AA000030A900DE
:10289000370836020318702C351F522C8030FF0089
:1028A0007F08B5063708B8003608B7003808B60004
:1028B0002508B8002908A5003808A9002608B8008E
:1028C0002A08A6003808AA002708B8002B08A70085
:1028D0003808AB002808B8002C08A8003808AC005D
:1028E000B8013608AD00AE012E08B00037082D0241
:1028F000AF00031CB0033008803AFF0080307F0235
:10290000031D842C1A302F02031CB72C83120313CF
:1029100028082704260425040319902C0130912C43
:102920000030B8000030A8000030A7000030A6003A
:102930000030A5003608B700BD2C381CA62C38087E
:10294000AD0003102D0C0138B800A82C0310B80CF2
:102950002518B8170130AD00280DA80CA70CA60C3F
:10296000A50CAD0BAC2C0130FF007F08B70783121C
:10297000031336083702031C9D2C351BFC2C37082B
:10298000031DCB2C0030A8000030A7000030A600AB
:102990000030A50008002908A5072A08031103181C
:1029A000013E031DA6072B0803110318013E031D5A
:1029B000A7072C0803110318013E031DA807281CB4
:1029C0009E2D381CEA2C3808AD0003102D0C013860
:1029D000B800EC2C0310B80C2518B8170130AD0066
:1029E000280DA80CA70CA60CA50CAD0BF02C0130E3
:1029F000FF007F08B7079E2D2808803AFF002C08AB
:102A0000803A7F02031D0E2D2B082702031D0E2D79
:102A10002A082602031D0E2D290825020318662DFB
:102A2000FF30AD00FF30AE00FF30AF00FF30B00030
:102A30002908B1002A08B2002B08B3002C08B40002
:102A40002508B1022608031C260F272D282DB202C7
:102A50002708031C270F2D2D2E2DB3022808031C39
:102A6000280F332D342DB4023108AD073208031876
:102A7000320F3B2D3C2DAE0733080318330F412D89
:102A8000422DAF0734080318340AB0073008A800F5
:102A90002F08A7002E08A6002D08A5008030FF00F3
:102AA0007F08B506B809B80A3808031D742D01302F
:102AB000A507003003180130A607003003180130C5
:102AC000A707003003180130A807742D2908A502B4
:102AD0002A08031C2A0FA6022B08031C2B0FA7028F
:102AE0002C08031C2C0FA802280827042604250400
:102AF000031D9C2D3808031D9C2D0030A8000030BC
:102B0000A7000030A6000030A50008000130AD008D
:102B10000310A50DA60DA70DA80DAD0B882DB81B94
:102B20002514381C952D0314962D0310B80D370865
:102B300003199C2D0130B702A71F862DB601B81FBF
:102B4000A92D38087F3903192518A72DA92DB601FD
:102B5000B60A36080319DC2D0130A507003003182A
:102B60000130A607003003180130A7070030031812
:102B70000130A807281CDC2D2508AD002608AE0072
:102B80002708AF002808B0000130B100300DB00CAC
:102B9000AF0CAE0CAD0CB10BC62D3008A8002F0841
:102BA000A7002E08A6002D08A500370A0319DC2D62
:102BB0000130FF007F08B707370A031D3708031DE0
:102BC000EC2D0030A8000030A7000030A600003037
:102BD000A50037080319B501371CF02DA717F42DF0
:102BE0007F30FF007F08A7053708AD0003102D0CCC
:102BF000A800B51F0800A817080083120313E600F9
:102C00006E306602031C112F3F30BC000030BB0049
:102C10000030BA000030B9006430A0000030A100DC
:102C20006608D700D8015708A2005808A3000A1662
:102C30008A1518240A168A11831203132008D90052
:102C400001300310D90DFF3E031D212E0310590D35
:102C50007D3E84000A168A1100200A168A11DA00C5
:102C60000A168A1100200A168A11DB000A168A1138
:102C700000200A168A11DC000A168A1100200A16A2
:102C80008A11DD005D08C0005C08BF005B08BE0063
:102C90005A08BD000A128A15BA210A168A1183122F
:102CA00003133C08E5003B08E4003A08E300390858
:102CB000E2000A30A0000030A1006608D700D80169
:102CC0005708F4005808F5006430F2000030F300B3
:102CD0000A168A15AD230A168A1173088312031384
:102CE000A3007208A2000A168A1518240A168A116F
:102CF000831203132008D90001300310D90DFF3EC1
:102D0000031D7D2E0310590D593E84000A168A11A9
:102D100000200A168A11DA000A168A1100200A1603
:102D20008A11DB000A168A1100200A168A11DC00BB
:102D30000A168A1100200A168A11DD005D08BC00FF
:102D40005C08BB005B08BA005A08B9006508C000FF
:102D50006408BF006308BE006208BD000A128A153D
:102D6000BA210A168A11831203133C08E1003B08BA
:102D7000E0003A08DF003908DE000A30F2000030D7
:102D8000F3006608D700D8015708F4005808F5008A
:102D90000A168A15AD230A168A11720883120313C4
:102DA000D90001300310D90DFF3E031DD22E0310B0
:102DB000590D353E84000A168A1100200A168A1120
:102DC000DA000A168A1100200A168A11DB000A1698
:102DD0008A1100200A168A11DC000A168A110020C6
:102DE0000A168A11DD005D08BC005C08BB005B08A8
:102DF000BA005A08B9006108C0006008BF005F0847
:102E0000BE005E08BD000A128A15BA2183120313A0
:102E10003C08D6003B08D5003A08D4003908D30056
:102E200008000B306602031CBE2F3F30BC00003090
:102E3000BB000030BA000030B9000A30A0000030FA
:102E4000A1006608D700D8015708A2005808A300BF
:102E50000A168A1518240A168A11831203132008E9
:102E6000D90001300310D90DFF3E031D322F03108E
:102E7000590D593E84000A168A1100200A168A113B
:102E8000DA000A168A1100200A168A11DB000A16D7
:102E90008A1100200A168A11DC000A168A11002005
:102EA0000A168A11DD005D08C0005C08BF005B08DF
:102EB000BE005A08BD000A128A15BA210A168A11E4
:102EC000831203133C08E5003B08E4003A08E300E2
:102ED0003908E2000A30F2000030F3006608D7003B
:102EE000D8015708F4005808F5000A168A15AD23D2
:102EF0000A168A11720883120313D90001300310D5
:102F0000D90DFF3E031D7F2F0310590D353E840060
:102F10000A168A1100200A168A11DA000A168A1186
:102F200000200A168A11DB000A168A1100200A16F0
:102F30008A11DC000A168A1100200A168A11DD00A7
:102F40005D08BC005C08BB005B08BA005A08B90009
:102F50006508C0006408BF006308BE006208BD00C9
:102F60000A128A15BA21831203133C08D6003B08C3
:102F7000D5003A08D4003908D30008003F30BC001F
:102F80000030BB000030BA000030B9006608D7003E
:102F900001300310D70DFF3E031DC92F0310570D3D
:102FA000353E84000A168A1100200A168A11D800BC
:102FB0000A168A1100200A168A11D9000A168A11E7
:102FC00000200A168A11DA000A168A1100200A1651
:102FD0008A11DB005B08C0005A08BF005908BE0018
:102FE0005808BD000A128A15BA21831203133C083F
:102FF000D6003B08D5003A08D4003908D3000800B1
:10356A00F20072088312031395009101080075088E
:10357A00740473047204031908008030F506080005
:10358A00063400340234063400340334063400347A
:10359A0004340534063407348316031381110115E4
:1035AA008110011481128B160B11643083120313DC
:1035BA0081008B1708007E088A007F088200E022BB
:1035CA000A168A158000840A04087D060319003445
:1035DA00FF0A0319FE0AE42A0B1DFA2A0B116430AA
:1035EA0083120313810008308706831203138C1891
:1035FA008C1071088A00700E8300FE0E7E0E090080
:10360A00F20072080319142B0C308312031397006B
:10361A009101831603130711EF01EF0A08008316BD
:10362A000313071583120313970183160313EF017C
:10363A000800831603130715FF3092000C3083121B
:10364A0003139700643095008C1002309200063004
:10365A0092008C1C2E2B831603130711831203135B
:10366A008C1083160313EF01EF0A080080308312CF
:10367A000313BC064008A8003F08A7003E08A6009E
:10368A003D08A5003C08AC003B08AB003A08AA007C
:10369A003908A9000A168A11FE238312031328087F
:1036AA00BC002708BB002608BA002508B900080094
:1036BA0083120313A400A001A1017208F400F5010A
:1036CA007408A2007508A300241C712B2208A00705
:1036DA000318A10A2308A10701300310A20DA30DA4
:1036EA00FF3E031D722B0310A40C2408031D692B33
:1036FA002108F3002008F200080076037704031D6E
:10370A00992B0130F800740A8C2B0310F80DFF3E38
:10371A00031D8A2B7808FF00720884008317731C24
:10372A0083137F08800408000130F800740A9F2B75
:10373A000310F80DFF3E031D9D2B7808FF3AFF008A
:10374A00720884008317731C83137F08800508009E
:10375A00720873040319DA2BF601F60AF31BC12B5C
:10376A0001300310F20DF30DFF3E031DB62B01309D
:10377A00FF007F08F607B32B73087502031DC72BDA
:10378A0072087402031CCF2B7208F4027308031C1C
:10379A00F503F50201300310F30CF20CFF3E031D92
:1037AA00D02B0130F602031DC12B7508F3007408F3
:1037BA00F2000800831603171008F2001108F3003C
:1037CA007B08F5007A08F4000130F6000030F700B3
:1037DA000A168A1582230A168A15073083120313DA
:1037EA00A1007C30A000A00BF82BA10BF82B000045
:1037FA00831603171008F2001108F3007B08F5007E
:10380A007A08F4000030F600F7000A168A158223B7
:10381A000A168A15C73083120313A000142CA00BB2
:10382A00132C172C0800F801F9018312031320083E
:10383A0021040319512CF701F70AA11B302C01307E
:10384A000310A00DA10DFF3E031D252C0130FF0022
:10385A007F08F707222C01300310F80DF90DFF3EFF
:10386A00031D312C21082302031D3D2C20082202AE
:10387A00031C462C2008A2022108031CA303A3024E
:10388A00781401300310A10CA00CFF3E031D472C35
:10389A000130F702031D302C7908A1007808A00036
:1038AA000800831603171208F2001308F3001D0814
:1038BA00F5001C08F4000130831203132405F600F6
:1038CA0000302505F7000A168A1582230A168A157A
:1038DA00831203132608A70004300310A70CFF3E27
:1038EA00031D722C2708A800A9012808A00029088E
:1038FA00A1000A168A1547260A168A150A168A1573
:10390A00DF230A168A158312031326080F39A70024
:10391A00A8012708A0002808A1000A168A15472628
:10392A000A168A150A168A15DF230800003072055E
:10393A0083120313A00000307305A10080307405C0
:10394A00A2007F307505A300230822042104200465
:10395A00031DB72C0030F5000030F4000030F300EE
:10396A000030F20000307605A00000307705A10093
:10397A0080307805A2007F307905A300230822044D
:10398A0021042004031DD12C0030F9000030F80076
:10399A000030F7000030F60079087506031DDF2CA9
:1039AA0078087406031DDF2C77087306031DDF2CC5
:1039BA00760872060319E32C0310080003140800A2
:1039CA00F701F51FEF2CF409F509F40A0319F50AB2
:1039DA00F701F70AF31FF62CF209F309F20A0319A1
:1039EA00F30A720873040319232DF601F60AF31B6E
:1039FA000A2D01300310F20DF30DFF3E031DFF2CBB
:103A0A000130FF007F08F607FC2C73087502031DBE
:103A1A00102D72087402031C182D7208F402730820
:103A2A00031CF503F50201300310F30CF20CFF3E00
:103A3A00031D192D0130F602031D0A2D77080319FB
:103A4A002B2DF409F509F40A0319F50A7508F30090
:103A5A007408F200080083120313290828042704B3
:103A6A0026040319752DAF01AF0AA91B4A2D01308F
:103A7A00AE000310A60DA70DA80DA90DAE0B3E2D85
:103A8A000130FF007F08AF073A2D29082D02031DD8
:103A9A00582D28082C02031D582D27082B02031D18
:103AAA00582D26082A02031C682D2608AA02270870
:103ABA00031C270FAB022808031C280FAC02290895
:103ACA00031C290FAD0201300310A90CA80CA70C86
:103ADA00A60CFF3E031D692D0130AF02031D4A2DBE
:103AEA002D08A9002C08A8002B08A7002A08A60060
:103AFA000800003083120313A4000030A300003032
:103B0A00A2000030A100750874047304720403193A
:103B1A00D52DA501A50AF51BA02D0130A000031083
:103B2A00F20DF30DF40DF50DA00B942D0130FF00ED
:103B3A007F08A507902D0130A0000310A10DA20D4A
:103B4A00A30DA40DA00BA22D75087902031DB72D94
:103B5A0074087802031DB72D73087702031DB72D69
:103B6A0072087602031CC82D7208F6027308031C39
:103B7A00730FF7027408031C740FF8027508031C0C
:103B8A00750FF902211401300310F50CF40CF30C33
:103B9A00F20CFF3E031DC92D0130A502031DA02D05
:103BAA002408F5002308F4002208F3002108F20093
:103BBA000800031083120313680D690DEF006F08E4
:103BCA00031DF02D0030E9000030E8000030E70066
:103BDA000030E60008006608EA006708EB0068089B
:103BEA00EC006908ED001F300310ED0CEC0CEB0C37
:103BFA00EA0CFF3E031DF92D6A08EE00E817FF30B4
:103C0A00E605FF30E705FF30E8050030E9059630A4
:103C1A00EF02EF1F252E6F08803A973E031CE72D0F
:103C2A0001300310E90CE80CE70CE60CFF3E031D1B
:103C3A00162E0130FF007F08EF070319382E152EC4
:103C4A0020306F020318E72D6F080319382E013050
:103C5A00EA000310E60DE70DE80DE90DEA0B2E2E3A
:103C6A000130EF02292E6E0803190800E609E70958
:103C7A00E809E909E60A0319E70A0319E80A031930
:103C8A00E90A0800831603136D08F2006E08F300B0
:103C9A00831603171B08F5001A08F4000130831273
:103CAA0003132005F60000302105F7000A168A15CD
:103CBA0082230A168A15831603136D08F2006E080A
:103CCA00F300831603171908F5001808F400831285
:103CDA0003132108A3002008A200230DA30CA20CA1
:103CEA0001302205F60000302305F7000A168A156E
:103CFA0082230A168A15831603136D08F2006E08CA
:103D0A00F300831603171708F5001608F400831248
:103D1A0003132108A3002008A200230DA30CA20C60
:103D2A00230DA30CA20C01302205F6000030230556
:103D3A00F7000A168A1582230A168A1583160313B0
:103D4A006D08F2006E08F300831603171508F500D4
:103D5A001408F400831203132108A3002008A20008
:103D6A00230DA30CA20C230DA30CA20C230DA30C50
:103D7A00A20C01302205F60000302305F7000A16CE
:103D8A008A15822308000030720583120313A000EB
:103D9A0000307305A10080307405A2007F307505DC
:103DAA00A3002308220421042004031DE42E00306A
:103DBA00F5000030F4000030F3000030F20000306B
:103DCA007605A00000307705A10080307805A200B2
:103DDA007F307905A3002308220421042004031D4F
:103DEA00FE2E0030F9000030F8000030F7000030F5
:103DFA00F600F51F242F0030A0000030A10000308B
:103E0A00A2008030A3007208A0027308031C730F7B
:103E1A000F2F102FA1027408031C740F152F162FD1
:103E2A00A2027508031C750F1B2F1C2FA30223085F
:103E3A00F5002208F4002108F3002008F200F91F17
:103E4A004A2F0030A0000030A1000030A2008030CC
:103E5A00A3007608A0027708031C770F352F362FA8
:103E6A00A1027808031C780F3B2F3C2FA202790885
:103E7A00031C790F412F422FA3022308F9002208BD
:103E8A00F8002108F7002008F6008030F506803097
:103E9A00F90679087502031D080078087402031DE3
:103EAA00080077087302031D0800760872020800EA
:103EBA0083120313A0002008031DF51F742F720933
:103ECA00A2007309A3007409A4007509A500A20A37
:103EDA000319A30A0319A40A0319A50A7C2F750852
:103EEA00A5007408A4007308A3007208A20075084C
:103EFA00740473047204031D8B2F0030F500003024
:103F0A00F4000030F3000030F20008009630A100FF
:103F1A00FE3025050319BA2F0130FF007F08A107DB
:103F2A0001300310A50CA40CA30CA20CFF3E031D28
:103F3A00962F8D2F0130FF007F08A1070130A207BD
:103F4A00003003180130A307003003180130A4071A
:103F5A00003003180130A50701300310A50CA40C8A
:103F6A00A30CA20CFF3E031DB22FFF302505031937
:103F7A00CE2F9F2F02302102031CD02F0130A10225
:103F8A000130F6000310A20DA30DA40DA50DF60B2A
:103F9A00C72FA41FBF2F2118DA2FFF30A205FF3029
:103FAA00A3057F30A405FF30A5050310A10C210845
:103FBA00F600F701F801F90118300310F60DF70DB4
:103FCA00F80DF90DFF3E031DE22F7608A2047708CB
:103FDA00A3047808A4047908A5042008031DF51F82
:103FEA00F72FA5172508F5002408F4002308F30085
:0E3FFA002208F2000800FF3FFF3FFF3FFF3F9D
:04400E00F43FFF3F3D
:00000001FF
